{"abi":[{"inputs":[{"internalType":"uint256","name":"minimum","type":"uint256"}],"name":"createCampaign","outputs":[],"stateMutability":"nonpayable","type":"function"},{"inputs":[{"internalType":"uint256","name":"","type":"uint256"}],"name":"deployedCampaigns","outputs":[{"internalType":"address","name":"","type":"address"}],"stateMutability":"view","type":"function"},{"inputs":[],"name":"getAllDeployedCampaigns","outputs":[{"internalType":"address[]","name":"","type":"address[]"}],"stateMutability":"view","type":"function"}],"devdoc":{"kind":"dev","methods":{},"version":1},"evm":{"assembly":"    /* \"campaign\":69:444  contract CampaignFactory{... */\n  mstore(0x40, 0x80)\n  callvalue\n  dup1\n  iszero\n  tag_1\n  jumpi\n  0x00\n  dup1\n  revert\ntag_1:\n  pop\n  dataSize(sub_0)\n  dup1\n  dataOffset(sub_0)\n  0x00\n  codecopy\n  0x00\n  return\nstop\n\nsub_0: assembly {\n        /* \"campaign\":69:444  contract CampaignFactory{... */\n      mstore(0x40, 0x80)\n      callvalue\n      dup1\n      iszero\n      tag_1\n      jumpi\n      0x00\n      dup1\n      revert\n    tag_1:\n      pop\n      jumpi(tag_2, lt(calldatasize, 0x04))\n      shr(0xe0, calldataload(0x00))\n      dup1\n      0x339d50a5\n      eq\n      tag_3\n      jumpi\n      dup1\n      0xa3303a75\n      eq\n      tag_4\n      jumpi\n      dup1\n      0xa950fbc5\n      eq\n      tag_5\n      jumpi\n    tag_2:\n      0x00\n      dup1\n      revert\n        /* \"campaign\":100:135  address[] public  deployedCampaigns */\n    tag_3:\n      tag_6\n      0x04\n      dup1\n      calldatasize\n      sub\n      dup2\n      add\n      swap1\n      tag_7\n      swap2\n      swap1\n      tag_8\n      jump\t// in\n    tag_7:\n      tag_9\n      jump\t// in\n    tag_6:\n      mload(0x40)\n      tag_10\n      swap2\n      swap1\n      tag_11\n      jump\t// in\n    tag_10:\n      mload(0x40)\n      dup1\n      swap2\n      sub\n      swap1\n      return\n        /* \"campaign\":144:317  function createCampaign(uint minimum) public {... */\n    tag_4:\n      tag_12\n      0x04\n      dup1\n      calldatasize\n      sub\n      dup2\n      add\n      swap1\n      tag_13\n      swap2\n      swap1\n      tag_8\n      jump\t// in\n    tag_13:\n      tag_14\n      jump\t// in\n    tag_12:\n      stop\n        /* \"campaign\":326:441  function getAllDeployedCampaigns() public view returns(address[] memory){... */\n    tag_5:\n      tag_15\n      tag_16\n      jump\t// in\n    tag_15:\n      mload(0x40)\n      tag_17\n      swap2\n      swap1\n      tag_18\n      jump\t// in\n    tag_17:\n      mload(0x40)\n      dup1\n      swap2\n      sub\n      swap1\n      return\n        /* \"campaign\":100:135  address[] public  deployedCampaigns */\n    tag_9:\n      0x00\n      dup2\n      dup2\n      sload\n      dup2\n      lt\n      tag_19\n      jumpi\n      0x00\n      dup1\n      revert\n    tag_19:\n      swap1\n      0x00\n      mstore\n      keccak256(0x00, 0x20)\n      add\n      0x00\n      swap2\n      pop\n      sload\n      swap1\n      0x0100\n      exp\n      swap1\n      div\n      0xffffffffffffffffffffffffffffffffffffffff\n      and\n      dup2\n      jump\t// out\n        /* \"campaign\":144:317  function createCampaign(uint minimum) public {... */\n    tag_14:\n        /* \"campaign\":200:219  address newCampaign */\n      0x00\n        /* \"campaign\":243:250  minimum */\n      dup2\n        /* \"campaign\":251:261  msg.sender */\n      caller\n        /* \"campaign\":230:262  new Campaign(minimum,msg.sender) */\n      mload(0x40)\n      tag_22\n      swap1\n      tag_23\n      jump\t// in\n    tag_22:\n      tag_24\n      swap3\n      swap2\n      swap1\n      tag_25\n      jump\t// in\n    tag_24:\n      mload(0x40)\n      dup1\n      swap2\n      sub\n      swap1\n      0x00\n      create\n      dup1\n      iszero\n      dup1\n      iszero\n      tag_26\n      jumpi\n      returndatasize\n      0x00\n      dup1\n      returndatacopy\n      revert(0x00, returndatasize)\n    tag_26:\n      pop\n        /* \"campaign\":200:263  address newCampaign = address(new Campaign(minimum,msg.sender)) */\n      swap1\n      pop\n        /* \"campaign\":274:291  deployedCampaigns */\n      0x00\n        /* \"campaign\":297:308  newCampaign */\n      dup2\n        /* \"campaign\":274:309  deployedCampaigns.push(newCampaign) */\n      swap1\n      dup1\n      0x01\n      dup2\n      sload\n      add\n      dup1\n      dup3\n      sstore\n      dup1\n      swap2\n      pop\n      pop\n      0x01\n      swap1\n      sub\n      swap1\n      0x00\n      mstore\n      keccak256(0x00, 0x20)\n      add\n      0x00\n      swap1\n      swap2\n      swap1\n      swap2\n      swap1\n      swap2\n      0x0100\n      exp\n      dup2\n      sload\n      dup2\n      0xffffffffffffffffffffffffffffffffffffffff\n      mul\n      not\n      and\n      swap1\n      dup4\n      0xffffffffffffffffffffffffffffffffffffffff\n      and\n      mul\n      or\n      swap1\n      sstore\n      pop\n        /* \"campaign\":189:317  {... */\n      pop\n        /* \"campaign\":144:317  function createCampaign(uint minimum) public {... */\n      pop\n      jump\t// out\n        /* \"campaign\":326:441  function getAllDeployedCampaigns() public view returns(address[] memory){... */\n    tag_16:\n        /* \"campaign\":381:397  address[] memory */\n      0x60\n        /* \"campaign\":416:433  deployedCampaigns */\n      0x00\n        /* \"campaign\":409:433  return deployedCampaigns */\n      dup1\n      sload\n      dup1\n      0x20\n      mul\n      0x20\n      add\n      mload(0x40)\n      swap1\n      dup2\n      add\n      0x40\n      mstore\n      dup1\n      swap3\n      swap2\n      swap1\n      dup2\n      dup2\n      mstore\n      0x20\n      add\n      dup3\n      dup1\n      sload\n      dup1\n      iszero\n      tag_29\n      jumpi\n      0x20\n      mul\n      dup3\n      add\n      swap2\n      swap1\n      0x00\n      mstore\n      keccak256(0x00, 0x20)\n      swap1\n    tag_30:\n      dup2\n      0x00\n      swap1\n      sload\n      swap1\n      0x0100\n      exp\n      swap1\n      div\n      0xffffffffffffffffffffffffffffffffffffffff\n      and\n      0xffffffffffffffffffffffffffffffffffffffff\n      and\n      dup2\n      mstore\n      0x20\n      add\n      swap1\n      0x01\n      add\n      swap1\n      dup1\n      dup4\n      gt\n      tag_30\n      jumpi\n    tag_29:\n      pop\n      pop\n      pop\n      pop\n      pop\n      swap1\n      pop\n        /* \"campaign\":326:441  function getAllDeployedCampaigns() public view returns(address[] memory){... */\n      swap1\n      jump\t// out\n    tag_23:\n      dataSize(sub_0)\n      dup1\n      dataOffset(sub_0)\n      dup4\n      codecopy\n      add\n      swap1\n      jump\t// out\n        /* \"#utility.yul\":88:205   */\n    tag_32:\n        /* \"#utility.yul\":197:198   */\n      0x00\n        /* \"#utility.yul\":194:195   */\n      dup1\n        /* \"#utility.yul\":187:199   */\n      revert\n        /* \"#utility.yul\":334:411   */\n    tag_34:\n        /* \"#utility.yul\":371:378   */\n      0x00\n        /* \"#utility.yul\":400:405   */\n      dup2\n        /* \"#utility.yul\":389:405   */\n      swap1\n      pop\n        /* \"#utility.yul\":334:411   */\n      swap2\n      swap1\n      pop\n      jump\t// out\n        /* \"#utility.yul\":417:539   */\n    tag_35:\n        /* \"#utility.yul\":490:514   */\n      tag_54\n        /* \"#utility.yul\":508:513   */\n      dup2\n        /* \"#utility.yul\":490:514   */\n      tag_34\n      jump\t// in\n    tag_54:\n        /* \"#utility.yul\":483:488   */\n      dup2\n        /* \"#utility.yul\":480:515   */\n      eq\n        /* \"#utility.yul\":470:533   */\n      tag_55\n      jumpi\n        /* \"#utility.yul\":529:530   */\n      0x00\n        /* \"#utility.yul\":526:527   */\n      dup1\n        /* \"#utility.yul\":519:531   */\n      revert\n        /* \"#utility.yul\":470:533   */\n    tag_55:\n        /* \"#utility.yul\":417:539   */\n      pop\n      jump\t// out\n        /* \"#utility.yul\":545:684   */\n    tag_36:\n        /* \"#utility.yul\":591:596   */\n      0x00\n        /* \"#utility.yul\":629:635   */\n      dup2\n        /* \"#utility.yul\":616:636   */\n      calldataload\n        /* \"#utility.yul\":607:636   */\n      swap1\n      pop\n        /* \"#utility.yul\":645:678   */\n      tag_57\n        /* \"#utility.yul\":672:677   */\n      dup2\n        /* \"#utility.yul\":645:678   */\n      tag_35\n      jump\t// in\n    tag_57:\n        /* \"#utility.yul\":545:684   */\n      swap3\n      swap2\n      pop\n      pop\n      jump\t// out\n        /* \"#utility.yul\":690:1019   */\n    tag_8:\n        /* \"#utility.yul\":749:755   */\n      0x00\n        /* \"#utility.yul\":798:800   */\n      0x20\n        /* \"#utility.yul\":786:795   */\n      dup3\n        /* \"#utility.yul\":777:784   */\n      dup5\n        /* \"#utility.yul\":773:796   */\n      sub\n        /* \"#utility.yul\":769:801   */\n      slt\n        /* \"#utility.yul\":766:885   */\n      iszero\n      tag_59\n      jumpi\n        /* \"#utility.yul\":804:883   */\n      tag_60\n      tag_32\n      jump\t// in\n    tag_60:\n        /* \"#utility.yul\":766:885   */\n    tag_59:\n        /* \"#utility.yul\":924:925   */\n      0x00\n        /* \"#utility.yul\":949:1002   */\n      tag_61\n        /* \"#utility.yul\":994:1001   */\n      dup5\n        /* \"#utility.yul\":985:991   */\n      dup3\n        /* \"#utility.yul\":974:983   */\n      dup6\n        /* \"#utility.yul\":970:992   */\n      add\n        /* \"#utility.yul\":949:1002   */\n      tag_36\n      jump\t// in\n    tag_61:\n        /* \"#utility.yul\":939:1002   */\n      swap2\n      pop\n        /* \"#utility.yul\":895:1012   */\n      pop\n        /* \"#utility.yul\":690:1019   */\n      swap3\n      swap2\n      pop\n      pop\n      jump\t// out\n        /* \"#utility.yul\":1025:1151   */\n    tag_37:\n        /* \"#utility.yul\":1062:1069   */\n      0x00\n        /* \"#utility.yul\":1102:1144   */\n      0xffffffffffffffffffffffffffffffffffffffff\n        /* \"#utility.yul\":1095:1100   */\n      dup3\n        /* \"#utility.yul\":1091:1145   */\n      and\n        /* \"#utility.yul\":1080:1145   */\n      swap1\n      pop\n        /* \"#utility.yul\":1025:1151   */\n      swap2\n      swap1\n      pop\n      jump\t// out\n        /* \"#utility.yul\":1157:1253   */\n    tag_38:\n        /* \"#utility.yul\":1194:1201   */\n      0x00\n        /* \"#utility.yul\":1223:1247   */\n      tag_64\n        /* \"#utility.yul\":1241:1246   */\n      dup3\n        /* \"#utility.yul\":1223:1247   */\n      tag_37\n      jump\t// in\n    tag_64:\n        /* \"#utility.yul\":1212:1247   */\n      swap1\n      pop\n        /* \"#utility.yul\":1157:1253   */\n      swap2\n      swap1\n      pop\n      jump\t// out\n        /* \"#utility.yul\":1259:1377   */\n    tag_39:\n        /* \"#utility.yul\":1346:1370   */\n      tag_66\n        /* \"#utility.yul\":1364:1369   */\n      dup2\n        /* \"#utility.yul\":1346:1370   */\n      tag_38\n      jump\t// in\n    tag_66:\n        /* \"#utility.yul\":1341:1344   */\n      dup3\n        /* \"#utility.yul\":1334:1371   */\n      mstore\n        /* \"#utility.yul\":1259:1377   */\n      pop\n      pop\n      jump\t// out\n        /* \"#utility.yul\":1383:1605   */\n    tag_11:\n        /* \"#utility.yul\":1476:1480   */\n      0x00\n        /* \"#utility.yul\":1514:1516   */\n      0x20\n        /* \"#utility.yul\":1503:1512   */\n      dup3\n        /* \"#utility.yul\":1499:1517   */\n      add\n        /* \"#utility.yul\":1491:1517   */\n      swap1\n      pop\n        /* \"#utility.yul\":1527:1598   */\n      tag_68\n        /* \"#utility.yul\":1595:1596   */\n      0x00\n        /* \"#utility.yul\":1584:1593   */\n      dup4\n        /* \"#utility.yul\":1580:1597   */\n      add\n        /* \"#utility.yul\":1571:1577   */\n      dup5\n        /* \"#utility.yul\":1527:1598   */\n      tag_39\n      jump\t// in\n    tag_68:\n        /* \"#utility.yul\":1383:1605   */\n      swap3\n      swap2\n      pop\n      pop\n      jump\t// out\n        /* \"#utility.yul\":1611:1725   */\n    tag_40:\n        /* \"#utility.yul\":1678:1684   */\n      0x00\n        /* \"#utility.yul\":1712:1717   */\n      dup2\n        /* \"#utility.yul\":1706:1718   */\n      mload\n        /* \"#utility.yul\":1696:1718   */\n      swap1\n      pop\n        /* \"#utility.yul\":1611:1725   */\n      swap2\n      swap1\n      pop\n      jump\t// out\n        /* \"#utility.yul\":1731:1915   */\n    tag_41:\n        /* \"#utility.yul\":1830:1841   */\n      0x00\n        /* \"#utility.yul\":1864:1870   */\n      dup3\n        /* \"#utility.yul\":1859:1862   */\n      dup3\n        /* \"#utility.yul\":1852:1871   */\n      mstore\n        /* \"#utility.yul\":1904:1908   */\n      0x20\n        /* \"#utility.yul\":1899:1902   */\n      dup3\n        /* \"#utility.yul\":1895:1909   */\n      add\n        /* \"#utility.yul\":1880:1909   */\n      swap1\n      pop\n        /* \"#utility.yul\":1731:1915   */\n      swap3\n      swap2\n      pop\n      pop\n      jump\t// out\n        /* \"#utility.yul\":1921:2053   */\n    tag_42:\n        /* \"#utility.yul\":1988:1992   */\n      0x00\n        /* \"#utility.yul\":2011:2014   */\n      dup2\n        /* \"#utility.yul\":2003:2014   */\n      swap1\n      pop\n        /* \"#utility.yul\":2041:2045   */\n      0x20\n        /* \"#utility.yul\":2036:2039   */\n      dup3\n        /* \"#utility.yul\":2032:2046   */\n      add\n        /* \"#utility.yul\":2024:2046   */\n      swap1\n      pop\n        /* \"#utility.yul\":1921:2053   */\n      swap2\n      swap1\n      pop\n      jump\t// out\n        /* \"#utility.yul\":2059:2167   */\n    tag_43:\n        /* \"#utility.yul\":2136:2160   */\n      tag_73\n        /* \"#utility.yul\":2154:2159   */\n      dup2\n        /* \"#utility.yul\":2136:2160   */\n      tag_38\n      jump\t// in\n    tag_73:\n        /* \"#utility.yul\":2131:2134   */\n      dup3\n        /* \"#utility.yul\":2124:2161   */\n      mstore\n        /* \"#utility.yul\":2059:2167   */\n      pop\n      pop\n      jump\t// out\n        /* \"#utility.yul\":2173:2352   */\n    tag_44:\n        /* \"#utility.yul\":2242:2252   */\n      0x00\n        /* \"#utility.yul\":2263:2309   */\n      tag_75\n        /* \"#utility.yul\":2305:2308   */\n      dup4\n        /* \"#utility.yul\":2297:2303   */\n      dup4\n        /* \"#utility.yul\":2263:2309   */\n      tag_43\n      jump\t// in\n    tag_75:\n        /* \"#utility.yul\":2341:2345   */\n      0x20\n        /* \"#utility.yul\":2336:2339   */\n      dup4\n        /* \"#utility.yul\":2332:2346   */\n      add\n        /* \"#utility.yul\":2318:2346   */\n      swap1\n      pop\n        /* \"#utility.yul\":2173:2352   */\n      swap3\n      swap2\n      pop\n      pop\n      jump\t// out\n        /* \"#utility.yul\":2358:2471   */\n    tag_45:\n        /* \"#utility.yul\":2428:2432   */\n      0x00\n        /* \"#utility.yul\":2460:2464   */\n      0x20\n        /* \"#utility.yul\":2455:2458   */\n      dup3\n        /* \"#utility.yul\":2451:2465   */\n      add\n        /* \"#utility.yul\":2443:2465   */\n      swap1\n      pop\n        /* \"#utility.yul\":2358:2471   */\n      swap2\n      swap1\n      pop\n      jump\t// out\n        /* \"#utility.yul\":2507:3239   */\n    tag_46:\n        /* \"#utility.yul\":2626:2629   */\n      0x00\n        /* \"#utility.yul\":2655:2709   */\n      tag_78\n        /* \"#utility.yul\":2703:2708   */\n      dup3\n        /* \"#utility.yul\":2655:2709   */\n      tag_40\n      jump\t// in\n    tag_78:\n        /* \"#utility.yul\":2725:2811   */\n      tag_79\n        /* \"#utility.yul\":2804:2810   */\n      dup2\n        /* \"#utility.yul\":2799:2802   */\n      dup6\n        /* \"#utility.yul\":2725:2811   */\n      tag_41\n      jump\t// in\n    tag_79:\n        /* \"#utility.yul\":2718:2811   */\n      swap4\n      pop\n        /* \"#utility.yul\":2835:2891   */\n      tag_80\n        /* \"#utility.yul\":2885:2890   */\n      dup4\n        /* \"#utility.yul\":2835:2891   */\n      tag_42\n      jump\t// in\n    tag_80:\n        /* \"#utility.yul\":2914:2921   */\n      dup1\n        /* \"#utility.yul\":2945:2946   */\n      0x00\n        /* \"#utility.yul\":2930:3214   */\n    tag_81:\n        /* \"#utility.yul\":2955:2961   */\n      dup4\n        /* \"#utility.yul\":2952:2953   */\n      dup2\n        /* \"#utility.yul\":2949:2962   */\n      lt\n        /* \"#utility.yul\":2930:3214   */\n      iszero\n      tag_83\n      jumpi\n        /* \"#utility.yul\":3031:3037   */\n      dup2\n        /* \"#utility.yul\":3025:3038   */\n      mload\n        /* \"#utility.yul\":3058:3121   */\n      tag_84\n        /* \"#utility.yul\":3117:3120   */\n      dup9\n        /* \"#utility.yul\":3102:3115   */\n      dup3\n        /* \"#utility.yul\":3058:3121   */\n      tag_44\n      jump\t// in\n    tag_84:\n        /* \"#utility.yul\":3051:3121   */\n      swap8\n      pop\n        /* \"#utility.yul\":3144:3204   */\n      tag_85\n        /* \"#utility.yul\":3197:3203   */\n      dup4\n        /* \"#utility.yul\":3144:3204   */\n      tag_45\n      jump\t// in\n    tag_85:\n        /* \"#utility.yul\":3134:3204   */\n      swap3\n      pop\n        /* \"#utility.yul\":2990:3214   */\n      pop\n        /* \"#utility.yul\":2977:2978   */\n      0x01\n        /* \"#utility.yul\":2974:2975   */\n      dup2\n        /* \"#utility.yul\":2970:2979   */\n      add\n        /* \"#utility.yul\":2965:2979   */\n      swap1\n      pop\n        /* \"#utility.yul\":2930:3214   */\n      jump(tag_81)\n    tag_83:\n        /* \"#utility.yul\":2934:2948   */\n      pop\n        /* \"#utility.yul\":3230:3233   */\n      dup6\n        /* \"#utility.yul\":3223:3233   */\n      swap4\n      pop\n        /* \"#utility.yul\":2631:3239   */\n      pop\n      pop\n      pop\n        /* \"#utility.yul\":2507:3239   */\n      swap3\n      swap2\n      pop\n      pop\n      jump\t// out\n        /* \"#utility.yul\":3245:3618   */\n    tag_18:\n        /* \"#utility.yul\":3388:3392   */\n      0x00\n        /* \"#utility.yul\":3426:3428   */\n      0x20\n        /* \"#utility.yul\":3415:3424   */\n      dup3\n        /* \"#utility.yul\":3411:3429   */\n      add\n        /* \"#utility.yul\":3403:3429   */\n      swap1\n      pop\n        /* \"#utility.yul\":3475:3484   */\n      dup2\n        /* \"#utility.yul\":3469:3473   */\n      dup2\n        /* \"#utility.yul\":3465:3485   */\n      sub\n        /* \"#utility.yul\":3461:3462   */\n      0x00\n        /* \"#utility.yul\":3450:3459   */\n      dup4\n        /* \"#utility.yul\":3446:3463   */\n      add\n        /* \"#utility.yul\":3439:3486   */\n      mstore\n        /* \"#utility.yul\":3503:3611   */\n      tag_87\n        /* \"#utility.yul\":3606:3610   */\n      dup2\n        /* \"#utility.yul\":3597:3603   */\n      dup5\n        /* \"#utility.yul\":3503:3611   */\n      tag_46\n      jump\t// in\n    tag_87:\n        /* \"#utility.yul\":3495:3611   */\n      swap1\n      pop\n        /* \"#utility.yul\":3245:3618   */\n      swap3\n      swap2\n      pop\n      pop\n      jump\t// out\n        /* \"#utility.yul\":3624:3742   */\n    tag_47:\n        /* \"#utility.yul\":3711:3735   */\n      tag_89\n        /* \"#utility.yul\":3729:3734   */\n      dup2\n        /* \"#utility.yul\":3711:3735   */\n      tag_34\n      jump\t// in\n    tag_89:\n        /* \"#utility.yul\":3706:3709   */\n      dup3\n        /* \"#utility.yul\":3699:3736   */\n      mstore\n        /* \"#utility.yul\":3624:3742   */\n      pop\n      pop\n      jump\t// out\n        /* \"#utility.yul\":3748:4080   */\n    tag_25:\n        /* \"#utility.yul\":3869:3873   */\n      0x00\n        /* \"#utility.yul\":3907:3909   */\n      0x40\n        /* \"#utility.yul\":3896:3905   */\n      dup3\n        /* \"#utility.yul\":3892:3910   */\n      add\n        /* \"#utility.yul\":3884:3910   */\n      swap1\n      pop\n        /* \"#utility.yul\":3920:3991   */\n      tag_91\n        /* \"#utility.yul\":3988:3989   */\n      0x00\n        /* \"#utility.yul\":3977:3986   */\n      dup4\n        /* \"#utility.yul\":3973:3990   */\n      add\n        /* \"#utility.yul\":3964:3970   */\n      dup6\n        /* \"#utility.yul\":3920:3991   */\n      tag_47\n      jump\t// in\n    tag_91:\n        /* \"#utility.yul\":4001:4073   */\n      tag_92\n        /* \"#utility.yul\":4069:4071   */\n      0x20\n        /* \"#utility.yul\":4058:4067   */\n      dup4\n        /* \"#utility.yul\":4054:4072   */\n      add\n        /* \"#utility.yul\":4045:4051   */\n      dup5\n        /* \"#utility.yul\":4001:4073   */\n      tag_39\n      jump\t// in\n    tag_92:\n        /* \"#utility.yul\":3748:4080   */\n      swap4\n      swap3\n      pop\n      pop\n      pop\n      jump\t// out\n    stop\n\n    sub_0: assembly {\n            /* \"campaign\":450:2956  contract Campaign{... */\n          mstore(0x40, 0x80)\n            /* \"campaign\":988:1164  constructor(uint _minimumContribution, address sender){... */\n          callvalue\n          dup1\n          iszero\n          tag_1\n          jumpi\n          0x00\n          dup1\n          revert\n        tag_1:\n          pop\n          mload(0x40)\n          sub(codesize, bytecodeSize)\n          dup1\n          bytecodeSize\n          dup4\n          codecopy\n          dup2\n          dup2\n          add\n          0x40\n          mstore\n          dup2\n          add\n          swap1\n          tag_2\n          swap2\n          swap1\n          tag_3\n          jump\t// in\n        tag_2:\n            /* \"campaign\":1067:1073  sender */\n          dup1\n            /* \"campaign\":1049:1064  managersAddress */\n          0x00\n          dup1\n            /* \"campaign\":1049:1073  managersAddress = sender */\n          0x0100\n          exp\n          dup2\n          sload\n          dup2\n          0xffffffffffffffffffffffffffffffffffffffff\n          mul\n          not\n          and\n          swap1\n          dup4\n          0xffffffffffffffffffffffffffffffffffffffff\n          and\n          mul\n          or\n          swap1\n          sstore\n          pop\n            /* \"campaign\":1140:1160  _minimumContribution */\n          dup2\n            /* \"campaign\":1118:1137  minimumContribution */\n          0x01\n            /* \"campaign\":1118:1160  minimumContribution = _minimumContribution */\n          dup2\n          swap1\n          sstore\n          pop\n            /* \"campaign\":988:1164  constructor(uint _minimumContribution, address sender){... */\n          pop\n          pop\n            /* \"campaign\":450:2956  contract Campaign{... */\n          jump(tag_6)\n            /* \"#utility.yul\":88:205   */\n        tag_8:\n            /* \"#utility.yul\":197:198   */\n          0x00\n            /* \"#utility.yul\":194:195   */\n          dup1\n            /* \"#utility.yul\":187:199   */\n          revert\n            /* \"#utility.yul\":334:411   */\n        tag_10:\n            /* \"#utility.yul\":371:378   */\n          0x00\n            /* \"#utility.yul\":400:405   */\n          dup2\n            /* \"#utility.yul\":389:405   */\n          swap1\n          pop\n            /* \"#utility.yul\":334:411   */\n          swap2\n          swap1\n          pop\n          jump\t// out\n            /* \"#utility.yul\":417:539   */\n        tag_11:\n            /* \"#utility.yul\":490:514   */\n          tag_23\n            /* \"#utility.yul\":508:513   */\n          dup2\n            /* \"#utility.yul\":490:514   */\n          tag_10\n          jump\t// in\n        tag_23:\n            /* \"#utility.yul\":483:488   */\n          dup2\n            /* \"#utility.yul\":480:515   */\n          eq\n            /* \"#utility.yul\":470:533   */\n          tag_24\n          jumpi\n            /* \"#utility.yul\":529:530   */\n          0x00\n            /* \"#utility.yul\":526:527   */\n          dup1\n            /* \"#utility.yul\":519:531   */\n          revert\n            /* \"#utility.yul\":470:533   */\n        tag_24:\n            /* \"#utility.yul\":417:539   */\n          pop\n          jump\t// out\n            /* \"#utility.yul\":545:688   */\n        tag_12:\n            /* \"#utility.yul\":602:607   */\n          0x00\n            /* \"#utility.yul\":633:639   */\n          dup2\n            /* \"#utility.yul\":627:640   */\n          mload\n            /* \"#utility.yul\":618:640   */\n          swap1\n          pop\n            /* \"#utility.yul\":649:682   */\n          tag_26\n            /* \"#utility.yul\":676:681   */\n          dup2\n            /* \"#utility.yul\":649:682   */\n          tag_11\n          jump\t// in\n        tag_26:\n            /* \"#utility.yul\":545:688   */\n          swap3\n          swap2\n          pop\n          pop\n          jump\t// out\n            /* \"#utility.yul\":694:820   */\n        tag_13:\n            /* \"#utility.yul\":731:738   */\n          0x00\n            /* \"#utility.yul\":771:813   */\n          0xffffffffffffffffffffffffffffffffffffffff\n            /* \"#utility.yul\":764:769   */\n          dup3\n            /* \"#utility.yul\":760:814   */\n          and\n            /* \"#utility.yul\":749:814   */\n          swap1\n          pop\n            /* \"#utility.yul\":694:820   */\n          swap2\n          swap1\n          pop\n          jump\t// out\n            /* \"#utility.yul\":826:922   */\n        tag_14:\n            /* \"#utility.yul\":863:870   */\n          0x00\n            /* \"#utility.yul\":892:916   */\n          tag_29\n            /* \"#utility.yul\":910:915   */\n          dup3\n            /* \"#utility.yul\":892:916   */\n          tag_13\n          jump\t// in\n        tag_29:\n            /* \"#utility.yul\":881:916   */\n          swap1\n          pop\n            /* \"#utility.yul\":826:922   */\n          swap2\n          swap1\n          pop\n          jump\t// out\n            /* \"#utility.yul\":928:1050   */\n        tag_15:\n            /* \"#utility.yul\":1001:1025   */\n          tag_31\n            /* \"#utility.yul\":1019:1024   */\n          dup2\n            /* \"#utility.yul\":1001:1025   */\n          tag_14\n          jump\t// in\n        tag_31:\n            /* \"#utility.yul\":994:999   */\n          dup2\n            /* \"#utility.yul\":991:1026   */\n          eq\n            /* \"#utility.yul\":981:1044   */\n          tag_32\n          jumpi\n            /* \"#utility.yul\":1040:1041   */\n          0x00\n            /* \"#utility.yul\":1037:1038   */\n          dup1\n            /* \"#utility.yul\":1030:1042   */\n          revert\n            /* \"#utility.yul\":981:1044   */\n        tag_32:\n            /* \"#utility.yul\":928:1050   */\n          pop\n          jump\t// out\n            /* \"#utility.yul\":1056:1199   */\n        tag_16:\n            /* \"#utility.yul\":1113:1118   */\n          0x00\n            /* \"#utility.yul\":1144:1150   */\n          dup2\n            /* \"#utility.yul\":1138:1151   */\n          mload\n            /* \"#utility.yul\":1129:1151   */\n          swap1\n          pop\n            /* \"#utility.yul\":1160:1193   */\n          tag_34\n            /* \"#utility.yul\":1187:1192   */\n          dup2\n            /* \"#utility.yul\":1160:1193   */\n          tag_15\n          jump\t// in\n        tag_34:\n            /* \"#utility.yul\":1056:1199   */\n          swap3\n          swap2\n          pop\n          pop\n          jump\t// out\n            /* \"#utility.yul\":1205:1712   */\n        tag_3:\n            /* \"#utility.yul\":1284:1290   */\n          0x00\n            /* \"#utility.yul\":1292:1298   */\n          dup1\n            /* \"#utility.yul\":1341:1343   */\n          0x40\n            /* \"#utility.yul\":1329:1338   */\n          dup4\n            /* \"#utility.yul\":1320:1327   */\n          dup6\n            /* \"#utility.yul\":1316:1339   */\n          sub\n            /* \"#utility.yul\":1312:1344   */\n          slt\n            /* \"#utility.yul\":1309:1428   */\n          iszero\n          tag_36\n          jumpi\n            /* \"#utility.yul\":1347:1426   */\n          tag_37\n          tag_8\n          jump\t// in\n        tag_37:\n            /* \"#utility.yul\":1309:1428   */\n        tag_36:\n            /* \"#utility.yul\":1467:1468   */\n          0x00\n            /* \"#utility.yul\":1492:1556   */\n          tag_38\n            /* \"#utility.yul\":1548:1555   */\n          dup6\n            /* \"#utility.yul\":1539:1545   */\n          dup3\n            /* \"#utility.yul\":1528:1537   */\n          dup7\n            /* \"#utility.yul\":1524:1546   */\n          add\n            /* \"#utility.yul\":1492:1556   */\n          tag_12\n          jump\t// in\n        tag_38:\n            /* \"#utility.yul\":1482:1556   */\n          swap3\n          pop\n            /* \"#utility.yul\":1438:1566   */\n          pop\n            /* \"#utility.yul\":1605:1607   */\n          0x20\n            /* \"#utility.yul\":1631:1695   */\n          tag_39\n            /* \"#utility.yul\":1687:1694   */\n          dup6\n            /* \"#utility.yul\":1678:1684   */\n          dup3\n            /* \"#utility.yul\":1667:1676   */\n          dup7\n            /* \"#utility.yul\":1663:1685   */\n          add\n            /* \"#utility.yul\":1631:1695   */\n          tag_16\n          jump\t// in\n        tag_39:\n            /* \"#utility.yul\":1621:1695   */\n          swap2\n          pop\n            /* \"#utility.yul\":1576:1705   */\n          pop\n            /* \"#utility.yul\":1205:1712   */\n          swap3\n          pop\n          swap3\n          swap1\n          pop\n          jump\t// out\n            /* \"campaign\":450:2956  contract Campaign{... */\n        tag_6:\n          dataSize(sub_0)\n          dup1\n          dataOffset(sub_0)\n          0x00\n          codecopy\n          0x00\n          return\n        stop\n\n        sub_0: assembly {\n                /* \"campaign\":450:2956  contract Campaign{... */\n              mstore(0x40, 0x80)\n              jumpi(tag_1, lt(calldatasize, 0x04))\n              shr(0xe0, calldataload(0x00))\n              dup1\n              0x81d12c58\n              gt\n              tag_11\n              jumpi\n              dup1\n              0x81d12c58\n              eq\n              tag_6\n              jumpi\n              dup1\n              0x8a9cfd55\n              eq\n              tag_7\n              jumpi\n              dup1\n              0xd7bb99ba\n              eq\n              tag_8\n              jumpi\n              dup1\n              0xd7d1bbdb\n              eq\n              tag_9\n              jumpi\n              dup1\n              0xf829a0eb\n              eq\n              tag_10\n              jumpi\n              jump(tag_1)\n            tag_11:\n              dup1\n              0x03441006\n              eq\n              tag_2\n              jumpi\n              dup1\n              0x0a144391\n              eq\n              tag_3\n              jumpi\n              dup1\n              0x3410452a\n              eq\n              tag_4\n              jumpi\n              dup1\n              0x4051ddac\n              eq\n              tag_5\n              jumpi\n            tag_1:\n              0x00\n              dup1\n              revert\n                /* \"campaign\":2221:2682  function finalizeRequest(uint requestID) public payable{... */\n            tag_2:\n              tag_12\n              0x04\n              dup1\n              calldatasize\n              sub\n              dup2\n              add\n              swap1\n              tag_13\n              swap2\n              swap1\n              tag_14\n              jump\t// in\n            tag_13:\n              tag_15\n              jump\t// in\n            tag_12:\n              stop\n                /* \"campaign\":708:747  mapping(address=>bool) public approvers */\n            tag_3:\n              callvalue\n              dup1\n              iszero\n              tag_16\n              jumpi\n              0x00\n              dup1\n              revert\n            tag_16:\n              pop\n              tag_17\n              0x04\n              dup1\n              calldatasize\n              sub\n              dup2\n              add\n              swap1\n              tag_18\n              swap2\n              swap1\n              tag_19\n              jump\t// in\n            tag_18:\n              tag_20\n              jump\t// in\n            tag_17:\n              mload(0x40)\n              tag_21\n              swap2\n              swap1\n              tag_22\n              jump\t// in\n            tag_21:\n              mload(0x40)\n              dup1\n              swap2\n              sub\n              swap1\n              return\n                /* \"campaign\":2867:2951  function getRequestsCount() public view returns(uint){... */\n            tag_4:\n              callvalue\n              dup1\n              iszero\n              tag_23\n              jumpi\n              0x00\n              dup1\n              revert\n            tag_23:\n              pop\n              tag_24\n              tag_25\n              jump\t// in\n            tag_24:\n              mload(0x40)\n              tag_26\n              swap2\n              swap1\n              tag_27\n              jump\t// in\n            tag_26:\n              mload(0x40)\n              dup1\n              swap2\n              sub\n              swap1\n              return\n                /* \"campaign\":2688:2863  function getSummary() public view returns(uint,uint,uint,uint,address){... */\n            tag_5:\n              callvalue\n              dup1\n              iszero\n              tag_28\n              jumpi\n              0x00\n              dup1\n              revert\n            tag_28:\n              pop\n              tag_29\n              tag_30\n              jump\t// in\n            tag_29:\n              mload(0x40)\n              tag_31\n              swap6\n              swap5\n              swap4\n              swap3\n              swap2\n              swap1\n              tag_32\n              jump\t// in\n            tag_31:\n              mload(0x40)\n              dup1\n              swap2\n              sub\n              swap1\n              return\n                /* \"campaign\":811:849  mapping(uint=>Request) public requests */\n            tag_6:\n              callvalue\n              dup1\n              iszero\n              tag_33\n              jumpi\n              0x00\n              dup1\n              revert\n            tag_33:\n              pop\n              tag_34\n              0x04\n              dup1\n              calldatasize\n              sub\n              dup2\n              add\n              swap1\n              tag_35\n              swap2\n              swap1\n              tag_14\n              jump\t// in\n            tag_35:\n              tag_36\n              jump\t// in\n            tag_34:\n              mload(0x40)\n              tag_37\n              swap6\n              swap5\n              swap4\n              swap3\n              swap2\n              swap1\n              tag_38\n              jump\t// in\n            tag_37:\n              mload(0x40)\n              dup1\n              swap2\n              sub\n              swap1\n              return\n                /* \"campaign\":1419:1884  function createRequest(string memory description, uint value, address receipient) public restricted payable{... */\n            tag_7:\n              tag_39\n              0x04\n              dup1\n              calldatasize\n              sub\n              dup2\n              add\n              swap1\n              tag_40\n              swap2\n              swap1\n              tag_41\n              jump\t// in\n            tag_40:\n              tag_42\n              jump\t// in\n            tag_39:\n              stop\n                /* \"campaign\":1168:1415  function contribute() public payable{... */\n            tag_8:\n              tag_43\n              tag_44\n              jump\t// in\n            tag_43:\n              stop\n                /* \"campaign\":1890:2217  function approveRequest(uint requestID) public {... */\n            tag_9:\n              callvalue\n              dup1\n              iszero\n              tag_45\n              jumpi\n              0x00\n              dup1\n              revert\n            tag_45:\n              pop\n              tag_46\n              0x04\n              dup1\n              calldatasize\n              sub\n              dup2\n              add\n              swap1\n              tag_47\n              swap2\n              swap1\n              tag_14\n              jump\t// in\n            tag_47:\n              tag_48\n              jump\t// in\n            tag_46:\n              stop\n                /* \"campaign\":648:678  address public managersAddress */\n            tag_10:\n              callvalue\n              dup1\n              iszero\n              tag_49\n              jumpi\n              0x00\n              dup1\n              revert\n            tag_49:\n              pop\n              tag_50\n              tag_51\n              jump\t// in\n            tag_50:\n              mload(0x40)\n              tag_52\n              swap2\n              swap1\n              tag_53\n              jump\t// in\n            tag_52:\n              mload(0x40)\n              dup1\n              swap2\n              sub\n              swap1\n              return\n                /* \"campaign\":2221:2682  function finalizeRequest(uint requestID) public payable{... */\n            tag_15:\n                /* \"campaign\":2306:2321  managersAddress */\n              0x00\n              dup1\n              sload\n              swap1\n              0x0100\n              exp\n              swap1\n              div\n              0xffffffffffffffffffffffffffffffffffffffff\n              and\n                /* \"campaign\":2292:2321  msg.sender == managersAddress */\n              0xffffffffffffffffffffffffffffffffffffffff\n              and\n                /* \"campaign\":2292:2302  msg.sender */\n              caller\n                /* \"campaign\":2292:2321  msg.sender == managersAddress */\n              0xffffffffffffffffffffffffffffffffffffffff\n              and\n              eq\n                /* \"campaign\":2284:2322  require(msg.sender == managersAddress) */\n              tag_55\n              jumpi\n              0x00\n              dup1\n              revert\n            tag_55:\n                /* \"campaign\":2371:2376  false */\n              0x00\n                /* \"campaign\":2338:2376  requests[requestID].completed == false */\n              iszero\n              iszero\n                /* \"campaign\":2338:2346  requests */\n              0x04\n                /* \"campaign\":2338:2357  requests[requestID] */\n              0x00\n                /* \"campaign\":2347:2356  requestID */\n              dup4\n                /* \"campaign\":2338:2357  requests[requestID] */\n              dup2\n              mstore\n              0x20\n              add\n              swap1\n              dup2\n              mstore\n              0x20\n              add\n              0x00\n              keccak256\n                /* \"campaign\":2338:2367  requests[requestID].completed */\n              0x02\n              add\n              0x14\n              swap1\n              sload\n              swap1\n              0x0100\n              exp\n              swap1\n              div\n              0xff\n              and\n                /* \"campaign\":2338:2376  requests[requestID].completed == false */\n              iszero\n              iszero\n              eq\n                /* \"campaign\":2330:2419  require(requests[requestID].completed == false,\"This request has already been completed\") */\n              tag_56\n              jumpi\n              mload(0x40)\n              0x08c379a000000000000000000000000000000000000000000000000000000000\n              dup2\n              mstore\n              0x04\n              add\n              tag_57\n              swap1\n              tag_58\n              jump\t// in\n            tag_57:\n              mload(0x40)\n              dup1\n              swap2\n              sub\n              swap1\n              revert\n            tag_56:\n                /* \"campaign\":2489:2490  2 */\n              0x02\n                /* \"campaign\":2472:2486  approversCount */\n              sload(0x03)\n                /* \"campaign\":2472:2490  approversCount / 2 */\n              tag_59\n              swap2\n              swap1\n              tag_60\n              jump\t// in\n            tag_59:\n                /* \"campaign\":2435:2443  requests */\n              0x04\n                /* \"campaign\":2435:2454  requests[requestID] */\n              0x00\n                /* \"campaign\":2444:2453  requestID */\n              dup4\n                /* \"campaign\":2435:2454  requests[requestID] */\n              dup2\n              mstore\n              0x20\n              add\n              swap1\n              dup2\n              mstore\n              0x20\n              add\n              0x00\n              keccak256\n                /* \"campaign\":2435:2468  requests[requestID].approvalCount */\n              0x03\n              add\n              sload\n                /* \"campaign\":2435:2491  requests[requestID].approvalCount > (approversCount / 2) */\n              gt\n                /* \"campaign\":2427:2548  require(requests[requestID].approvalCount > (approversCount / 2),\"At least half of approvers should accept this request\") */\n              tag_61\n              jumpi\n              mload(0x40)\n              0x08c379a000000000000000000000000000000000000000000000000000000000\n              dup2\n              mstore\n              0x04\n              add\n              tag_62\n              swap1\n              tag_63\n              jump\t// in\n            tag_62:\n              mload(0x40)\n              dup1\n              swap2\n              sub\n              swap1\n              revert\n            tag_61:\n                /* \"campaign\":2588:2592  true */\n              0x01\n                /* \"campaign\":2556:2564  requests */\n              0x04\n                /* \"campaign\":2556:2575  requests[requestID] */\n              0x00\n                /* \"campaign\":2565:2574  requestID */\n              dup4\n                /* \"campaign\":2556:2575  requests[requestID] */\n              dup2\n              mstore\n              0x20\n              add\n              swap1\n              dup2\n              mstore\n              0x20\n              add\n              0x00\n              keccak256\n                /* \"campaign\":2556:2585  requests[requestID].completed */\n              0x02\n              add\n              0x14\n                /* \"campaign\":2556:2592  requests[requestID].completed = true */\n              0x0100\n              exp\n              dup2\n              sload\n              dup2\n              0xff\n              mul\n              not\n              and\n              swap1\n              dup4\n              iszero\n              iszero\n              mul\n              or\n              swap1\n              sstore\n              pop\n                /* \"campaign\":2609:2617  requests */\n              0x04\n                /* \"campaign\":2609:2628  requests[requestID] */\n              0x00\n                /* \"campaign\":2618:2627  requestID */\n              dup3\n                /* \"campaign\":2609:2628  requests[requestID] */\n              dup2\n              mstore\n              0x20\n              add\n              swap1\n              dup2\n              mstore\n              0x20\n              add\n              0x00\n              keccak256\n                /* \"campaign\":2609:2639  requests[requestID].receipient */\n              0x02\n              add\n              0x00\n              swap1\n              sload\n              swap1\n              0x0100\n              exp\n              swap1\n              div\n              0xffffffffffffffffffffffffffffffffffffffff\n              and\n                /* \"campaign\":2601:2649  payable(requests[requestID].receipient).transfer */\n              0xffffffffffffffffffffffffffffffffffffffff\n              and\n                /* \"campaign\":2601:2676  payable(requests[requestID].receipient).transfer(requests[requestID].value) */\n              0x08fc\n                /* \"campaign\":2650:2658  requests */\n              0x04\n                /* \"campaign\":2650:2669  requests[requestID] */\n              0x00\n                /* \"campaign\":2659:2668  requestID */\n              dup5\n                /* \"campaign\":2650:2669  requests[requestID] */\n              dup2\n              mstore\n              0x20\n              add\n              swap1\n              dup2\n              mstore\n              0x20\n              add\n              0x00\n              keccak256\n                /* \"campaign\":2650:2675  requests[requestID].value */\n              0x01\n              add\n              sload\n                /* \"campaign\":2601:2676  payable(requests[requestID].receipient).transfer(requests[requestID].value) */\n              swap1\n              dup2\n              iszero\n              mul\n              swap1\n              mload(0x40)\n              0x00\n              mload(0x40)\n              dup1\n              dup4\n              sub\n              dup2\n              dup6\n              dup9\n              dup9\n              call\n              swap4\n              pop\n              pop\n              pop\n              pop\n              iszero\n              dup1\n              iszero\n              tag_65\n              jumpi\n              returndatasize\n              0x00\n              dup1\n              returndatacopy\n              revert(0x00, returndatasize)\n            tag_65:\n              pop\n                /* \"campaign\":2221:2682  function finalizeRequest(uint requestID) public payable{... */\n              pop\n              jump\t// out\n                /* \"campaign\":708:747  mapping(address=>bool) public approvers */\n            tag_20:\n              mstore(0x20, 0x02)\n              dup1\n              0x00\n              mstore\n              keccak256(0x00, 0x40)\n              0x00\n              swap2\n              pop\n              sload\n              swap1\n              0x0100\n              exp\n              swap1\n              div\n              0xff\n              and\n              dup2\n              jump\t// out\n                /* \"campaign\":2867:2951  function getRequestsCount() public view returns(uint){... */\n            tag_25:\n                /* \"campaign\":2915:2919  uint */\n              0x00\n                /* \"campaign\":2934:2947  numOfRequests */\n              sload(0x05)\n                /* \"campaign\":2927:2947  return numOfRequests */\n              swap1\n              pop\n                /* \"campaign\":2867:2951  function getRequestsCount() public view returns(uint){... */\n              swap1\n              jump\t// out\n                /* \"campaign\":2688:2863  function getSummary() public view returns(uint,uint,uint,uint,address){... */\n            tag_30:\n                /* \"campaign\":2730:2734  uint */\n              0x00\n                /* \"campaign\":2735:2739  uint */\n              dup1\n                /* \"campaign\":2740:2744  uint */\n              0x00\n                /* \"campaign\":2745:2749  uint */\n              dup1\n                /* \"campaign\":2750:2757  address */\n              0x00\n                /* \"campaign\":2772:2791  minimumContribution */\n              sload(0x01)\n                /* \"campaign\":2792:2813  address(this).balance */\n              selfbalance\n                /* \"campaign\":2814:2827  numOfRequests */\n              sload(0x05)\n                /* \"campaign\":2828:2842  approversCount */\n              sload(0x03)\n                /* \"campaign\":2843:2858  managersAddress */\n              0x00\n              dup1\n              sload\n              swap1\n              0x0100\n              exp\n              swap1\n              div\n              0xffffffffffffffffffffffffffffffffffffffff\n              and\n                /* \"campaign\":2765:2859  return(minimumContribution,address(this).balance,numOfRequests,approversCount,managersAddress) */\n              swap5\n              pop\n              swap5\n              pop\n              swap5\n              pop\n              swap5\n              pop\n              swap5\n              pop\n                /* \"campaign\":2688:2863  function getSummary() public view returns(uint,uint,uint,uint,address){... */\n              swap1\n              swap2\n              swap3\n              swap4\n              swap5\n              jump\t// out\n                /* \"campaign\":811:849  mapping(uint=>Request) public requests */\n            tag_36:\n              mstore(0x20, 0x04)\n              dup1\n              0x00\n              mstore\n              keccak256(0x00, 0x40)\n              0x00\n              swap2\n              pop\n              swap1\n              pop\n              dup1\n              0x00\n              add\n              dup1\n              sload\n              tag_68\n              swap1\n              tag_69\n              jump\t// in\n            tag_68:\n              dup1\n              0x1f\n              add\n              0x20\n              dup1\n              swap2\n              div\n              mul\n              0x20\n              add\n              mload(0x40)\n              swap1\n              dup2\n              add\n              0x40\n              mstore\n              dup1\n              swap3\n              swap2\n              swap1\n              dup2\n              dup2\n              mstore\n              0x20\n              add\n              dup3\n              dup1\n              sload\n              tag_70\n              swap1\n              tag_69\n              jump\t// in\n            tag_70:\n              dup1\n              iszero\n              tag_71\n              jumpi\n              dup1\n              0x1f\n              lt\n              tag_72\n              jumpi\n              0x0100\n              dup1\n              dup4\n              sload\n              div\n              mul\n              dup4\n              mstore\n              swap2\n              0x20\n              add\n              swap2\n              jump(tag_71)\n            tag_72:\n              dup3\n              add\n              swap2\n              swap1\n              0x00\n              mstore\n              keccak256(0x00, 0x20)\n              swap1\n            tag_73:\n              dup2\n              sload\n              dup2\n              mstore\n              swap1\n              0x01\n              add\n              swap1\n              0x20\n              add\n              dup1\n              dup4\n              gt\n              tag_73\n              jumpi\n              dup3\n              swap1\n              sub\n              0x1f\n              and\n              dup3\n              add\n              swap2\n            tag_71:\n              pop\n              pop\n              pop\n              pop\n              pop\n              swap1\n              dup1\n              0x01\n              add\n              sload\n              swap1\n              dup1\n              0x02\n              add\n              0x00\n              swap1\n              sload\n              swap1\n              0x0100\n              exp\n              swap1\n              div\n              0xffffffffffffffffffffffffffffffffffffffff\n              and\n              swap1\n              dup1\n              0x02\n              add\n              0x14\n              swap1\n              sload\n              swap1\n              0x0100\n              exp\n              swap1\n              div\n              0xff\n              and\n              swap1\n              dup1\n              0x03\n              add\n              sload\n              swap1\n              pop\n              dup6\n              jump\t// out\n                /* \"campaign\":1419:1884  function createRequest(string memory description, uint value, address receipient) public restricted payable{... */\n            tag_42:\n                /* \"campaign\":956:971  managersAddress */\n              0x00\n              dup1\n              sload\n              swap1\n              0x0100\n              exp\n              swap1\n              div\n              0xffffffffffffffffffffffffffffffffffffffff\n              and\n                /* \"campaign\":942:971  msg.sender == managersAddress */\n              0xffffffffffffffffffffffffffffffffffffffff\n              and\n                /* \"campaign\":942:952  msg.sender */\n              caller\n                /* \"campaign\":942:971  msg.sender == managersAddress */\n              0xffffffffffffffffffffffffffffffffffffffff\n              and\n              eq\n                /* \"campaign\":934:972  require(msg.sender == managersAddress) */\n              tag_75\n              jumpi\n              0x00\n              dup1\n              revert\n            tag_75:\n                /* \"campaign\":1533:1559  Request storage newRequest */\n              0x00\n                /* \"campaign\":1562:1570  requests */\n              0x04\n                /* \"campaign\":1562:1587  requests[numOfRequests++] */\n              0x00\n                /* \"campaign\":1571:1584  numOfRequests */\n              0x05\n              0x00\n                /* \"campaign\":1571:1586  numOfRequests++ */\n              dup2\n              sload\n              dup1\n              swap3\n              swap2\n              swap1\n              tag_77\n              swap1\n              tag_78\n              jump\t// in\n            tag_77:\n              swap2\n              swap1\n              pop\n              sstore\n                /* \"campaign\":1562:1587  requests[numOfRequests++] */\n              dup2\n              mstore\n              0x20\n              add\n              swap1\n              dup2\n              mstore\n              0x20\n              add\n              0x00\n              keccak256\n                /* \"campaign\":1533:1587  Request storage newRequest = requests[numOfRequests++] */\n              swap1\n              pop\n                /* \"campaign\":1634:1645  description */\n              dup4\n                /* \"campaign\":1609:1619  newRequest */\n              dup2\n                /* \"campaign\":1609:1631  newRequest.description */\n              0x00\n              add\n                /* \"campaign\":1609:1645  newRequest.description = description */\n              swap1\n              dup1\n              mload\n              swap1\n              0x20\n              add\n              swap1\n              tag_79\n              swap3\n              swap2\n              swap1\n              tag_80\n              jump\t// in\n            tag_79:\n              pop\n                /* \"campaign\":1717:1722  value */\n              dup3\n                /* \"campaign\":1698:1708  newRequest */\n              dup2\n                /* \"campaign\":1698:1714  newRequest.value */\n              0x01\n              add\n                /* \"campaign\":1698:1722  newRequest.value = value */\n              dup2\n              swap1\n              sstore\n              pop\n                /* \"campaign\":1753:1763  receipient */\n              dup2\n                /* \"campaign\":1729:1739  newRequest */\n              dup2\n                /* \"campaign\":1729:1750  newRequest.receipient */\n              0x02\n              add\n              0x00\n                /* \"campaign\":1729:1763  newRequest.receipient = receipient */\n              0x0100\n              exp\n              dup2\n              sload\n              dup2\n              0xffffffffffffffffffffffffffffffffffffffff\n              mul\n              not\n              and\n              swap1\n              dup4\n              0xffffffffffffffffffffffffffffffffffffffff\n              and\n              mul\n              or\n              swap1\n              sstore\n              pop\n                /* \"campaign\":1793:1798  false */\n              0x00\n                /* \"campaign\":1770:1780  newRequest */\n              dup2\n                /* \"campaign\":1770:1790  newRequest.completed */\n              0x02\n              add\n              0x14\n                /* \"campaign\":1770:1798  newRequest.completed = false */\n              0x0100\n              exp\n              dup2\n              sload\n              dup2\n              0xff\n              mul\n              not\n              and\n              swap1\n              dup4\n              iszero\n              iszero\n              mul\n              or\n              swap1\n              sstore\n              pop\n                /* \"campaign\":1832:1833  0 */\n              0x00\n                /* \"campaign\":1805:1815  newRequest */\n              dup2\n                /* \"campaign\":1805:1829  newRequest.approvalCount */\n              0x03\n              add\n                /* \"campaign\":1805:1833  newRequest.approvalCount = 0 */\n              dup2\n              swap1\n              sstore\n              pop\n                /* \"campaign\":1875:1880  false */\n              0x00\n                /* \"campaign\":1840:1850  newRequest */\n              dup2\n                /* \"campaign\":1840:1860  newRequest.approvals */\n              0x04\n              add\n                /* \"campaign\":1840:1872  newRequest.approvals[msg.sender] */\n              0x00\n                /* \"campaign\":1861:1871  msg.sender */\n              caller\n                /* \"campaign\":1840:1872  newRequest.approvals[msg.sender] */\n              0xffffffffffffffffffffffffffffffffffffffff\n              and\n              0xffffffffffffffffffffffffffffffffffffffff\n              and\n              dup2\n              mstore\n              0x20\n              add\n              swap1\n              dup2\n              mstore\n              0x20\n              add\n              0x00\n              keccak256\n              0x00\n                /* \"campaign\":1840:1880  newRequest.approvals[msg.sender] = false */\n              0x0100\n              exp\n              dup2\n              sload\n              dup2\n              0xff\n              mul\n              not\n              and\n              swap1\n              dup4\n              iszero\n              iszero\n              mul\n              or\n              swap1\n              sstore\n              pop\n                /* \"campaign\":1526:1884  {... */\n              pop\n                /* \"campaign\":1419:1884  function createRequest(string memory description, uint value, address receipient) public restricted payable{... */\n              pop\n              pop\n              pop\n              jump\t// out\n                /* \"campaign\":1168:1415  function contribute() public payable{... */\n            tag_44:\n                /* \"campaign\":1231:1250  minimumContribution */\n              sload(0x01)\n                /* \"campaign\":1219:1228  msg.value */\n              callvalue\n                /* \"campaign\":1219:1250  msg.value > minimumContribution */\n              gt\n                /* \"campaign\":1211:1289  require(msg.value > minimumContribution,\"Please top up to become an approver\") */\n              tag_82\n              jumpi\n              mload(0x40)\n              0x08c379a000000000000000000000000000000000000000000000000000000000\n              dup2\n              mstore\n              0x04\n              add\n              tag_83\n              swap1\n              tag_84\n              jump\t// in\n            tag_83:\n              mload(0x40)\n              dup1\n              swap2\n              sub\n              swap1\n              revert\n            tag_82:\n                /* \"campaign\":1329:1334  false */\n              0x00\n                /* \"campaign\":1304:1334  approvers[msg.sender] == false */\n              iszero\n              iszero\n                /* \"campaign\":1304:1313  approvers */\n              0x02\n                /* \"campaign\":1304:1325  approvers[msg.sender] */\n              0x00\n                /* \"campaign\":1314:1324  msg.sender */\n              caller\n                /* \"campaign\":1304:1325  approvers[msg.sender] */\n              0xffffffffffffffffffffffffffffffffffffffff\n              and\n              0xffffffffffffffffffffffffffffffffffffffff\n              and\n              dup2\n              mstore\n              0x20\n              add\n              swap1\n              dup2\n              mstore\n              0x20\n              add\n              0x00\n              keccak256\n              0x00\n              swap1\n              sload\n              swap1\n              0x0100\n              exp\n              swap1\n              div\n              0xff\n              and\n                /* \"campaign\":1304:1334  approvers[msg.sender] == false */\n              iszero\n              iszero\n              eq\n                /* \"campaign\":1296:1351  require(approvers[msg.sender] == false,\"Already voted\") */\n              tag_85\n              jumpi\n              mload(0x40)\n              0x08c379a000000000000000000000000000000000000000000000000000000000\n              dup2\n              mstore\n              0x04\n              add\n              tag_86\n              swap1\n              tag_87\n              jump\t// in\n            tag_86:\n              mload(0x40)\n              dup1\n              swap2\n              sub\n              swap1\n              revert\n            tag_85:\n                /* \"campaign\":1382:1386  true */\n              0x01\n                /* \"campaign\":1358:1367  approvers */\n              0x02\n                /* \"campaign\":1358:1379  approvers[msg.sender] */\n              0x00\n                /* \"campaign\":1368:1378  msg.sender */\n              caller\n                /* \"campaign\":1358:1379  approvers[msg.sender] */\n              0xffffffffffffffffffffffffffffffffffffffff\n              and\n              0xffffffffffffffffffffffffffffffffffffffff\n              and\n              dup2\n              mstore\n              0x20\n              add\n              swap1\n              dup2\n              mstore\n              0x20\n              add\n              0x00\n              keccak256\n              0x00\n                /* \"campaign\":1358:1386  approvers[msg.sender] = true */\n              0x0100\n              exp\n              dup2\n              sload\n              dup2\n              0xff\n              mul\n              not\n              and\n              swap1\n              dup4\n              iszero\n              iszero\n              mul\n              or\n              swap1\n              sstore\n              pop\n                /* \"campaign\":1395:1409  approversCount */\n              0x03\n              0x00\n                /* \"campaign\":1395:1411  approversCount++ */\n              dup2\n              sload\n              dup1\n              swap3\n              swap2\n              swap1\n              tag_88\n              swap1\n              tag_78\n              jump\t// in\n            tag_88:\n              swap2\n              swap1\n              pop\n              sstore\n              pop\n                /* \"campaign\":1168:1415  function contribute() public payable{... */\n              jump\t// out\n                /* \"campaign\":1890:2217  function approveRequest(uint requestID) public {... */\n            tag_48:\n                /* \"campaign\":1952:1961  approvers */\n              0x02\n                /* \"campaign\":1952:1973  approvers[msg.sender] */\n              0x00\n                /* \"campaign\":1962:1972  msg.sender */\n              caller\n                /* \"campaign\":1952:1973  approvers[msg.sender] */\n              0xffffffffffffffffffffffffffffffffffffffff\n              and\n              0xffffffffffffffffffffffffffffffffffffffff\n              and\n              dup2\n              mstore\n              0x20\n              add\n              swap1\n              dup2\n              mstore\n              0x20\n              add\n              0x00\n              keccak256\n              0x00\n              swap1\n              sload\n              swap1\n              0x0100\n              exp\n              swap1\n              div\n              0xff\n              and\n                /* \"campaign\":1944:2007  require(approvers[msg.sender],\"Sorry, you are not an approver\") */\n              tag_90\n              jumpi\n              mload(0x40)\n              0x08c379a000000000000000000000000000000000000000000000000000000000\n              dup2\n              mstore\n              0x04\n              add\n              tag_91\n              swap1\n              tag_92\n              jump\t// in\n            tag_91:\n              mload(0x40)\n              dup1\n              swap2\n              sub\n              swap1\n              revert\n            tag_90:\n                /* \"campaign\":2067:2072  false */\n              0x00\n                /* \"campaign\":2022:2072  requests[requestID].approvals[msg.sender] == false */\n              iszero\n              iszero\n                /* \"campaign\":2022:2030  requests */\n              0x04\n                /* \"campaign\":2022:2041  requests[requestID] */\n              0x00\n                /* \"campaign\":2031:2040  requestID */\n              dup4\n                /* \"campaign\":2022:2041  requests[requestID] */\n              dup2\n              mstore\n              0x20\n              add\n              swap1\n              dup2\n              mstore\n              0x20\n              add\n              0x00\n              keccak256\n                /* \"campaign\":2022:2051  requests[requestID].approvals */\n              0x04\n              add\n                /* \"campaign\":2022:2063  requests[requestID].approvals[msg.sender] */\n              0x00\n                /* \"campaign\":2052:2062  msg.sender */\n              caller\n                /* \"campaign\":2022:2063  requests[requestID].approvals[msg.sender] */\n              0xffffffffffffffffffffffffffffffffffffffff\n              and\n              0xffffffffffffffffffffffffffffffffffffffff\n              and\n              dup2\n              mstore\n              0x20\n              add\n              swap1\n              dup2\n              mstore\n              0x20\n              add\n              0x00\n              keccak256\n              0x00\n              swap1\n              sload\n              swap1\n              0x0100\n              exp\n              swap1\n              div\n              0xff\n              and\n                /* \"campaign\":2022:2072  requests[requestID].approvals[msg.sender] == false */\n              iszero\n              iszero\n              eq\n                /* \"campaign\":2014:2114  require(requests[requestID].approvals[msg.sender] == false,\"You have already approved this request\") */\n              tag_93\n              jumpi\n              mload(0x40)\n              0x08c379a000000000000000000000000000000000000000000000000000000000\n              dup2\n              mstore\n              0x04\n              add\n              tag_94\n              swap1\n              tag_95\n              jump\t// in\n            tag_94:\n              mload(0x40)\n              dup1\n              swap2\n              sub\n              swap1\n              revert\n            tag_93:\n                /* \"campaign\":2167:2171  true */\n              0x01\n                /* \"campaign\":2123:2131  requests */\n              0x04\n                /* \"campaign\":2123:2142  requests[requestID] */\n              0x00\n                /* \"campaign\":2132:2141  requestID */\n              dup4\n                /* \"campaign\":2123:2142  requests[requestID] */\n              dup2\n              mstore\n              0x20\n              add\n              swap1\n              dup2\n              mstore\n              0x20\n              add\n              0x00\n              keccak256\n                /* \"campaign\":2123:2152  requests[requestID].approvals */\n              0x04\n              add\n                /* \"campaign\":2123:2164  requests[requestID].approvals[msg.sender] */\n              0x00\n                /* \"campaign\":2153:2163  msg.sender */\n              caller\n                /* \"campaign\":2123:2164  requests[requestID].approvals[msg.sender] */\n              0xffffffffffffffffffffffffffffffffffffffff\n              and\n              0xffffffffffffffffffffffffffffffffffffffff\n              and\n              dup2\n              mstore\n              0x20\n              add\n              swap1\n              dup2\n              mstore\n              0x20\n              add\n              0x00\n              keccak256\n              0x00\n                /* \"campaign\":2123:2171  requests[requestID].approvals[msg.sender] = true */\n              0x0100\n              exp\n              dup2\n              sload\n              dup2\n              0xff\n              mul\n              not\n              and\n              swap1\n              dup4\n              iszero\n              iszero\n              mul\n              or\n              swap1\n              sstore\n              pop\n                /* \"campaign\":2178:2186  requests */\n              0x04\n                /* \"campaign\":2178:2197  requests[requestID] */\n              0x00\n                /* \"campaign\":2187:2196  requestID */\n              dup3\n                /* \"campaign\":2178:2197  requests[requestID] */\n              dup2\n              mstore\n              0x20\n              add\n              swap1\n              dup2\n              mstore\n              0x20\n              add\n              0x00\n              keccak256\n                /* \"campaign\":2178:2211  requests[requestID].approvalCount */\n              0x03\n              add\n              0x00\n                /* \"campaign\":2178:2213  requests[requestID].approvalCount++ */\n              dup2\n              sload\n              dup1\n              swap3\n              swap2\n              swap1\n              tag_96\n              swap1\n              tag_78\n              jump\t// in\n            tag_96:\n              swap2\n              swap1\n              pop\n              sstore\n              pop\n                /* \"campaign\":1890:2217  function approveRequest(uint requestID) public {... */\n              pop\n              jump\t// out\n                /* \"campaign\":648:678  address public managersAddress */\n            tag_51:\n              0x00\n              dup1\n              sload\n              swap1\n              0x0100\n              exp\n              swap1\n              div\n              0xffffffffffffffffffffffffffffffffffffffff\n              and\n              dup2\n              jump\t// out\n            tag_80:\n              dup3\n              dup1\n              sload\n              tag_97\n              swap1\n              tag_69\n              jump\t// in\n            tag_97:\n              swap1\n              0x00\n              mstore\n              keccak256(0x00, 0x20)\n              swap1\n              0x1f\n              add\n              0x20\n              swap1\n              div\n              dup2\n              add\n              swap3\n              dup3\n              tag_99\n              jumpi\n              0x00\n              dup6\n              sstore\n              jump(tag_98)\n            tag_99:\n              dup3\n              0x1f\n              lt\n              tag_100\n              jumpi\n              dup1\n              mload\n              not(0xff)\n              and\n              dup4\n              dup1\n              add\n              or\n              dup6\n              sstore\n              jump(tag_98)\n            tag_100:\n              dup3\n              dup1\n              add\n              0x01\n              add\n              dup6\n              sstore\n              dup3\n              iszero\n              tag_98\n              jumpi\n              swap2\n              dup3\n              add\n            tag_101:\n              dup3\n              dup2\n              gt\n              iszero\n              tag_102\n              jumpi\n              dup3\n              mload\n              dup3\n              sstore\n              swap2\n              0x20\n              add\n              swap2\n              swap1\n              0x01\n              add\n              swap1\n              jump(tag_101)\n            tag_102:\n            tag_98:\n              pop\n              swap1\n              pop\n              tag_103\n              swap2\n              swap1\n              tag_104\n              jump\t// in\n            tag_103:\n              pop\n              swap1\n              jump\t// out\n            tag_104:\n            tag_105:\n              dup1\n              dup3\n              gt\n              iszero\n              tag_106\n              jumpi\n              0x00\n              dup2\n              0x00\n              swap1\n              sstore\n              pop\n              0x01\n              add\n              jump(tag_105)\n            tag_106:\n              pop\n              swap1\n              jump\t// out\n                /* \"#utility.yul\":7:82   */\n            tag_107:\n                /* \"#utility.yul\":40:46   */\n              0x00\n                /* \"#utility.yul\":73:75   */\n              0x40\n                /* \"#utility.yul\":67:76   */\n              mload\n                /* \"#utility.yul\":57:76   */\n              swap1\n              pop\n                /* \"#utility.yul\":7:82   */\n              swap1\n              jump\t// out\n                /* \"#utility.yul\":88:205   */\n            tag_108:\n                /* \"#utility.yul\":197:198   */\n              0x00\n                /* \"#utility.yul\":194:195   */\n              dup1\n                /* \"#utility.yul\":187:199   */\n              revert\n                /* \"#utility.yul\":211:328   */\n            tag_109:\n                /* \"#utility.yul\":320:321   */\n              0x00\n                /* \"#utility.yul\":317:318   */\n              dup1\n                /* \"#utility.yul\":310:322   */\n              revert\n                /* \"#utility.yul\":334:411   */\n            tag_110:\n                /* \"#utility.yul\":371:378   */\n              0x00\n                /* \"#utility.yul\":400:405   */\n              dup2\n                /* \"#utility.yul\":389:405   */\n              swap1\n              pop\n                /* \"#utility.yul\":334:411   */\n              swap2\n              swap1\n              pop\n              jump\t// out\n                /* \"#utility.yul\":417:539   */\n            tag_111:\n                /* \"#utility.yul\":490:514   */\n              tag_156\n                /* \"#utility.yul\":508:513   */\n              dup2\n                /* \"#utility.yul\":490:514   */\n              tag_110\n              jump\t// in\n            tag_156:\n                /* \"#utility.yul\":483:488   */\n              dup2\n                /* \"#utility.yul\":480:515   */\n              eq\n                /* \"#utility.yul\":470:533   */\n              tag_157\n              jumpi\n                /* \"#utility.yul\":529:530   */\n              0x00\n                /* \"#utility.yul\":526:527   */\n              dup1\n                /* \"#utility.yul\":519:531   */\n              revert\n                /* \"#utility.yul\":470:533   */\n            tag_157:\n                /* \"#utility.yul\":417:539   */\n              pop\n              jump\t// out\n                /* \"#utility.yul\":545:684   */\n            tag_112:\n                /* \"#utility.yul\":591:596   */\n              0x00\n                /* \"#utility.yul\":629:635   */\n              dup2\n                /* \"#utility.yul\":616:636   */\n              calldataload\n                /* \"#utility.yul\":607:636   */\n              swap1\n              pop\n                /* \"#utility.yul\":645:678   */\n              tag_159\n                /* \"#utility.yul\":672:677   */\n              dup2\n                /* \"#utility.yul\":645:678   */\n              tag_111\n              jump\t// in\n            tag_159:\n                /* \"#utility.yul\":545:684   */\n              swap3\n              swap2\n              pop\n              pop\n              jump\t// out\n                /* \"#utility.yul\":690:1019   */\n            tag_14:\n                /* \"#utility.yul\":749:755   */\n              0x00\n                /* \"#utility.yul\":798:800   */\n              0x20\n                /* \"#utility.yul\":786:795   */\n              dup3\n                /* \"#utility.yul\":777:784   */\n              dup5\n                /* \"#utility.yul\":773:796   */\n              sub\n                /* \"#utility.yul\":769:801   */\n              slt\n                /* \"#utility.yul\":766:885   */\n              iszero\n              tag_161\n              jumpi\n                /* \"#utility.yul\":804:883   */\n              tag_162\n              tag_108\n              jump\t// in\n            tag_162:\n                /* \"#utility.yul\":766:885   */\n            tag_161:\n                /* \"#utility.yul\":924:925   */\n              0x00\n                /* \"#utility.yul\":949:1002   */\n              tag_163\n                /* \"#utility.yul\":994:1001   */\n              dup5\n                /* \"#utility.yul\":985:991   */\n              dup3\n                /* \"#utility.yul\":974:983   */\n              dup6\n                /* \"#utility.yul\":970:992   */\n              add\n                /* \"#utility.yul\":949:1002   */\n              tag_112\n              jump\t// in\n            tag_163:\n                /* \"#utility.yul\":939:1002   */\n              swap2\n              pop\n                /* \"#utility.yul\":895:1012   */\n              pop\n                /* \"#utility.yul\":690:1019   */\n              swap3\n              swap2\n              pop\n              pop\n              jump\t// out\n                /* \"#utility.yul\":1025:1151   */\n            tag_113:\n                /* \"#utility.yul\":1062:1069   */\n              0x00\n                /* \"#utility.yul\":1102:1144   */\n              0xffffffffffffffffffffffffffffffffffffffff\n                /* \"#utility.yul\":1095:1100   */\n              dup3\n                /* \"#utility.yul\":1091:1145   */\n              and\n                /* \"#utility.yul\":1080:1145   */\n              swap1\n              pop\n                /* \"#utility.yul\":1025:1151   */\n              swap2\n              swap1\n              pop\n              jump\t// out\n                /* \"#utility.yul\":1157:1253   */\n            tag_114:\n                /* \"#utility.yul\":1194:1201   */\n              0x00\n                /* \"#utility.yul\":1223:1247   */\n              tag_166\n                /* \"#utility.yul\":1241:1246   */\n              dup3\n                /* \"#utility.yul\":1223:1247   */\n              tag_113\n              jump\t// in\n            tag_166:\n                /* \"#utility.yul\":1212:1247   */\n              swap1\n              pop\n                /* \"#utility.yul\":1157:1253   */\n              swap2\n              swap1\n              pop\n              jump\t// out\n                /* \"#utility.yul\":1259:1381   */\n            tag_115:\n                /* \"#utility.yul\":1332:1356   */\n              tag_168\n                /* \"#utility.yul\":1350:1355   */\n              dup2\n                /* \"#utility.yul\":1332:1356   */\n              tag_114\n              jump\t// in\n            tag_168:\n                /* \"#utility.yul\":1325:1330   */\n              dup2\n                /* \"#utility.yul\":1322:1357   */\n              eq\n                /* \"#utility.yul\":1312:1375   */\n              tag_169\n              jumpi\n                /* \"#utility.yul\":1371:1372   */\n              0x00\n                /* \"#utility.yul\":1368:1369   */\n              dup1\n                /* \"#utility.yul\":1361:1373   */\n              revert\n                /* \"#utility.yul\":1312:1375   */\n            tag_169:\n                /* \"#utility.yul\":1259:1381   */\n              pop\n              jump\t// out\n                /* \"#utility.yul\":1387:1526   */\n            tag_116:\n                /* \"#utility.yul\":1433:1438   */\n              0x00\n                /* \"#utility.yul\":1471:1477   */\n              dup2\n                /* \"#utility.yul\":1458:1478   */\n              calldataload\n                /* \"#utility.yul\":1449:1478   */\n              swap1\n              pop\n                /* \"#utility.yul\":1487:1520   */\n              tag_171\n                /* \"#utility.yul\":1514:1519   */\n              dup2\n                /* \"#utility.yul\":1487:1520   */\n              tag_115\n              jump\t// in\n            tag_171:\n                /* \"#utility.yul\":1387:1526   */\n              swap3\n              swap2\n              pop\n              pop\n              jump\t// out\n                /* \"#utility.yul\":1532:1861   */\n            tag_19:\n                /* \"#utility.yul\":1591:1597   */\n              0x00\n                /* \"#utility.yul\":1640:1642   */\n              0x20\n                /* \"#utility.yul\":1628:1637   */\n              dup3\n                /* \"#utility.yul\":1619:1626   */\n              dup5\n                /* \"#utility.yul\":1615:1638   */\n              sub\n                /* \"#utility.yul\":1611:1643   */\n              slt\n                /* \"#utility.yul\":1608:1727   */\n              iszero\n              tag_173\n              jumpi\n                /* \"#utility.yul\":1646:1725   */\n              tag_174\n              tag_108\n              jump\t// in\n            tag_174:\n                /* \"#utility.yul\":1608:1727   */\n            tag_173:\n                /* \"#utility.yul\":1766:1767   */\n              0x00\n                /* \"#utility.yul\":1791:1844   */\n              tag_175\n                /* \"#utility.yul\":1836:1843   */\n              dup5\n                /* \"#utility.yul\":1827:1833   */\n              dup3\n                /* \"#utility.yul\":1816:1825   */\n              dup6\n                /* \"#utility.yul\":1812:1834   */\n              add\n                /* \"#utility.yul\":1791:1844   */\n              tag_116\n              jump\t// in\n            tag_175:\n                /* \"#utility.yul\":1781:1844   */\n              swap2\n              pop\n                /* \"#utility.yul\":1737:1854   */\n              pop\n                /* \"#utility.yul\":1532:1861   */\n              swap3\n              swap2\n              pop\n              pop\n              jump\t// out\n                /* \"#utility.yul\":1867:1957   */\n            tag_117:\n                /* \"#utility.yul\":1901:1908   */\n              0x00\n                /* \"#utility.yul\":1944:1949   */\n              dup2\n                /* \"#utility.yul\":1937:1950   */\n              iszero\n                /* \"#utility.yul\":1930:1951   */\n              iszero\n                /* \"#utility.yul\":1919:1951   */\n              swap1\n              pop\n                /* \"#utility.yul\":1867:1957   */\n              swap2\n              swap1\n              pop\n              jump\t// out\n                /* \"#utility.yul\":1963:2072   */\n            tag_118:\n                /* \"#utility.yul\":2044:2065   */\n              tag_178\n                /* \"#utility.yul\":2059:2064   */\n              dup2\n                /* \"#utility.yul\":2044:2065   */\n              tag_117\n              jump\t// in\n            tag_178:\n                /* \"#utility.yul\":2039:2042   */\n              dup3\n                /* \"#utility.yul\":2032:2066   */\n              mstore\n                /* \"#utility.yul\":1963:2072   */\n              pop\n              pop\n              jump\t// out\n                /* \"#utility.yul\":2078:2288   */\n            tag_22:\n                /* \"#utility.yul\":2165:2169   */\n              0x00\n                /* \"#utility.yul\":2203:2205   */\n              0x20\n                /* \"#utility.yul\":2192:2201   */\n              dup3\n                /* \"#utility.yul\":2188:2206   */\n              add\n                /* \"#utility.yul\":2180:2206   */\n              swap1\n              pop\n                /* \"#utility.yul\":2216:2281   */\n              tag_180\n                /* \"#utility.yul\":2278:2279   */\n              0x00\n                /* \"#utility.yul\":2267:2276   */\n              dup4\n                /* \"#utility.yul\":2263:2280   */\n              add\n                /* \"#utility.yul\":2254:2260   */\n              dup5\n                /* \"#utility.yul\":2216:2281   */\n              tag_118\n              jump\t// in\n            tag_180:\n                /* \"#utility.yul\":2078:2288   */\n              swap3\n              swap2\n              pop\n              pop\n              jump\t// out\n                /* \"#utility.yul\":2294:2412   */\n            tag_119:\n                /* \"#utility.yul\":2381:2405   */\n              tag_182\n                /* \"#utility.yul\":2399:2404   */\n              dup2\n                /* \"#utility.yul\":2381:2405   */\n              tag_110\n              jump\t// in\n            tag_182:\n                /* \"#utility.yul\":2376:2379   */\n              dup3\n                /* \"#utility.yul\":2369:2406   */\n              mstore\n                /* \"#utility.yul\":2294:2412   */\n              pop\n              pop\n              jump\t// out\n                /* \"#utility.yul\":2418:2640   */\n            tag_27:\n                /* \"#utility.yul\":2511:2515   */\n              0x00\n                /* \"#utility.yul\":2549:2551   */\n              0x20\n                /* \"#utility.yul\":2538:2547   */\n              dup3\n                /* \"#utility.yul\":2534:2552   */\n              add\n                /* \"#utility.yul\":2526:2552   */\n              swap1\n              pop\n                /* \"#utility.yul\":2562:2633   */\n              tag_184\n                /* \"#utility.yul\":2630:2631   */\n              0x00\n                /* \"#utility.yul\":2619:2628   */\n              dup4\n                /* \"#utility.yul\":2615:2632   */\n              add\n                /* \"#utility.yul\":2606:2612   */\n              dup5\n                /* \"#utility.yul\":2562:2633   */\n              tag_119\n              jump\t// in\n            tag_184:\n                /* \"#utility.yul\":2418:2640   */\n              swap3\n              swap2\n              pop\n              pop\n              jump\t// out\n                /* \"#utility.yul\":2646:2764   */\n            tag_120:\n                /* \"#utility.yul\":2733:2757   */\n              tag_186\n                /* \"#utility.yul\":2751:2756   */\n              dup2\n                /* \"#utility.yul\":2733:2757   */\n              tag_114\n              jump\t// in\n            tag_186:\n                /* \"#utility.yul\":2728:2731   */\n              dup3\n                /* \"#utility.yul\":2721:2758   */\n              mstore\n                /* \"#utility.yul\":2646:2764   */\n              pop\n              pop\n              jump\t// out\n                /* \"#utility.yul\":2770:3434   */\n            tag_32:\n                /* \"#utility.yul\":2975:2979   */\n              0x00\n                /* \"#utility.yul\":3013:3016   */\n              0xa0\n                /* \"#utility.yul\":3002:3011   */\n              dup3\n                /* \"#utility.yul\":2998:3017   */\n              add\n                /* \"#utility.yul\":2990:3017   */\n              swap1\n              pop\n                /* \"#utility.yul\":3027:3098   */\n              tag_188\n                /* \"#utility.yul\":3095:3096   */\n              0x00\n                /* \"#utility.yul\":3084:3093   */\n              dup4\n                /* \"#utility.yul\":3080:3097   */\n              add\n                /* \"#utility.yul\":3071:3077   */\n              dup9\n                /* \"#utility.yul\":3027:3098   */\n              tag_119\n              jump\t// in\n            tag_188:\n                /* \"#utility.yul\":3108:3180   */\n              tag_189\n                /* \"#utility.yul\":3176:3178   */\n              0x20\n                /* \"#utility.yul\":3165:3174   */\n              dup4\n                /* \"#utility.yul\":3161:3179   */\n              add\n                /* \"#utility.yul\":3152:3158   */\n              dup8\n                /* \"#utility.yul\":3108:3180   */\n              tag_119\n              jump\t// in\n            tag_189:\n                /* \"#utility.yul\":3190:3262   */\n              tag_190\n                /* \"#utility.yul\":3258:3260   */\n              0x40\n                /* \"#utility.yul\":3247:3256   */\n              dup4\n                /* \"#utility.yul\":3243:3261   */\n              add\n                /* \"#utility.yul\":3234:3240   */\n              dup7\n                /* \"#utility.yul\":3190:3262   */\n              tag_119\n              jump\t// in\n            tag_190:\n                /* \"#utility.yul\":3272:3344   */\n              tag_191\n                /* \"#utility.yul\":3340:3342   */\n              0x60\n                /* \"#utility.yul\":3329:3338   */\n              dup4\n                /* \"#utility.yul\":3325:3343   */\n              add\n                /* \"#utility.yul\":3316:3322   */\n              dup6\n                /* \"#utility.yul\":3272:3344   */\n              tag_119\n              jump\t// in\n            tag_191:\n                /* \"#utility.yul\":3354:3427   */\n              tag_192\n                /* \"#utility.yul\":3422:3425   */\n              0x80\n                /* \"#utility.yul\":3411:3420   */\n              dup4\n                /* \"#utility.yul\":3407:3426   */\n              add\n                /* \"#utility.yul\":3398:3404   */\n              dup5\n                /* \"#utility.yul\":3354:3427   */\n              tag_120\n              jump\t// in\n            tag_192:\n                /* \"#utility.yul\":2770:3434   */\n              swap7\n              swap6\n              pop\n              pop\n              pop\n              pop\n              pop\n              pop\n              jump\t// out\n                /* \"#utility.yul\":3440:3539   */\n            tag_121:\n                /* \"#utility.yul\":3492:3498   */\n              0x00\n                /* \"#utility.yul\":3526:3531   */\n              dup2\n                /* \"#utility.yul\":3520:3532   */\n              mload\n                /* \"#utility.yul\":3510:3532   */\n              swap1\n              pop\n                /* \"#utility.yul\":3440:3539   */\n              swap2\n              swap1\n              pop\n              jump\t// out\n                /* \"#utility.yul\":3545:3714   */\n            tag_122:\n                /* \"#utility.yul\":3629:3640   */\n              0x00\n                /* \"#utility.yul\":3663:3669   */\n              dup3\n                /* \"#utility.yul\":3658:3661   */\n              dup3\n                /* \"#utility.yul\":3651:3670   */\n              mstore\n                /* \"#utility.yul\":3703:3707   */\n              0x20\n                /* \"#utility.yul\":3698:3701   */\n              dup3\n                /* \"#utility.yul\":3694:3708   */\n              add\n                /* \"#utility.yul\":3679:3708   */\n              swap1\n              pop\n                /* \"#utility.yul\":3545:3714   */\n              swap3\n              swap2\n              pop\n              pop\n              jump\t// out\n                /* \"#utility.yul\":3720:4027   */\n            tag_123:\n                /* \"#utility.yul\":3788:3789   */\n              0x00\n                /* \"#utility.yul\":3798:3911   */\n            tag_196:\n                /* \"#utility.yul\":3812:3818   */\n              dup4\n                /* \"#utility.yul\":3809:3810   */\n              dup2\n                /* \"#utility.yul\":3806:3819   */\n              lt\n                /* \"#utility.yul\":3798:3911   */\n              iszero\n              tag_198\n              jumpi\n                /* \"#utility.yul\":3897:3898   */\n              dup1\n                /* \"#utility.yul\":3892:3895   */\n              dup3\n                /* \"#utility.yul\":3888:3899   */\n              add\n                /* \"#utility.yul\":3882:3900   */\n              mload\n                /* \"#utility.yul\":3878:3879   */\n              dup2\n                /* \"#utility.yul\":3873:3876   */\n              dup5\n                /* \"#utility.yul\":3869:3880   */\n              add\n                /* \"#utility.yul\":3862:3901   */\n              mstore\n                /* \"#utility.yul\":3834:3836   */\n              0x20\n                /* \"#utility.yul\":3831:3832   */\n              dup2\n                /* \"#utility.yul\":3827:3837   */\n              add\n                /* \"#utility.yul\":3822:3837   */\n              swap1\n              pop\n                /* \"#utility.yul\":3798:3911   */\n              jump(tag_196)\n            tag_198:\n                /* \"#utility.yul\":3929:3935   */\n              dup4\n                /* \"#utility.yul\":3926:3927   */\n              dup2\n                /* \"#utility.yul\":3923:3936   */\n              gt\n                /* \"#utility.yul\":3920:4021   */\n              iszero\n              tag_199\n              jumpi\n                /* \"#utility.yul\":4009:4010   */\n              0x00\n                /* \"#utility.yul\":4000:4006   */\n              dup5\n                /* \"#utility.yul\":3995:3998   */\n              dup5\n                /* \"#utility.yul\":3991:4007   */\n              add\n                /* \"#utility.yul\":3984:4011   */\n              mstore\n                /* \"#utility.yul\":3920:4021   */\n            tag_199:\n                /* \"#utility.yul\":3769:4027   */\n              pop\n                /* \"#utility.yul\":3720:4027   */\n              pop\n              pop\n              pop\n              jump\t// out\n                /* \"#utility.yul\":4033:4135   */\n            tag_124:\n                /* \"#utility.yul\":4074:4080   */\n              0x00\n                /* \"#utility.yul\":4125:4127   */\n              0x1f\n                /* \"#utility.yul\":4121:4128   */\n              not\n                /* \"#utility.yul\":4116:4118   */\n              0x1f\n                /* \"#utility.yul\":4109:4114   */\n              dup4\n                /* \"#utility.yul\":4105:4119   */\n              add\n                /* \"#utility.yul\":4101:4129   */\n              and\n                /* \"#utility.yul\":4091:4129   */\n              swap1\n              pop\n                /* \"#utility.yul\":4033:4135   */\n              swap2\n              swap1\n              pop\n              jump\t// out\n                /* \"#utility.yul\":4141:4505   */\n            tag_125:\n                /* \"#utility.yul\":4229:4232   */\n              0x00\n                /* \"#utility.yul\":4257:4296   */\n              tag_202\n                /* \"#utility.yul\":4290:4295   */\n              dup3\n                /* \"#utility.yul\":4257:4296   */\n              tag_121\n              jump\t// in\n            tag_202:\n                /* \"#utility.yul\":4312:4383   */\n              tag_203\n                /* \"#utility.yul\":4376:4382   */\n              dup2\n                /* \"#utility.yul\":4371:4374   */\n              dup6\n                /* \"#utility.yul\":4312:4383   */\n              tag_122\n              jump\t// in\n            tag_203:\n                /* \"#utility.yul\":4305:4383   */\n              swap4\n              pop\n                /* \"#utility.yul\":4392:4444   */\n              tag_204\n                /* \"#utility.yul\":4437:4443   */\n              dup2\n                /* \"#utility.yul\":4432:4435   */\n              dup6\n                /* \"#utility.yul\":4425:4429   */\n              0x20\n                /* \"#utility.yul\":4418:4423   */\n              dup7\n                /* \"#utility.yul\":4414:4430   */\n              add\n                /* \"#utility.yul\":4392:4444   */\n              tag_123\n              jump\t// in\n            tag_204:\n                /* \"#utility.yul\":4469:4498   */\n              tag_205\n                /* \"#utility.yul\":4491:4497   */\n              dup2\n                /* \"#utility.yul\":4469:4498   */\n              tag_124\n              jump\t// in\n            tag_205:\n                /* \"#utility.yul\":4464:4467   */\n              dup5\n                /* \"#utility.yul\":4460:4499   */\n              add\n                /* \"#utility.yul\":4453:4499   */\n              swap2\n              pop\n                /* \"#utility.yul\":4233:4505   */\n              pop\n                /* \"#utility.yul\":4141:4505   */\n              swap3\n              swap2\n              pop\n              pop\n              jump\t// out\n                /* \"#utility.yul\":4511:5254   */\n            tag_38:\n                /* \"#utility.yul\":4730:4734   */\n              0x00\n                /* \"#utility.yul\":4768:4771   */\n              0xa0\n                /* \"#utility.yul\":4757:4766   */\n              dup3\n                /* \"#utility.yul\":4753:4772   */\n              add\n                /* \"#utility.yul\":4745:4772   */\n              swap1\n              pop\n                /* \"#utility.yul\":4818:4827   */\n              dup2\n                /* \"#utility.yul\":4812:4816   */\n              dup2\n                /* \"#utility.yul\":4808:4828   */\n              sub\n                /* \"#utility.yul\":4804:4805   */\n              0x00\n                /* \"#utility.yul\":4793:4802   */\n              dup4\n                /* \"#utility.yul\":4789:4806   */\n              add\n                /* \"#utility.yul\":4782:4829   */\n              mstore\n                /* \"#utility.yul\":4846:4924   */\n              tag_207\n                /* \"#utility.yul\":4919:4923   */\n              dup2\n                /* \"#utility.yul\":4910:4916   */\n              dup9\n                /* \"#utility.yul\":4846:4924   */\n              tag_125\n              jump\t// in\n            tag_207:\n                /* \"#utility.yul\":4838:4924   */\n              swap1\n              pop\n                /* \"#utility.yul\":4934:5006   */\n              tag_208\n                /* \"#utility.yul\":5002:5004   */\n              0x20\n                /* \"#utility.yul\":4991:5000   */\n              dup4\n                /* \"#utility.yul\":4987:5005   */\n              add\n                /* \"#utility.yul\":4978:4984   */\n              dup8\n                /* \"#utility.yul\":4934:5006   */\n              tag_119\n              jump\t// in\n            tag_208:\n                /* \"#utility.yul\":5016:5088   */\n              tag_209\n                /* \"#utility.yul\":5084:5086   */\n              0x40\n                /* \"#utility.yul\":5073:5082   */\n              dup4\n                /* \"#utility.yul\":5069:5087   */\n              add\n                /* \"#utility.yul\":5060:5066   */\n              dup7\n                /* \"#utility.yul\":5016:5088   */\n              tag_120\n              jump\t// in\n            tag_209:\n                /* \"#utility.yul\":5098:5164   */\n              tag_210\n                /* \"#utility.yul\":5160:5162   */\n              0x60\n                /* \"#utility.yul\":5149:5158   */\n              dup4\n                /* \"#utility.yul\":5145:5163   */\n              add\n                /* \"#utility.yul\":5136:5142   */\n              dup6\n                /* \"#utility.yul\":5098:5164   */\n              tag_118\n              jump\t// in\n            tag_210:\n                /* \"#utility.yul\":5174:5247   */\n              tag_211\n                /* \"#utility.yul\":5242:5245   */\n              0x80\n                /* \"#utility.yul\":5231:5240   */\n              dup4\n                /* \"#utility.yul\":5227:5246   */\n              add\n                /* \"#utility.yul\":5218:5224   */\n              dup5\n                /* \"#utility.yul\":5174:5247   */\n              tag_119\n              jump\t// in\n            tag_211:\n                /* \"#utility.yul\":4511:5254   */\n              swap7\n              swap6\n              pop\n              pop\n              pop\n              pop\n              pop\n              pop\n              jump\t// out\n                /* \"#utility.yul\":5260:5377   */\n            tag_126:\n                /* \"#utility.yul\":5369:5370   */\n              0x00\n                /* \"#utility.yul\":5366:5367   */\n              dup1\n                /* \"#utility.yul\":5359:5371   */\n              revert\n                /* \"#utility.yul\":5383:5500   */\n            tag_127:\n                /* \"#utility.yul\":5492:5493   */\n              0x00\n                /* \"#utility.yul\":5489:5490   */\n              dup1\n                /* \"#utility.yul\":5482:5494   */\n              revert\n                /* \"#utility.yul\":5506:5686   */\n            tag_128:\n                /* \"#utility.yul\":5554:5631   */\n              0x4e487b7100000000000000000000000000000000000000000000000000000000\n                /* \"#utility.yul\":5551:5552   */\n              0x00\n                /* \"#utility.yul\":5544:5632   */\n              mstore\n                /* \"#utility.yul\":5651:5655   */\n              0x41\n                /* \"#utility.yul\":5648:5649   */\n              0x04\n                /* \"#utility.yul\":5641:5656   */\n              mstore\n                /* \"#utility.yul\":5675:5679   */\n              0x24\n                /* \"#utility.yul\":5672:5673   */\n              0x00\n                /* \"#utility.yul\":5665:5680   */\n              revert\n                /* \"#utility.yul\":5692:5973   */\n            tag_129:\n                /* \"#utility.yul\":5775:5802   */\n              tag_216\n                /* \"#utility.yul\":5797:5801   */\n              dup3\n                /* \"#utility.yul\":5775:5802   */\n              tag_124\n              jump\t// in\n            tag_216:\n                /* \"#utility.yul\":5767:5773   */\n              dup2\n                /* \"#utility.yul\":5763:5803   */\n              add\n                /* \"#utility.yul\":5905:5911   */\n              dup2\n                /* \"#utility.yul\":5893:5903   */\n              dup2\n                /* \"#utility.yul\":5890:5912   */\n              lt\n                /* \"#utility.yul\":5869:5887   */\n              0xffffffffffffffff\n                /* \"#utility.yul\":5857:5867   */\n              dup3\n                /* \"#utility.yul\":5854:5888   */\n              gt\n                /* \"#utility.yul\":5851:5913   */\n              or\n                /* \"#utility.yul\":5848:5936   */\n              iszero\n              tag_217\n              jumpi\n                /* \"#utility.yul\":5916:5934   */\n              tag_218\n              tag_128\n              jump\t// in\n            tag_218:\n                /* \"#utility.yul\":5848:5936   */\n            tag_217:\n                /* \"#utility.yul\":5956:5966   */\n              dup1\n                /* \"#utility.yul\":5952:5954   */\n              0x40\n                /* \"#utility.yul\":5945:5967   */\n              mstore\n                /* \"#utility.yul\":5735:5973   */\n              pop\n                /* \"#utility.yul\":5692:5973   */\n              pop\n              pop\n              jump\t// out\n                /* \"#utility.yul\":5979:6108   */\n            tag_130:\n                /* \"#utility.yul\":6013:6019   */\n              0x00\n                /* \"#utility.yul\":6040:6060   */\n              tag_220\n              tag_107\n              jump\t// in\n            tag_220:\n                /* \"#utility.yul\":6030:6060   */\n              swap1\n              pop\n                /* \"#utility.yul\":6069:6102   */\n              tag_221\n                /* \"#utility.yul\":6097:6101   */\n              dup3\n                /* \"#utility.yul\":6089:6095   */\n              dup3\n                /* \"#utility.yul\":6069:6102   */\n              tag_129\n              jump\t// in\n            tag_221:\n                /* \"#utility.yul\":5979:6108   */\n              swap2\n              swap1\n              pop\n              jump\t// out\n                /* \"#utility.yul\":6114:6422   */\n            tag_131:\n                /* \"#utility.yul\":6176:6180   */\n              0x00\n                /* \"#utility.yul\":6266:6284   */\n              0xffffffffffffffff\n                /* \"#utility.yul\":6258:6264   */\n              dup3\n                /* \"#utility.yul\":6255:6285   */\n              gt\n                /* \"#utility.yul\":6252:6308   */\n              iszero\n              tag_223\n              jumpi\n                /* \"#utility.yul\":6288:6306   */\n              tag_224\n              tag_128\n              jump\t// in\n            tag_224:\n                /* \"#utility.yul\":6252:6308   */\n            tag_223:\n                /* \"#utility.yul\":6326:6355   */\n              tag_225\n                /* \"#utility.yul\":6348:6354   */\n              dup3\n                /* \"#utility.yul\":6326:6355   */\n              tag_124\n              jump\t// in\n            tag_225:\n                /* \"#utility.yul\":6318:6355   */\n              swap1\n              pop\n                /* \"#utility.yul\":6410:6414   */\n              0x20\n                /* \"#utility.yul\":6404:6408   */\n              dup2\n                /* \"#utility.yul\":6400:6415   */\n              add\n                /* \"#utility.yul\":6392:6415   */\n              swap1\n              pop\n                /* \"#utility.yul\":6114:6422   */\n              swap2\n              swap1\n              pop\n              jump\t// out\n                /* \"#utility.yul\":6428:6582   */\n            tag_132:\n                /* \"#utility.yul\":6512:6518   */\n              dup3\n                /* \"#utility.yul\":6507:6510   */\n              dup2\n                /* \"#utility.yul\":6502:6505   */\n              dup4\n                /* \"#utility.yul\":6489:6519   */\n              calldatacopy\n                /* \"#utility.yul\":6574:6575   */\n              0x00\n                /* \"#utility.yul\":6565:6571   */\n              dup4\n                /* \"#utility.yul\":6560:6563   */\n              dup4\n                /* \"#utility.yul\":6556:6572   */\n              add\n                /* \"#utility.yul\":6549:6576   */\n              mstore\n                /* \"#utility.yul\":6428:6582   */\n              pop\n              pop\n              pop\n              jump\t// out\n                /* \"#utility.yul\":6588:7000   */\n            tag_133:\n                /* \"#utility.yul\":6666:6671   */\n              0x00\n                /* \"#utility.yul\":6691:6757   */\n              tag_228\n                /* \"#utility.yul\":6707:6756   */\n              tag_229\n                /* \"#utility.yul\":6749:6755   */\n              dup5\n                /* \"#utility.yul\":6707:6756   */\n              tag_131\n              jump\t// in\n            tag_229:\n                /* \"#utility.yul\":6691:6757   */\n              tag_130\n              jump\t// in\n            tag_228:\n                /* \"#utility.yul\":6682:6757   */\n              swap1\n              pop\n                /* \"#utility.yul\":6780:6786   */\n              dup3\n                /* \"#utility.yul\":6773:6778   */\n              dup2\n                /* \"#utility.yul\":6766:6787   */\n              mstore\n                /* \"#utility.yul\":6818:6822   */\n              0x20\n                /* \"#utility.yul\":6811:6816   */\n              dup2\n                /* \"#utility.yul\":6807:6823   */\n              add\n                /* \"#utility.yul\":6856:6859   */\n              dup5\n                /* \"#utility.yul\":6847:6853   */\n              dup5\n                /* \"#utility.yul\":6842:6845   */\n              dup5\n                /* \"#utility.yul\":6838:6854   */\n              add\n                /* \"#utility.yul\":6835:6860   */\n              gt\n                /* \"#utility.yul\":6832:6944   */\n              iszero\n              tag_230\n              jumpi\n                /* \"#utility.yul\":6863:6942   */\n              tag_231\n              tag_127\n              jump\t// in\n            tag_231:\n                /* \"#utility.yul\":6832:6944   */\n            tag_230:\n                /* \"#utility.yul\":6953:6994   */\n              tag_232\n                /* \"#utility.yul\":6987:6993   */\n              dup5\n                /* \"#utility.yul\":6982:6985   */\n              dup3\n                /* \"#utility.yul\":6977:6980   */\n              dup6\n                /* \"#utility.yul\":6953:6994   */\n              tag_132\n              jump\t// in\n            tag_232:\n                /* \"#utility.yul\":6672:7000   */\n              pop\n                /* \"#utility.yul\":6588:7000   */\n              swap4\n              swap3\n              pop\n              pop\n              pop\n              jump\t// out\n                /* \"#utility.yul\":7020:7360   */\n            tag_134:\n                /* \"#utility.yul\":7076:7081   */\n              0x00\n                /* \"#utility.yul\":7125:7128   */\n              dup3\n                /* \"#utility.yul\":7118:7122   */\n              0x1f\n                /* \"#utility.yul\":7110:7116   */\n              dup4\n                /* \"#utility.yul\":7106:7123   */\n              add\n                /* \"#utility.yul\":7102:7129   */\n              slt\n                /* \"#utility.yul\":7092:7214   */\n              tag_234\n              jumpi\n                /* \"#utility.yul\":7133:7212   */\n              tag_235\n              tag_126\n              jump\t// in\n            tag_235:\n                /* \"#utility.yul\":7092:7214   */\n            tag_234:\n                /* \"#utility.yul\":7250:7256   */\n              dup2\n                /* \"#utility.yul\":7237:7257   */\n              calldataload\n                /* \"#utility.yul\":7275:7354   */\n              tag_236\n                /* \"#utility.yul\":7350:7353   */\n              dup5\n                /* \"#utility.yul\":7342:7348   */\n              dup3\n                /* \"#utility.yul\":7335:7339   */\n              0x20\n                /* \"#utility.yul\":7327:7333   */\n              dup7\n                /* \"#utility.yul\":7323:7340   */\n              add\n                /* \"#utility.yul\":7275:7354   */\n              tag_133\n              jump\t// in\n            tag_236:\n                /* \"#utility.yul\":7266:7354   */\n              swap2\n              pop\n                /* \"#utility.yul\":7082:7360   */\n              pop\n                /* \"#utility.yul\":7020:7360   */\n              swap3\n              swap2\n              pop\n              pop\n              jump\t// out\n                /* \"#utility.yul\":7366:8165   */\n            tag_41:\n                /* \"#utility.yul\":7453:7459   */\n              0x00\n                /* \"#utility.yul\":7461:7467   */\n              dup1\n                /* \"#utility.yul\":7469:7475   */\n              0x00\n                /* \"#utility.yul\":7518:7520   */\n              0x60\n                /* \"#utility.yul\":7506:7515   */\n              dup5\n                /* \"#utility.yul\":7497:7504   */\n              dup7\n                /* \"#utility.yul\":7493:7516   */\n              sub\n                /* \"#utility.yul\":7489:7521   */\n              slt\n                /* \"#utility.yul\":7486:7605   */\n              iszero\n              tag_238\n              jumpi\n                /* \"#utility.yul\":7524:7603   */\n              tag_239\n              tag_108\n              jump\t// in\n            tag_239:\n                /* \"#utility.yul\":7486:7605   */\n            tag_238:\n                /* \"#utility.yul\":7672:7673   */\n              0x00\n                /* \"#utility.yul\":7661:7670   */\n              dup5\n                /* \"#utility.yul\":7657:7674   */\n              add\n                /* \"#utility.yul\":7644:7675   */\n              calldataload\n                /* \"#utility.yul\":7702:7720   */\n              0xffffffffffffffff\n                /* \"#utility.yul\":7694:7700   */\n              dup2\n                /* \"#utility.yul\":7691:7721   */\n              gt\n                /* \"#utility.yul\":7688:7805   */\n              iszero\n              tag_240\n              jumpi\n                /* \"#utility.yul\":7724:7803   */\n              tag_241\n              tag_109\n              jump\t// in\n            tag_241:\n                /* \"#utility.yul\":7688:7805   */\n            tag_240:\n                /* \"#utility.yul\":7829:7892   */\n              tag_242\n                /* \"#utility.yul\":7884:7891   */\n              dup7\n                /* \"#utility.yul\":7875:7881   */\n              dup3\n                /* \"#utility.yul\":7864:7873   */\n              dup8\n                /* \"#utility.yul\":7860:7882   */\n              add\n                /* \"#utility.yul\":7829:7892   */\n              tag_134\n              jump\t// in\n            tag_242:\n                /* \"#utility.yul\":7819:7892   */\n              swap4\n              pop\n                /* \"#utility.yul\":7615:7902   */\n              pop\n                /* \"#utility.yul\":7941:7943   */\n              0x20\n                /* \"#utility.yul\":7967:8020   */\n              tag_243\n                /* \"#utility.yul\":8012:8019   */\n              dup7\n                /* \"#utility.yul\":8003:8009   */\n              dup3\n                /* \"#utility.yul\":7992:8001   */\n              dup8\n                /* \"#utility.yul\":7988:8010   */\n              add\n                /* \"#utility.yul\":7967:8020   */\n              tag_112\n              jump\t// in\n            tag_243:\n                /* \"#utility.yul\":7957:8020   */\n              swap3\n              pop\n                /* \"#utility.yul\":7912:8030   */\n              pop\n                /* \"#utility.yul\":8069:8071   */\n              0x40\n                /* \"#utility.yul\":8095:8148   */\n              tag_244\n                /* \"#utility.yul\":8140:8147   */\n              dup7\n                /* \"#utility.yul\":8131:8137   */\n              dup3\n                /* \"#utility.yul\":8120:8129   */\n              dup8\n                /* \"#utility.yul\":8116:8138   */\n              add\n                /* \"#utility.yul\":8095:8148   */\n              tag_116\n              jump\t// in\n            tag_244:\n                /* \"#utility.yul\":8085:8148   */\n              swap2\n              pop\n                /* \"#utility.yul\":8040:8158   */\n              pop\n                /* \"#utility.yul\":7366:8165   */\n              swap3\n              pop\n              swap3\n              pop\n              swap3\n              jump\t// out\n                /* \"#utility.yul\":8171:8393   */\n            tag_53:\n                /* \"#utility.yul\":8264:8268   */\n              0x00\n                /* \"#utility.yul\":8302:8304   */\n              0x20\n                /* \"#utility.yul\":8291:8300   */\n              dup3\n                /* \"#utility.yul\":8287:8305   */\n              add\n                /* \"#utility.yul\":8279:8305   */\n              swap1\n              pop\n                /* \"#utility.yul\":8315:8386   */\n              tag_246\n                /* \"#utility.yul\":8383:8384   */\n              0x00\n                /* \"#utility.yul\":8372:8381   */\n              dup4\n                /* \"#utility.yul\":8368:8385   */\n              add\n                /* \"#utility.yul\":8359:8365   */\n              dup5\n                /* \"#utility.yul\":8315:8386   */\n              tag_120\n              jump\t// in\n            tag_246:\n                /* \"#utility.yul\":8171:8393   */\n              swap3\n              swap2\n              pop\n              pop\n              jump\t// out\n                /* \"#utility.yul\":8399:8625   */\n            tag_135:\n                /* \"#utility.yul\":8539:8573   */\n              0x5468697320726571756573742068617320616c7265616479206265656e20636f\n                /* \"#utility.yul\":8535:8536   */\n              0x00\n                /* \"#utility.yul\":8527:8533   */\n              dup3\n                /* \"#utility.yul\":8523:8537   */\n              add\n                /* \"#utility.yul\":8516:8574   */\n              mstore\n                /* \"#utility.yul\":8608:8617   */\n              0x6d706c6574656400000000000000000000000000000000000000000000000000\n                /* \"#utility.yul\":8603:8605   */\n              0x20\n                /* \"#utility.yul\":8595:8601   */\n              dup3\n                /* \"#utility.yul\":8591:8606   */\n              add\n                /* \"#utility.yul\":8584:8618   */\n              mstore\n                /* \"#utility.yul\":8399:8625   */\n              pop\n              jump\t// out\n                /* \"#utility.yul\":8631:8997   */\n            tag_136:\n                /* \"#utility.yul\":8773:8776   */\n              0x00\n                /* \"#utility.yul\":8794:8861   */\n              tag_249\n                /* \"#utility.yul\":8858:8860   */\n              0x27\n                /* \"#utility.yul\":8853:8856   */\n              dup4\n                /* \"#utility.yul\":8794:8861   */\n              tag_122\n              jump\t// in\n            tag_249:\n                /* \"#utility.yul\":8787:8861   */\n              swap2\n              pop\n                /* \"#utility.yul\":8870:8963   */\n              tag_250\n                /* \"#utility.yul\":8959:8962   */\n              dup3\n                /* \"#utility.yul\":8870:8963   */\n              tag_135\n              jump\t// in\n            tag_250:\n                /* \"#utility.yul\":8988:8990   */\n              0x40\n                /* \"#utility.yul\":8983:8986   */\n              dup3\n                /* \"#utility.yul\":8979:8991   */\n              add\n                /* \"#utility.yul\":8972:8991   */\n              swap1\n              pop\n                /* \"#utility.yul\":8631:8997   */\n              swap2\n              swap1\n              pop\n              jump\t// out\n                /* \"#utility.yul\":9003:9422   */\n            tag_58:\n                /* \"#utility.yul\":9169:9173   */\n              0x00\n                /* \"#utility.yul\":9207:9209   */\n              0x20\n                /* \"#utility.yul\":9196:9205   */\n              dup3\n                /* \"#utility.yul\":9192:9210   */\n              add\n                /* \"#utility.yul\":9184:9210   */\n              swap1\n              pop\n                /* \"#utility.yul\":9256:9265   */\n              dup2\n                /* \"#utility.yul\":9250:9254   */\n              dup2\n                /* \"#utility.yul\":9246:9266   */\n              sub\n                /* \"#utility.yul\":9242:9243   */\n              0x00\n                /* \"#utility.yul\":9231:9240   */\n              dup4\n                /* \"#utility.yul\":9227:9244   */\n              add\n                /* \"#utility.yul\":9220:9267   */\n              mstore\n                /* \"#utility.yul\":9284:9415   */\n              tag_252\n                /* \"#utility.yul\":9410:9414   */\n              dup2\n                /* \"#utility.yul\":9284:9415   */\n              tag_136\n              jump\t// in\n            tag_252:\n                /* \"#utility.yul\":9276:9415   */\n              swap1\n              pop\n                /* \"#utility.yul\":9003:9422   */\n              swap2\n              swap1\n              pop\n              jump\t// out\n                /* \"#utility.yul\":9428:9608   */\n            tag_137:\n                /* \"#utility.yul\":9476:9553   */\n              0x4e487b7100000000000000000000000000000000000000000000000000000000\n                /* \"#utility.yul\":9473:9474   */\n              0x00\n                /* \"#utility.yul\":9466:9554   */\n              mstore\n                /* \"#utility.yul\":9573:9577   */\n              0x12\n                /* \"#utility.yul\":9570:9571   */\n              0x04\n                /* \"#utility.yul\":9563:9578   */\n              mstore\n                /* \"#utility.yul\":9597:9601   */\n              0x24\n                /* \"#utility.yul\":9594:9595   */\n              0x00\n                /* \"#utility.yul\":9587:9602   */\n              revert\n                /* \"#utility.yul\":9614:9794   */\n            tag_138:\n                /* \"#utility.yul\":9662:9739   */\n              0x4e487b7100000000000000000000000000000000000000000000000000000000\n                /* \"#utility.yul\":9659:9660   */\n              0x00\n                /* \"#utility.yul\":9652:9740   */\n              mstore\n                /* \"#utility.yul\":9759:9763   */\n              0x11\n                /* \"#utility.yul\":9756:9757   */\n              0x04\n                /* \"#utility.yul\":9749:9764   */\n              mstore\n                /* \"#utility.yul\":9783:9787   */\n              0x24\n                /* \"#utility.yul\":9780:9781   */\n              0x00\n                /* \"#utility.yul\":9773:9788   */\n              revert\n                /* \"#utility.yul\":9800:9985   */\n            tag_60:\n                /* \"#utility.yul\":9840:9841   */\n              0x00\n                /* \"#utility.yul\":9857:9877   */\n              tag_256\n                /* \"#utility.yul\":9875:9876   */\n              dup3\n                /* \"#utility.yul\":9857:9877   */\n              tag_110\n              jump\t// in\n            tag_256:\n                /* \"#utility.yul\":9852:9877   */\n              swap2\n              pop\n                /* \"#utility.yul\":9891:9911   */\n              tag_257\n                /* \"#utility.yul\":9909:9910   */\n              dup4\n                /* \"#utility.yul\":9891:9911   */\n              tag_110\n              jump\t// in\n            tag_257:\n                /* \"#utility.yul\":9886:9911   */\n              swap3\n              pop\n                /* \"#utility.yul\":9930:9931   */\n              dup3\n                /* \"#utility.yul\":9920:9955   */\n              tag_258\n              jumpi\n                /* \"#utility.yul\":9935:9953   */\n              tag_259\n              tag_137\n              jump\t// in\n            tag_259:\n                /* \"#utility.yul\":9920:9955   */\n            tag_258:\n                /* \"#utility.yul\":9977:9978   */\n              dup3\n                /* \"#utility.yul\":9974:9975   */\n              dup3\n                /* \"#utility.yul\":9970:9979   */\n              div\n                /* \"#utility.yul\":9965:9979   */\n              swap1\n              pop\n                /* \"#utility.yul\":9800:9985   */\n              swap3\n              swap2\n              pop\n              pop\n              jump\t// out\n                /* \"#utility.yul\":9991:10231   */\n            tag_139:\n                /* \"#utility.yul\":10131:10165   */\n              0x4174206c656173742068616c66206f6620617070726f766572732073686f756c\n                /* \"#utility.yul\":10127:10128   */\n              0x00\n                /* \"#utility.yul\":10119:10125   */\n              dup3\n                /* \"#utility.yul\":10115:10129   */\n              add\n                /* \"#utility.yul\":10108:10166   */\n              mstore\n                /* \"#utility.yul\":10200:10223   */\n              0x6420616363657074207468697320726571756573740000000000000000000000\n                /* \"#utility.yul\":10195:10197   */\n              0x20\n                /* \"#utility.yul\":10187:10193   */\n              dup3\n                /* \"#utility.yul\":10183:10198   */\n              add\n                /* \"#utility.yul\":10176:10224   */\n              mstore\n                /* \"#utility.yul\":9991:10231   */\n              pop\n              jump\t// out\n                /* \"#utility.yul\":10237:10603   */\n            tag_140:\n                /* \"#utility.yul\":10379:10382   */\n              0x00\n                /* \"#utility.yul\":10400:10467   */\n              tag_262\n                /* \"#utility.yul\":10464:10466   */\n              0x35\n                /* \"#utility.yul\":10459:10462   */\n              dup4\n                /* \"#utility.yul\":10400:10467   */\n              tag_122\n              jump\t// in\n            tag_262:\n                /* \"#utility.yul\":10393:10467   */\n              swap2\n              pop\n                /* \"#utility.yul\":10476:10569   */\n              tag_263\n                /* \"#utility.yul\":10565:10568   */\n              dup3\n                /* \"#utility.yul\":10476:10569   */\n              tag_139\n              jump\t// in\n            tag_263:\n                /* \"#utility.yul\":10594:10596   */\n              0x40\n                /* \"#utility.yul\":10589:10592   */\n              dup3\n                /* \"#utility.yul\":10585:10597   */\n              add\n                /* \"#utility.yul\":10578:10597   */\n              swap1\n              pop\n                /* \"#utility.yul\":10237:10603   */\n              swap2\n              swap1\n              pop\n              jump\t// out\n                /* \"#utility.yul\":10609:11028   */\n            tag_63:\n                /* \"#utility.yul\":10775:10779   */\n              0x00\n                /* \"#utility.yul\":10813:10815   */\n              0x20\n                /* \"#utility.yul\":10802:10811   */\n              dup3\n                /* \"#utility.yul\":10798:10816   */\n              add\n                /* \"#utility.yul\":10790:10816   */\n              swap1\n              pop\n                /* \"#utility.yul\":10862:10871   */\n              dup2\n                /* \"#utility.yul\":10856:10860   */\n              dup2\n                /* \"#utility.yul\":10852:10872   */\n              sub\n                /* \"#utility.yul\":10848:10849   */\n              0x00\n                /* \"#utility.yul\":10837:10846   */\n              dup4\n                /* \"#utility.yul\":10833:10850   */\n              add\n                /* \"#utility.yul\":10826:10873   */\n              mstore\n                /* \"#utility.yul\":10890:11021   */\n              tag_265\n                /* \"#utility.yul\":11016:11020   */\n              dup2\n                /* \"#utility.yul\":10890:11021   */\n              tag_140\n              jump\t// in\n            tag_265:\n                /* \"#utility.yul\":10882:11021   */\n              swap1\n              pop\n                /* \"#utility.yul\":10609:11028   */\n              swap2\n              swap1\n              pop\n              jump\t// out\n                /* \"#utility.yul\":11034:11214   */\n            tag_141:\n                /* \"#utility.yul\":11082:11159   */\n              0x4e487b7100000000000000000000000000000000000000000000000000000000\n                /* \"#utility.yul\":11079:11080   */\n              0x00\n                /* \"#utility.yul\":11072:11160   */\n              mstore\n                /* \"#utility.yul\":11179:11183   */\n              0x22\n                /* \"#utility.yul\":11176:11177   */\n              0x04\n                /* \"#utility.yul\":11169:11184   */\n              mstore\n                /* \"#utility.yul\":11203:11207   */\n              0x24\n                /* \"#utility.yul\":11200:11201   */\n              0x00\n                /* \"#utility.yul\":11193:11208   */\n              revert\n                /* \"#utility.yul\":11220:11540   */\n            tag_69:\n                /* \"#utility.yul\":11264:11270   */\n              0x00\n                /* \"#utility.yul\":11301:11302   */\n              0x02\n                /* \"#utility.yul\":11295:11299   */\n              dup3\n                /* \"#utility.yul\":11291:11303   */\n              div\n                /* \"#utility.yul\":11281:11303   */\n              swap1\n              pop\n                /* \"#utility.yul\":11348:11349   */\n              0x01\n                /* \"#utility.yul\":11342:11346   */\n              dup3\n                /* \"#utility.yul\":11338:11350   */\n              and\n                /* \"#utility.yul\":11369:11387   */\n              dup1\n                /* \"#utility.yul\":11359:11440   */\n              tag_268\n              jumpi\n                /* \"#utility.yul\":11425:11429   */\n              0x7f\n                /* \"#utility.yul\":11417:11423   */\n              dup3\n                /* \"#utility.yul\":11413:11430   */\n              and\n                /* \"#utility.yul\":11403:11430   */\n              swap2\n              pop\n                /* \"#utility.yul\":11359:11440   */\n            tag_268:\n                /* \"#utility.yul\":11487:11489   */\n              0x20\n                /* \"#utility.yul\":11479:11485   */\n              dup3\n                /* \"#utility.yul\":11476:11490   */\n              lt\n                /* \"#utility.yul\":11456:11474   */\n              dup2\n                /* \"#utility.yul\":11453:11491   */\n              eq\n                /* \"#utility.yul\":11450:11534   */\n              iszero\n              tag_269\n              jumpi\n                /* \"#utility.yul\":11506:11524   */\n              tag_270\n              tag_141\n              jump\t// in\n            tag_270:\n                /* \"#utility.yul\":11450:11534   */\n            tag_269:\n                /* \"#utility.yul\":11271:11540   */\n              pop\n                /* \"#utility.yul\":11220:11540   */\n              swap2\n              swap1\n              pop\n              jump\t// out\n                /* \"#utility.yul\":11546:11779   */\n            tag_78:\n                /* \"#utility.yul\":11585:11588   */\n              0x00\n                /* \"#utility.yul\":11608:11632   */\n              tag_272\n                /* \"#utility.yul\":11626:11631   */\n              dup3\n                /* \"#utility.yul\":11608:11632   */\n              tag_110\n              jump\t// in\n            tag_272:\n                /* \"#utility.yul\":11599:11632   */\n              swap2\n              pop\n                /* \"#utility.yul\":11654:11720   */\n              0xffffffffffffffffffffffffffffffffffffffffffffffffffffffffffffffff\n                /* \"#utility.yul\":11647:11652   */\n              dup3\n                /* \"#utility.yul\":11644:11721   */\n              eq\n                /* \"#utility.yul\":11641:11744   */\n              iszero\n              tag_273\n              jumpi\n                /* \"#utility.yul\":11724:11742   */\n              tag_274\n              tag_138\n              jump\t// in\n            tag_274:\n                /* \"#utility.yul\":11641:11744   */\n            tag_273:\n                /* \"#utility.yul\":11771:11772   */\n              0x01\n                /* \"#utility.yul\":11764:11769   */\n              dup3\n                /* \"#utility.yul\":11760:11773   */\n              add\n                /* \"#utility.yul\":11753:11773   */\n              swap1\n              pop\n                /* \"#utility.yul\":11546:11779   */\n              swap2\n              swap1\n              pop\n              jump\t// out\n                /* \"#utility.yul\":11785:12007   */\n            tag_142:\n                /* \"#utility.yul\":11925:11959   */\n              0x506c6561736520746f7020757020746f206265636f6d6520616e20617070726f\n                /* \"#utility.yul\":11921:11922   */\n              0x00\n                /* \"#utility.yul\":11913:11919   */\n              dup3\n                /* \"#utility.yul\":11909:11923   */\n              add\n                /* \"#utility.yul\":11902:11960   */\n              mstore\n                /* \"#utility.yul\":11994:11999   */\n              0x7665720000000000000000000000000000000000000000000000000000000000\n                /* \"#utility.yul\":11989:11991   */\n              0x20\n                /* \"#utility.yul\":11981:11987   */\n              dup3\n                /* \"#utility.yul\":11977:11992   */\n              add\n                /* \"#utility.yul\":11970:12000   */\n              mstore\n                /* \"#utility.yul\":11785:12007   */\n              pop\n              jump\t// out\n                /* \"#utility.yul\":12013:12379   */\n            tag_143:\n                /* \"#utility.yul\":12155:12158   */\n              0x00\n                /* \"#utility.yul\":12176:12243   */\n              tag_277\n                /* \"#utility.yul\":12240:12242   */\n              0x23\n                /* \"#utility.yul\":12235:12238   */\n              dup4\n                /* \"#utility.yul\":12176:12243   */\n              tag_122\n              jump\t// in\n            tag_277:\n                /* \"#utility.yul\":12169:12243   */\n              swap2\n              pop\n                /* \"#utility.yul\":12252:12345   */\n              tag_278\n                /* \"#utility.yul\":12341:12344   */\n              dup3\n                /* \"#utility.yul\":12252:12345   */\n              tag_142\n              jump\t// in\n            tag_278:\n                /* \"#utility.yul\":12370:12372   */\n              0x40\n                /* \"#utility.yul\":12365:12368   */\n              dup3\n                /* \"#utility.yul\":12361:12373   */\n              add\n                /* \"#utility.yul\":12354:12373   */\n              swap1\n              pop\n                /* \"#utility.yul\":12013:12379   */\n              swap2\n              swap1\n              pop\n              jump\t// out\n                /* \"#utility.yul\":12385:12804   */\n            tag_84:\n                /* \"#utility.yul\":12551:12555   */\n              0x00\n                /* \"#utility.yul\":12589:12591   */\n              0x20\n                /* \"#utility.yul\":12578:12587   */\n              dup3\n                /* \"#utility.yul\":12574:12592   */\n              add\n                /* \"#utility.yul\":12566:12592   */\n              swap1\n              pop\n                /* \"#utility.yul\":12638:12647   */\n              dup2\n                /* \"#utility.yul\":12632:12636   */\n              dup2\n                /* \"#utility.yul\":12628:12648   */\n              sub\n                /* \"#utility.yul\":12624:12625   */\n              0x00\n                /* \"#utility.yul\":12613:12622   */\n              dup4\n                /* \"#utility.yul\":12609:12626   */\n              add\n                /* \"#utility.yul\":12602:12649   */\n              mstore\n                /* \"#utility.yul\":12666:12797   */\n              tag_280\n                /* \"#utility.yul\":12792:12796   */\n              dup2\n                /* \"#utility.yul\":12666:12797   */\n              tag_143\n              jump\t// in\n            tag_280:\n                /* \"#utility.yul\":12658:12797   */\n              swap1\n              pop\n                /* \"#utility.yul\":12385:12804   */\n              swap2\n              swap1\n              pop\n              jump\t// out\n                /* \"#utility.yul\":12810:12973   */\n            tag_144:\n                /* \"#utility.yul\":12950:12965   */\n              0x416c726561647920766f74656400000000000000000000000000000000000000\n                /* \"#utility.yul\":12946:12947   */\n              0x00\n                /* \"#utility.yul\":12938:12944   */\n              dup3\n                /* \"#utility.yul\":12934:12948   */\n              add\n                /* \"#utility.yul\":12927:12966   */\n              mstore\n                /* \"#utility.yul\":12810:12973   */\n              pop\n              jump\t// out\n                /* \"#utility.yul\":12979:13345   */\n            tag_145:\n                /* \"#utility.yul\":13121:13124   */\n              0x00\n                /* \"#utility.yul\":13142:13209   */\n              tag_283\n                /* \"#utility.yul\":13206:13208   */\n              0x0d\n                /* \"#utility.yul\":13201:13204   */\n              dup4\n                /* \"#utility.yul\":13142:13209   */\n              tag_122\n              jump\t// in\n            tag_283:\n                /* \"#utility.yul\":13135:13209   */\n              swap2\n              pop\n                /* \"#utility.yul\":13218:13311   */\n              tag_284\n                /* \"#utility.yul\":13307:13310   */\n              dup3\n                /* \"#utility.yul\":13218:13311   */\n              tag_144\n              jump\t// in\n            tag_284:\n                /* \"#utility.yul\":13336:13338   */\n              0x20\n                /* \"#utility.yul\":13331:13334   */\n              dup3\n                /* \"#utility.yul\":13327:13339   */\n              add\n                /* \"#utility.yul\":13320:13339   */\n              swap1\n              pop\n                /* \"#utility.yul\":12979:13345   */\n              swap2\n              swap1\n              pop\n              jump\t// out\n                /* \"#utility.yul\":13351:13770   */\n            tag_87:\n                /* \"#utility.yul\":13517:13521   */\n              0x00\n                /* \"#utility.yul\":13555:13557   */\n              0x20\n                /* \"#utility.yul\":13544:13553   */\n              dup3\n                /* \"#utility.yul\":13540:13558   */\n              add\n                /* \"#utility.yul\":13532:13558   */\n              swap1\n              pop\n                /* \"#utility.yul\":13604:13613   */\n              dup2\n                /* \"#utility.yul\":13598:13602   */\n              dup2\n                /* \"#utility.yul\":13594:13614   */\n              sub\n                /* \"#utility.yul\":13590:13591   */\n              0x00\n                /* \"#utility.yul\":13579:13588   */\n              dup4\n                /* \"#utility.yul\":13575:13592   */\n              add\n                /* \"#utility.yul\":13568:13615   */\n              mstore\n                /* \"#utility.yul\":13632:13763   */\n              tag_286\n                /* \"#utility.yul\":13758:13762   */\n              dup2\n                /* \"#utility.yul\":13632:13763   */\n              tag_145\n              jump\t// in\n            tag_286:\n                /* \"#utility.yul\":13624:13763   */\n              swap1\n              pop\n                /* \"#utility.yul\":13351:13770   */\n              swap2\n              swap1\n              pop\n              jump\t// out\n                /* \"#utility.yul\":13776:13956   */\n            tag_146:\n                /* \"#utility.yul\":13916:13948   */\n              0x536f7272792c20796f7520617265206e6f7420616e20617070726f7665720000\n                /* \"#utility.yul\":13912:13913   */\n              0x00\n                /* \"#utility.yul\":13904:13910   */\n              dup3\n                /* \"#utility.yul\":13900:13914   */\n              add\n                /* \"#utility.yul\":13893:13949   */\n              mstore\n                /* \"#utility.yul\":13776:13956   */\n              pop\n              jump\t// out\n                /* \"#utility.yul\":13962:14328   */\n            tag_147:\n                /* \"#utility.yul\":14104:14107   */\n              0x00\n                /* \"#utility.yul\":14125:14192   */\n              tag_289\n                /* \"#utility.yul\":14189:14191   */\n              0x1e\n                /* \"#utility.yul\":14184:14187   */\n              dup4\n                /* \"#utility.yul\":14125:14192   */\n              tag_122\n              jump\t// in\n            tag_289:\n                /* \"#utility.yul\":14118:14192   */\n              swap2\n              pop\n                /* \"#utility.yul\":14201:14294   */\n              tag_290\n                /* \"#utility.yul\":14290:14293   */\n              dup3\n                /* \"#utility.yul\":14201:14294   */\n              tag_146\n              jump\t// in\n            tag_290:\n                /* \"#utility.yul\":14319:14321   */\n              0x20\n                /* \"#utility.yul\":14314:14317   */\n              dup3\n                /* \"#utility.yul\":14310:14322   */\n              add\n                /* \"#utility.yul\":14303:14322   */\n              swap1\n              pop\n                /* \"#utility.yul\":13962:14328   */\n              swap2\n              swap1\n              pop\n              jump\t// out\n                /* \"#utility.yul\":14334:14753   */\n            tag_92:\n                /* \"#utility.yul\":14500:14504   */\n              0x00\n                /* \"#utility.yul\":14538:14540   */\n              0x20\n                /* \"#utility.yul\":14527:14536   */\n              dup3\n                /* \"#utility.yul\":14523:14541   */\n              add\n                /* \"#utility.yul\":14515:14541   */\n              swap1\n              pop\n                /* \"#utility.yul\":14587:14596   */\n              dup2\n                /* \"#utility.yul\":14581:14585   */\n              dup2\n                /* \"#utility.yul\":14577:14597   */\n              sub\n                /* \"#utility.yul\":14573:14574   */\n              0x00\n                /* \"#utility.yul\":14562:14571   */\n              dup4\n                /* \"#utility.yul\":14558:14575   */\n              add\n                /* \"#utility.yul\":14551:14598   */\n              mstore\n                /* \"#utility.yul\":14615:14746   */\n              tag_292\n                /* \"#utility.yul\":14741:14745   */\n              dup2\n                /* \"#utility.yul\":14615:14746   */\n              tag_147\n              jump\t// in\n            tag_292:\n                /* \"#utility.yul\":14607:14746   */\n              swap1\n              pop\n                /* \"#utility.yul\":14334:14753   */\n              swap2\n              swap1\n              pop\n              jump\t// out\n                /* \"#utility.yul\":14759:14984   */\n            tag_148:\n                /* \"#utility.yul\":14899:14933   */\n              0x596f75206861766520616c726561647920617070726f76656420746869732072\n                /* \"#utility.yul\":14895:14896   */\n              0x00\n                /* \"#utility.yul\":14887:14893   */\n              dup3\n                /* \"#utility.yul\":14883:14897   */\n              add\n                /* \"#utility.yul\":14876:14934   */\n              mstore\n                /* \"#utility.yul\":14968:14976   */\n              0x6571756573740000000000000000000000000000000000000000000000000000\n                /* \"#utility.yul\":14963:14965   */\n              0x20\n                /* \"#utility.yul\":14955:14961   */\n              dup3\n                /* \"#utility.yul\":14951:14966   */\n              add\n                /* \"#utility.yul\":14944:14977   */\n              mstore\n                /* \"#utility.yul\":14759:14984   */\n              pop\n              jump\t// out\n                /* \"#utility.yul\":14990:15356   */\n            tag_149:\n                /* \"#utility.yul\":15132:15135   */\n              0x00\n                /* \"#utility.yul\":15153:15220   */\n              tag_295\n                /* \"#utility.yul\":15217:15219   */\n              0x26\n                /* \"#utility.yul\":15212:15215   */\n              dup4\n                /* \"#utility.yul\":15153:15220   */\n              tag_122\n              jump\t// in\n            tag_295:\n                /* \"#utility.yul\":15146:15220   */\n              swap2\n              pop\n                /* \"#utility.yul\":15229:15322   */\n              tag_296\n                /* \"#utility.yul\":15318:15321   */\n              dup3\n                /* \"#utility.yul\":15229:15322   */\n              tag_148\n              jump\t// in\n            tag_296:\n                /* \"#utility.yul\":15347:15349   */\n              0x40\n                /* \"#utility.yul\":15342:15345   */\n              dup3\n                /* \"#utility.yul\":15338:15350   */\n              add\n                /* \"#utility.yul\":15331:15350   */\n              swap1\n              pop\n                /* \"#utility.yul\":14990:15356   */\n              swap2\n              swap1\n              pop\n              jump\t// out\n                /* \"#utility.yul\":15362:15781   */\n            tag_95:\n                /* \"#utility.yul\":15528:15532   */\n              0x00\n                /* \"#utility.yul\":15566:15568   */\n              0x20\n                /* \"#utility.yul\":15555:15564   */\n              dup3\n                /* \"#utility.yul\":15551:15569   */\n              add\n                /* \"#utility.yul\":15543:15569   */\n              swap1\n              pop\n                /* \"#utility.yul\":15615:15624   */\n              dup2\n                /* \"#utility.yul\":15609:15613   */\n              dup2\n                /* \"#utility.yul\":15605:15625   */\n              sub\n                /* \"#utility.yul\":15601:15602   */\n              0x00\n                /* \"#utility.yul\":15590:15599   */\n              dup4\n                /* \"#utility.yul\":15586:15603   */\n              add\n                /* \"#utility.yul\":15579:15626   */\n              mstore\n                /* \"#utility.yul\":15643:15774   */\n              tag_298\n                /* \"#utility.yul\":15769:15773   */\n              dup2\n                /* \"#utility.yul\":15643:15774   */\n              tag_149\n              jump\t// in\n            tag_298:\n                /* \"#utility.yul\":15635:15774   */\n              swap1\n              pop\n                /* \"#utility.yul\":15362:15781   */\n              swap2\n              swap1\n              pop\n              jump\t// out\n\n            auxdata: 0xa2646970667358221220abf4350a5cda748c83565dd8cc429d8cb3ea8c8817e95466b54999a4c5892f0d64736f6c634300080b0033\n        }\n    }\n\n    auxdata: 0xa2646970667358221220759000319aeedccb1ee0afaba2f35bb1cd000748de8d2d1b117b644d69197c7e64736f6c634300080b0033\n}\n","bytecode":{"linkReferences":{},"object":"608060405234801561001057600080fd5b50611952806100206000396000f3fe608060405234801561001057600080fd5b50600436106100415760003560e01c8063339d50a514610046578063a3303a7514610076578063a950fbc514610092575b600080fd5b610060600480360381019061005b9190610266565b6100b0565b60405161006d91906102d4565b60405180910390f35b610090600480360381019061008b9190610266565b6100ef565b005b61009a610190565b6040516100a791906103ad565b60405180910390f35b600081815481106100c057600080fd5b906000526020600020016000915054906101000a900473ffffffffffffffffffffffffffffffffffffffff1681565b600081336040516100ff9061021e565b61010a9291906103de565b604051809103906000f080158015610126573d6000803e3d6000fd5b5090506000819080600181540180825580915050600190039060005260206000200160009091909190916101000a81548173ffffffffffffffffffffffffffffffffffffffff021916908373ffffffffffffffffffffffffffffffffffffffff1602179055505050565b6060600080548060200260200160405190810160405280929190818152602001828054801561021457602002820191906000526020600020905b8160009054906101000a900473ffffffffffffffffffffffffffffffffffffffff1673ffffffffffffffffffffffffffffffffffffffff16815260200190600101908083116101ca575b5050505050905090565b6115158061040883390190565b600080fd5b6000819050919050565b61024381610230565b811461024e57600080fd5b50565b6000813590506102608161023a565b92915050565b60006020828403121561027c5761027b61022b565b5b600061028a84828501610251565b91505092915050565b600073ffffffffffffffffffffffffffffffffffffffff82169050919050565b60006102be82610293565b9050919050565b6102ce816102b3565b82525050565b60006020820190506102e960008301846102c5565b92915050565b600081519050919050565b600082825260208201905092915050565b6000819050602082019050919050565b610324816102b3565b82525050565b6000610336838361031b565b60208301905092915050565b6000602082019050919050565b600061035a826102ef565b61036481856102fa565b935061036f8361030b565b8060005b838110156103a0578151610387888261032a565b975061039283610342565b925050600181019050610373565b5085935050505092915050565b600060208201905081810360008301526103c7818461034f565b905092915050565b6103d881610230565b82525050565b60006040820190506103f360008301856103cf565b61040060208301846102c5565b939250505056fe60806040523480156200001157600080fd5b50604051620015153803806200151583398181016040528101906200003791906200012b565b806000806101000a81548173ffffffffffffffffffffffffffffffffffffffff021916908373ffffffffffffffffffffffffffffffffffffffff16021790555081600181905550505062000172565b600080fd5b6000819050919050565b620000a0816200008b565b8114620000ac57600080fd5b50565b600081519050620000c08162000095565b92915050565b600073ffffffffffffffffffffffffffffffffffffffff82169050919050565b6000620000f382620000c6565b9050919050565b6200010581620000e6565b81146200011157600080fd5b50565b6000815190506200012581620000fa565b92915050565b6000806040838503121562000145576200014462000086565b5b60006200015585828601620000af565b9250506020620001688582860162000114565b9150509250929050565b61139380620001826000396000f3fe6080604052600436106100865760003560e01c806381d12c581161005957806381d12c581461013e5780638a9cfd551461017f578063d7bb99ba1461019b578063d7d1bbdb146101a5578063f829a0eb146101ce57610086565b8063034410061461008b5780630a144391146100a75780633410452a146100e45780634051ddac1461010f575b600080fd5b6100a560048036038101906100a09190610ad8565b6101f9565b005b3480156100b357600080fd5b506100ce60048036038101906100c99190610b63565b6103e6565b6040516100db9190610bab565b60405180910390f35b3480156100f057600080fd5b506100f9610406565b6040516101069190610bd5565b60405180910390f35b34801561011b57600080fd5b50610124610410565b604051610135959493929190610bff565b60405180910390f35b34801561014a57600080fd5b5061016560048036038101906101609190610ad8565b610454565b604051610176959493929190610ceb565b60405180910390f35b61019960048036038101906101949190610e7a565b61053f565b005b6101a36106b0565b005b3480156101b157600080fd5b506101cc60048036038101906101c79190610ad8565b6107f9565b005b3480156101da57600080fd5b506101e36109c7565b6040516101f09190610ee9565b60405180910390f35b60008054906101000a900473ffffffffffffffffffffffffffffffffffffffff1673ffffffffffffffffffffffffffffffffffffffff163373ffffffffffffffffffffffffffffffffffffffff161461025157600080fd5b600015156004600083815260200190815260200160002060020160149054906101000a900460ff161515146102bb576040517f08c379a00000000000000000000000000000000000000000000000000000000081526004016102b290610f76565b60405180910390fd5b60026003546102ca9190610ff4565b600460008381526020019081526020016000206003015411610321576040517f08c379a000000000000000000000000000000000000000000000000000000000815260040161031890611097565b60405180910390fd5b60016004600083815260200190815260200160002060020160146101000a81548160ff0219169083151502179055506004600082815260200190815260200160002060020160009054906101000a900473ffffffffffffffffffffffffffffffffffffffff1673ffffffffffffffffffffffffffffffffffffffff166108fc60046000848152602001908152602001600020600101549081150290604051600060405180830381858888f193505050501580156103e2573d6000803e3d6000fd5b5050565b60026020528060005260406000206000915054906101000a900460ff1681565b6000600554905090565b60008060008060006001544760055460035460008054906101000a900473ffffffffffffffffffffffffffffffffffffffff16945094509450945094509091929394565b6004602052806000526040600020600091509050806000018054610477906110e6565b80601f01602080910402602001604051908101604052809291908181526020018280546104a3906110e6565b80156104f05780601f106104c5576101008083540402835291602001916104f0565b820191906000526020600020905b8154815290600101906020018083116104d357829003601f168201915b5050505050908060010154908060020160009054906101000a900473ffffffffffffffffffffffffffffffffffffffff16908060020160149054906101000a900460ff16908060030154905085565b60008054906101000a900473ffffffffffffffffffffffffffffffffffffffff1673ffffffffffffffffffffffffffffffffffffffff163373ffffffffffffffffffffffffffffffffffffffff161461059757600080fd5b600060046000600560008154809291906105b090611118565b9190505581526020019081526020016000209050838160000190805190602001906105dc9291906109eb565b50828160010181905550818160020160006101000a81548173ffffffffffffffffffffffffffffffffffffffff021916908373ffffffffffffffffffffffffffffffffffffffff16021790555060008160020160146101000a81548160ff0219169083151502179055506000816003018190555060008160040160003373ffffffffffffffffffffffffffffffffffffffff1673ffffffffffffffffffffffffffffffffffffffff16815260200190815260200160002060006101000a81548160ff02191690831515021790555050505050565b60015434116106f4576040517f08c379a00000000000000000000000000000000000000000000000000000000081526004016106eb906111d3565b60405180910390fd5b60001515600260003373ffffffffffffffffffffffffffffffffffffffff1673ffffffffffffffffffffffffffffffffffffffff16815260200190815260200160002060009054906101000a900460ff16151514610787576040517f08c379a000000000000000000000000000000000000000000000000000000000815260040161077e9061123f565b60405180910390fd5b6001600260003373ffffffffffffffffffffffffffffffffffffffff1673ffffffffffffffffffffffffffffffffffffffff16815260200190815260200160002060006101000a81548160ff021916908315150217905550600360008154809291906107f290611118565b9190505550565b600260003373ffffffffffffffffffffffffffffffffffffffff1673ffffffffffffffffffffffffffffffffffffffff16815260200190815260200160002060009054906101000a900460ff16610885576040517f08c379a000000000000000000000000000000000000000000000000000000000815260040161087c906112ab565b60405180910390fd5b600015156004600083815260200190815260200160002060040160003373ffffffffffffffffffffffffffffffffffffffff1673ffffffffffffffffffffffffffffffffffffffff16815260200190815260200160002060009054906101000a900460ff1615151461092c576040517f08c379a00000000000000000000000000000000000000000000000000000000081526004016109239061133d565b60405180910390fd5b60016004600083815260200190815260200160002060040160003373ffffffffffffffffffffffffffffffffffffffff1673ffffffffffffffffffffffffffffffffffffffff16815260200190815260200160002060006101000a81548160ff0219169083151502179055506004600082815260200190815260200160002060030160008154809291906109bf90611118565b919050555050565b60008054906101000a900473ffffffffffffffffffffffffffffffffffffffff1681565b8280546109f7906110e6565b90600052602060002090601f016020900481019282610a195760008555610a60565b82601f10610a3257805160ff1916838001178555610a60565b82800160010185558215610a60579182015b82811115610a5f578251825591602001919060010190610a44565b5b509050610a6d9190610a71565b5090565b5b80821115610a8a576000816000905550600101610a72565b5090565b6000604051905090565b600080fd5b600080fd5b6000819050919050565b610ab581610aa2565b8114610ac057600080fd5b50565b600081359050610ad281610aac565b92915050565b600060208284031215610aee57610aed610a98565b5b6000610afc84828501610ac3565b91505092915050565b600073ffffffffffffffffffffffffffffffffffffffff82169050919050565b6000610b3082610b05565b9050919050565b610b4081610b25565b8114610b4b57600080fd5b50565b600081359050610b5d81610b37565b92915050565b600060208284031215610b7957610b78610a98565b5b6000610b8784828501610b4e565b91505092915050565b60008115159050919050565b610ba581610b90565b82525050565b6000602082019050610bc06000830184610b9c565b92915050565b610bcf81610aa2565b82525050565b6000602082019050610bea6000830184610bc6565b92915050565b610bf981610b25565b82525050565b600060a082019050610c146000830188610bc6565b610c216020830187610bc6565b610c2e6040830186610bc6565b610c3b6060830185610bc6565b610c486080830184610bf0565b9695505050505050565b600081519050919050565b600082825260208201905092915050565b60005b83811015610c8c578082015181840152602081019050610c71565b83811115610c9b576000848401525b50505050565b6000601f19601f8301169050919050565b6000610cbd82610c52565b610cc78185610c5d565b9350610cd7818560208601610c6e565b610ce081610ca1565b840191505092915050565b600060a0820190508181036000830152610d058188610cb2565b9050610d146020830187610bc6565b610d216040830186610bf0565b610d2e6060830185610b9c565b610d3b6080830184610bc6565b9695505050505050565b600080fd5b600080fd5b7f4e487b7100000000000000000000000000000000000000000000000000000000600052604160045260246000fd5b610d8782610ca1565b810181811067ffffffffffffffff82111715610da657610da5610d4f565b5b80604052505050565b6000610db9610a8e565b9050610dc58282610d7e565b919050565b600067ffffffffffffffff821115610de557610de4610d4f565b5b610dee82610ca1565b9050602081019050919050565b82818337600083830152505050565b6000610e1d610e1884610dca565b610daf565b905082815260208101848484011115610e3957610e38610d4a565b5b610e44848285610dfb565b509392505050565b600082601f830112610e6157610e60610d45565b5b8135610e71848260208601610e0a565b91505092915050565b600080600060608486031215610e9357610e92610a98565b5b600084013567ffffffffffffffff811115610eb157610eb0610a9d565b5b610ebd86828701610e4c565b9350506020610ece86828701610ac3565b9250506040610edf86828701610b4e565b9150509250925092565b6000602082019050610efe6000830184610bf0565b92915050565b7f5468697320726571756573742068617320616c7265616479206265656e20636f60008201527f6d706c6574656400000000000000000000000000000000000000000000000000602082015250565b6000610f60602783610c5d565b9150610f6b82610f04565b604082019050919050565b60006020820190508181036000830152610f8f81610f53565b9050919050565b7f4e487b7100000000000000000000000000000000000000000000000000000000600052601260045260246000fd5b7f4e487b7100000000000000000000000000000000000000000000000000000000600052601160045260246000fd5b6000610fff82610aa2565b915061100a83610aa2565b92508261101a57611019610f96565b5b828204905092915050565b7f4174206c656173742068616c66206f6620617070726f766572732073686f756c60008201527f6420616363657074207468697320726571756573740000000000000000000000602082015250565b6000611081603583610c5d565b915061108c82611025565b604082019050919050565b600060208201905081810360008301526110b081611074565b9050919050565b7f4e487b7100000000000000000000000000000000000000000000000000000000600052602260045260246000fd5b600060028204905060018216806110fe57607f821691505b60208210811415611112576111116110b7565b5b50919050565b600061112382610aa2565b91507fffffffffffffffffffffffffffffffffffffffffffffffffffffffffffffffff82141561115657611155610fc5565b5b600182019050919050565b7f506c6561736520746f7020757020746f206265636f6d6520616e20617070726f60008201527f7665720000000000000000000000000000000000000000000000000000000000602082015250565b60006111bd602383610c5d565b91506111c882611161565b604082019050919050565b600060208201905081810360008301526111ec816111b0565b9050919050565b7f416c726561647920766f74656400000000000000000000000000000000000000600082015250565b6000611229600d83610c5d565b9150611234826111f3565b602082019050919050565b600060208201905081810360008301526112588161121c565b9050919050565b7f536f7272792c20796f7520617265206e6f7420616e20617070726f7665720000600082015250565b6000611295601e83610c5d565b91506112a08261125f565b602082019050919050565b600060208201905081810360008301526112c481611288565b9050919050565b7f596f75206861766520616c726561647920617070726f7665642074686973207260008201527f6571756573740000000000000000000000000000000000000000000000000000602082015250565b6000611327602683610c5d565b9150611332826112cb565b604082019050919050565b600060208201905081810360008301526113568161131a565b905091905056fea2646970667358221220abf4350a5cda748c83565dd8cc429d8cb3ea8c8817e95466b54999a4c5892f0d64736f6c634300080b0033a2646970667358221220759000319aeedccb1ee0afaba2f35bb1cd000748de8d2d1b117b644d69197c7e64736f6c634300080b0033","opcodes":"PUSH1 0x80 PUSH1 0x40 MSTORE CALLVALUE DUP1 ISZERO PUSH2 0x10 JUMPI PUSH1 0x0 DUP1 REVERT JUMPDEST POP PUSH2 0x1952 DUP1 PUSH2 0x20 PUSH1 0x0 CODECOPY PUSH1 0x0 RETURN INVALID PUSH1 0x80 PUSH1 0x40 MSTORE CALLVALUE DUP1 ISZERO PUSH2 0x10 JUMPI PUSH1 0x0 DUP1 REVERT JUMPDEST POP PUSH1 0x4 CALLDATASIZE LT PUSH2 0x41 JUMPI PUSH1 0x0 CALLDATALOAD PUSH1 0xE0 SHR DUP1 PUSH4 0x339D50A5 EQ PUSH2 0x46 JUMPI DUP1 PUSH4 0xA3303A75 EQ PUSH2 0x76 JUMPI DUP1 PUSH4 0xA950FBC5 EQ PUSH2 0x92 JUMPI JUMPDEST PUSH1 0x0 DUP1 REVERT JUMPDEST PUSH2 0x60 PUSH1 0x4 DUP1 CALLDATASIZE SUB DUP2 ADD SWAP1 PUSH2 0x5B SWAP2 SWAP1 PUSH2 0x266 JUMP JUMPDEST PUSH2 0xB0 JUMP JUMPDEST PUSH1 0x40 MLOAD PUSH2 0x6D SWAP2 SWAP1 PUSH2 0x2D4 JUMP JUMPDEST PUSH1 0x40 MLOAD DUP1 SWAP2 SUB SWAP1 RETURN JUMPDEST PUSH2 0x90 PUSH1 0x4 DUP1 CALLDATASIZE SUB DUP2 ADD SWAP1 PUSH2 0x8B SWAP2 SWAP1 PUSH2 0x266 JUMP JUMPDEST PUSH2 0xEF JUMP JUMPDEST STOP JUMPDEST PUSH2 0x9A PUSH2 0x190 JUMP JUMPDEST PUSH1 0x40 MLOAD PUSH2 0xA7 SWAP2 SWAP1 PUSH2 0x3AD JUMP JUMPDEST PUSH1 0x40 MLOAD DUP1 SWAP2 SUB SWAP1 RETURN JUMPDEST PUSH1 0x0 DUP2 DUP2 SLOAD DUP2 LT PUSH2 0xC0 JUMPI PUSH1 0x0 DUP1 REVERT JUMPDEST SWAP1 PUSH1 0x0 MSTORE PUSH1 0x20 PUSH1 0x0 KECCAK256 ADD PUSH1 0x0 SWAP2 POP SLOAD SWAP1 PUSH2 0x100 EXP SWAP1 DIV PUSH20 0xFFFFFFFFFFFFFFFFFFFFFFFFFFFFFFFFFFFFFFFF AND DUP2 JUMP JUMPDEST PUSH1 0x0 DUP2 CALLER PUSH1 0x40 MLOAD PUSH2 0xFF SWAP1 PUSH2 0x21E JUMP JUMPDEST PUSH2 0x10A SWAP3 SWAP2 SWAP1 PUSH2 0x3DE JUMP JUMPDEST PUSH1 0x40 MLOAD DUP1 SWAP2 SUB SWAP1 PUSH1 0x0 CREATE DUP1 ISZERO DUP1 ISZERO PUSH2 0x126 JUMPI RETURNDATASIZE PUSH1 0x0 DUP1 RETURNDATACOPY RETURNDATASIZE PUSH1 0x0 REVERT JUMPDEST POP SWAP1 POP PUSH1 0x0 DUP2 SWAP1 DUP1 PUSH1 0x1 DUP2 SLOAD ADD DUP1 DUP3 SSTORE DUP1 SWAP2 POP POP PUSH1 0x1 SWAP1 SUB SWAP1 PUSH1 0x0 MSTORE PUSH1 0x20 PUSH1 0x0 KECCAK256 ADD PUSH1 0x0 SWAP1 SWAP2 SWAP1 SWAP2 SWAP1 SWAP2 PUSH2 0x100 EXP DUP2 SLOAD DUP2 PUSH20 0xFFFFFFFFFFFFFFFFFFFFFFFFFFFFFFFFFFFFFFFF MUL NOT AND SWAP1 DUP4 PUSH20 0xFFFFFFFFFFFFFFFFFFFFFFFFFFFFFFFFFFFFFFFF AND MUL OR SWAP1 SSTORE POP POP POP JUMP JUMPDEST PUSH1 0x60 PUSH1 0x0 DUP1 SLOAD DUP1 PUSH1 0x20 MUL PUSH1 0x20 ADD PUSH1 0x40 MLOAD SWAP1 DUP2 ADD PUSH1 0x40 MSTORE DUP1 SWAP3 SWAP2 SWAP1 DUP2 DUP2 MSTORE PUSH1 0x20 ADD DUP3 DUP1 SLOAD DUP1 ISZERO PUSH2 0x214 JUMPI PUSH1 0x20 MUL DUP3 ADD SWAP2 SWAP1 PUSH1 0x0 MSTORE PUSH1 0x20 PUSH1 0x0 KECCAK256 SWAP1 JUMPDEST DUP2 PUSH1 0x0 SWAP1 SLOAD SWAP1 PUSH2 0x100 EXP SWAP1 DIV PUSH20 0xFFFFFFFFFFFFFFFFFFFFFFFFFFFFFFFFFFFFFFFF AND PUSH20 0xFFFFFFFFFFFFFFFFFFFFFFFFFFFFFFFFFFFFFFFF AND DUP2 MSTORE PUSH1 0x20 ADD SWAP1 PUSH1 0x1 ADD SWAP1 DUP1 DUP4 GT PUSH2 0x1CA JUMPI JUMPDEST POP POP POP POP POP SWAP1 POP SWAP1 JUMP JUMPDEST PUSH2 0x1515 DUP1 PUSH2 0x408 DUP4 CODECOPY ADD SWAP1 JUMP JUMPDEST PUSH1 0x0 DUP1 REVERT JUMPDEST PUSH1 0x0 DUP2 SWAP1 POP SWAP2 SWAP1 POP JUMP JUMPDEST PUSH2 0x243 DUP2 PUSH2 0x230 JUMP JUMPDEST DUP2 EQ PUSH2 0x24E JUMPI PUSH1 0x0 DUP1 REVERT JUMPDEST POP JUMP JUMPDEST PUSH1 0x0 DUP2 CALLDATALOAD SWAP1 POP PUSH2 0x260 DUP2 PUSH2 0x23A JUMP JUMPDEST SWAP3 SWAP2 POP POP JUMP JUMPDEST PUSH1 0x0 PUSH1 0x20 DUP3 DUP5 SUB SLT ISZERO PUSH2 0x27C JUMPI PUSH2 0x27B PUSH2 0x22B JUMP JUMPDEST JUMPDEST PUSH1 0x0 PUSH2 0x28A DUP5 DUP3 DUP6 ADD PUSH2 0x251 JUMP JUMPDEST SWAP2 POP POP SWAP3 SWAP2 POP POP JUMP JUMPDEST PUSH1 0x0 PUSH20 0xFFFFFFFFFFFFFFFFFFFFFFFFFFFFFFFFFFFFFFFF DUP3 AND SWAP1 POP SWAP2 SWAP1 POP JUMP JUMPDEST PUSH1 0x0 PUSH2 0x2BE DUP3 PUSH2 0x293 JUMP JUMPDEST SWAP1 POP SWAP2 SWAP1 POP JUMP JUMPDEST PUSH2 0x2CE DUP2 PUSH2 0x2B3 JUMP JUMPDEST DUP3 MSTORE POP POP JUMP JUMPDEST PUSH1 0x0 PUSH1 0x20 DUP3 ADD SWAP1 POP PUSH2 0x2E9 PUSH1 0x0 DUP4 ADD DUP5 PUSH2 0x2C5 JUMP JUMPDEST SWAP3 SWAP2 POP POP JUMP JUMPDEST PUSH1 0x0 DUP2 MLOAD SWAP1 POP SWAP2 SWAP1 POP JUMP JUMPDEST PUSH1 0x0 DUP3 DUP3 MSTORE PUSH1 0x20 DUP3 ADD SWAP1 POP SWAP3 SWAP2 POP POP JUMP JUMPDEST PUSH1 0x0 DUP2 SWAP1 POP PUSH1 0x20 DUP3 ADD SWAP1 POP SWAP2 SWAP1 POP JUMP JUMPDEST PUSH2 0x324 DUP2 PUSH2 0x2B3 JUMP JUMPDEST DUP3 MSTORE POP POP JUMP JUMPDEST PUSH1 0x0 PUSH2 0x336 DUP4 DUP4 PUSH2 0x31B JUMP JUMPDEST PUSH1 0x20 DUP4 ADD SWAP1 POP SWAP3 SWAP2 POP POP JUMP JUMPDEST PUSH1 0x0 PUSH1 0x20 DUP3 ADD SWAP1 POP SWAP2 SWAP1 POP JUMP JUMPDEST PUSH1 0x0 PUSH2 0x35A DUP3 PUSH2 0x2EF JUMP JUMPDEST PUSH2 0x364 DUP2 DUP6 PUSH2 0x2FA JUMP JUMPDEST SWAP4 POP PUSH2 0x36F DUP4 PUSH2 0x30B JUMP JUMPDEST DUP1 PUSH1 0x0 JUMPDEST DUP4 DUP2 LT ISZERO PUSH2 0x3A0 JUMPI DUP2 MLOAD PUSH2 0x387 DUP9 DUP3 PUSH2 0x32A JUMP JUMPDEST SWAP8 POP PUSH2 0x392 DUP4 PUSH2 0x342 JUMP JUMPDEST SWAP3 POP POP PUSH1 0x1 DUP2 ADD SWAP1 POP PUSH2 0x373 JUMP JUMPDEST POP DUP6 SWAP4 POP POP POP POP SWAP3 SWAP2 POP POP JUMP JUMPDEST PUSH1 0x0 PUSH1 0x20 DUP3 ADD SWAP1 POP DUP2 DUP2 SUB PUSH1 0x0 DUP4 ADD MSTORE PUSH2 0x3C7 DUP2 DUP5 PUSH2 0x34F JUMP JUMPDEST SWAP1 POP SWAP3 SWAP2 POP POP JUMP JUMPDEST PUSH2 0x3D8 DUP2 PUSH2 0x230 JUMP JUMPDEST DUP3 MSTORE POP POP JUMP JUMPDEST PUSH1 0x0 PUSH1 0x40 DUP3 ADD SWAP1 POP PUSH2 0x3F3 PUSH1 0x0 DUP4 ADD DUP6 PUSH2 0x3CF JUMP JUMPDEST PUSH2 0x400 PUSH1 0x20 DUP4 ADD DUP5 PUSH2 0x2C5 JUMP JUMPDEST SWAP4 SWAP3 POP POP POP JUMP INVALID PUSH1 0x80 PUSH1 0x40 MSTORE CALLVALUE DUP1 ISZERO PUSH3 0x11 JUMPI PUSH1 0x0 DUP1 REVERT JUMPDEST POP PUSH1 0x40 MLOAD PUSH3 0x1515 CODESIZE SUB DUP1 PUSH3 0x1515 DUP4 CODECOPY DUP2 DUP2 ADD PUSH1 0x40 MSTORE DUP2 ADD SWAP1 PUSH3 0x37 SWAP2 SWAP1 PUSH3 0x12B JUMP JUMPDEST DUP1 PUSH1 0x0 DUP1 PUSH2 0x100 EXP DUP2 SLOAD DUP2 PUSH20 0xFFFFFFFFFFFFFFFFFFFFFFFFFFFFFFFFFFFFFFFF MUL NOT AND SWAP1 DUP4 PUSH20 0xFFFFFFFFFFFFFFFFFFFFFFFFFFFFFFFFFFFFFFFF AND MUL OR SWAP1 SSTORE POP DUP2 PUSH1 0x1 DUP2 SWAP1 SSTORE POP POP POP PUSH3 0x172 JUMP JUMPDEST PUSH1 0x0 DUP1 REVERT JUMPDEST PUSH1 0x0 DUP2 SWAP1 POP SWAP2 SWAP1 POP JUMP JUMPDEST PUSH3 0xA0 DUP2 PUSH3 0x8B JUMP JUMPDEST DUP2 EQ PUSH3 0xAC JUMPI PUSH1 0x0 DUP1 REVERT JUMPDEST POP JUMP JUMPDEST PUSH1 0x0 DUP2 MLOAD SWAP1 POP PUSH3 0xC0 DUP2 PUSH3 0x95 JUMP JUMPDEST SWAP3 SWAP2 POP POP JUMP JUMPDEST PUSH1 0x0 PUSH20 0xFFFFFFFFFFFFFFFFFFFFFFFFFFFFFFFFFFFFFFFF DUP3 AND SWAP1 POP SWAP2 SWAP1 POP JUMP JUMPDEST PUSH1 0x0 PUSH3 0xF3 DUP3 PUSH3 0xC6 JUMP JUMPDEST SWAP1 POP SWAP2 SWAP1 POP JUMP JUMPDEST PUSH3 0x105 DUP2 PUSH3 0xE6 JUMP JUMPDEST DUP2 EQ PUSH3 0x111 JUMPI PUSH1 0x0 DUP1 REVERT JUMPDEST POP JUMP JUMPDEST PUSH1 0x0 DUP2 MLOAD SWAP1 POP PUSH3 0x125 DUP2 PUSH3 0xFA JUMP JUMPDEST SWAP3 SWAP2 POP POP JUMP JUMPDEST PUSH1 0x0 DUP1 PUSH1 0x40 DUP4 DUP6 SUB SLT ISZERO PUSH3 0x145 JUMPI PUSH3 0x144 PUSH3 0x86 JUMP JUMPDEST JUMPDEST PUSH1 0x0 PUSH3 0x155 DUP6 DUP3 DUP7 ADD PUSH3 0xAF JUMP JUMPDEST SWAP3 POP POP PUSH1 0x20 PUSH3 0x168 DUP6 DUP3 DUP7 ADD PUSH3 0x114 JUMP JUMPDEST SWAP2 POP POP SWAP3 POP SWAP3 SWAP1 POP JUMP JUMPDEST PUSH2 0x1393 DUP1 PUSH3 0x182 PUSH1 0x0 CODECOPY PUSH1 0x0 RETURN INVALID PUSH1 0x80 PUSH1 0x40 MSTORE PUSH1 0x4 CALLDATASIZE LT PUSH2 0x86 JUMPI PUSH1 0x0 CALLDATALOAD PUSH1 0xE0 SHR DUP1 PUSH4 0x81D12C58 GT PUSH2 0x59 JUMPI DUP1 PUSH4 0x81D12C58 EQ PUSH2 0x13E JUMPI DUP1 PUSH4 0x8A9CFD55 EQ PUSH2 0x17F JUMPI DUP1 PUSH4 0xD7BB99BA EQ PUSH2 0x19B JUMPI DUP1 PUSH4 0xD7D1BBDB EQ PUSH2 0x1A5 JUMPI DUP1 PUSH4 0xF829A0EB EQ PUSH2 0x1CE JUMPI PUSH2 0x86 JUMP JUMPDEST DUP1 PUSH4 0x3441006 EQ PUSH2 0x8B JUMPI DUP1 PUSH4 0xA144391 EQ PUSH2 0xA7 JUMPI DUP1 PUSH4 0x3410452A EQ PUSH2 0xE4 JUMPI DUP1 PUSH4 0x4051DDAC EQ PUSH2 0x10F JUMPI JUMPDEST PUSH1 0x0 DUP1 REVERT JUMPDEST PUSH2 0xA5 PUSH1 0x4 DUP1 CALLDATASIZE SUB DUP2 ADD SWAP1 PUSH2 0xA0 SWAP2 SWAP1 PUSH2 0xAD8 JUMP JUMPDEST PUSH2 0x1F9 JUMP JUMPDEST STOP JUMPDEST CALLVALUE DUP1 ISZERO PUSH2 0xB3 JUMPI PUSH1 0x0 DUP1 REVERT JUMPDEST POP PUSH2 0xCE PUSH1 0x4 DUP1 CALLDATASIZE SUB DUP2 ADD SWAP1 PUSH2 0xC9 SWAP2 SWAP1 PUSH2 0xB63 JUMP JUMPDEST PUSH2 0x3E6 JUMP JUMPDEST PUSH1 0x40 MLOAD PUSH2 0xDB SWAP2 SWAP1 PUSH2 0xBAB JUMP JUMPDEST PUSH1 0x40 MLOAD DUP1 SWAP2 SUB SWAP1 RETURN JUMPDEST CALLVALUE DUP1 ISZERO PUSH2 0xF0 JUMPI PUSH1 0x0 DUP1 REVERT JUMPDEST POP PUSH2 0xF9 PUSH2 0x406 JUMP JUMPDEST PUSH1 0x40 MLOAD PUSH2 0x106 SWAP2 SWAP1 PUSH2 0xBD5 JUMP JUMPDEST PUSH1 0x40 MLOAD DUP1 SWAP2 SUB SWAP1 RETURN JUMPDEST CALLVALUE DUP1 ISZERO PUSH2 0x11B JUMPI PUSH1 0x0 DUP1 REVERT JUMPDEST POP PUSH2 0x124 PUSH2 0x410 JUMP JUMPDEST PUSH1 0x40 MLOAD PUSH2 0x135 SWAP6 SWAP5 SWAP4 SWAP3 SWAP2 SWAP1 PUSH2 0xBFF JUMP JUMPDEST PUSH1 0x40 MLOAD DUP1 SWAP2 SUB SWAP1 RETURN JUMPDEST CALLVALUE DUP1 ISZERO PUSH2 0x14A JUMPI PUSH1 0x0 DUP1 REVERT JUMPDEST POP PUSH2 0x165 PUSH1 0x4 DUP1 CALLDATASIZE SUB DUP2 ADD SWAP1 PUSH2 0x160 SWAP2 SWAP1 PUSH2 0xAD8 JUMP JUMPDEST PUSH2 0x454 JUMP JUMPDEST PUSH1 0x40 MLOAD PUSH2 0x176 SWAP6 SWAP5 SWAP4 SWAP3 SWAP2 SWAP1 PUSH2 0xCEB JUMP JUMPDEST PUSH1 0x40 MLOAD DUP1 SWAP2 SUB SWAP1 RETURN JUMPDEST PUSH2 0x199 PUSH1 0x4 DUP1 CALLDATASIZE SUB DUP2 ADD SWAP1 PUSH2 0x194 SWAP2 SWAP1 PUSH2 0xE7A JUMP JUMPDEST PUSH2 0x53F JUMP JUMPDEST STOP JUMPDEST PUSH2 0x1A3 PUSH2 0x6B0 JUMP JUMPDEST STOP JUMPDEST CALLVALUE DUP1 ISZERO PUSH2 0x1B1 JUMPI PUSH1 0x0 DUP1 REVERT JUMPDEST POP PUSH2 0x1CC PUSH1 0x4 DUP1 CALLDATASIZE SUB DUP2 ADD SWAP1 PUSH2 0x1C7 SWAP2 SWAP1 PUSH2 0xAD8 JUMP JUMPDEST PUSH2 0x7F9 JUMP JUMPDEST STOP JUMPDEST CALLVALUE DUP1 ISZERO PUSH2 0x1DA JUMPI PUSH1 0x0 DUP1 REVERT JUMPDEST POP PUSH2 0x1E3 PUSH2 0x9C7 JUMP JUMPDEST PUSH1 0x40 MLOAD PUSH2 0x1F0 SWAP2 SWAP1 PUSH2 0xEE9 JUMP JUMPDEST PUSH1 0x40 MLOAD DUP1 SWAP2 SUB SWAP1 RETURN JUMPDEST PUSH1 0x0 DUP1 SLOAD SWAP1 PUSH2 0x100 EXP SWAP1 DIV PUSH20 0xFFFFFFFFFFFFFFFFFFFFFFFFFFFFFFFFFFFFFFFF AND PUSH20 0xFFFFFFFFFFFFFFFFFFFFFFFFFFFFFFFFFFFFFFFF AND CALLER PUSH20 0xFFFFFFFFFFFFFFFFFFFFFFFFFFFFFFFFFFFFFFFF AND EQ PUSH2 0x251 JUMPI PUSH1 0x0 DUP1 REVERT JUMPDEST PUSH1 0x0 ISZERO ISZERO PUSH1 0x4 PUSH1 0x0 DUP4 DUP2 MSTORE PUSH1 0x20 ADD SWAP1 DUP2 MSTORE PUSH1 0x20 ADD PUSH1 0x0 KECCAK256 PUSH1 0x2 ADD PUSH1 0x14 SWAP1 SLOAD SWAP1 PUSH2 0x100 EXP SWAP1 DIV PUSH1 0xFF AND ISZERO ISZERO EQ PUSH2 0x2BB JUMPI PUSH1 0x40 MLOAD PUSH32 0x8C379A000000000000000000000000000000000000000000000000000000000 DUP2 MSTORE PUSH1 0x4 ADD PUSH2 0x2B2 SWAP1 PUSH2 0xF76 JUMP JUMPDEST PUSH1 0x40 MLOAD DUP1 SWAP2 SUB SWAP1 REVERT JUMPDEST PUSH1 0x2 PUSH1 0x3 SLOAD PUSH2 0x2CA SWAP2 SWAP1 PUSH2 0xFF4 JUMP JUMPDEST PUSH1 0x4 PUSH1 0x0 DUP4 DUP2 MSTORE PUSH1 0x20 ADD SWAP1 DUP2 MSTORE PUSH1 0x20 ADD PUSH1 0x0 KECCAK256 PUSH1 0x3 ADD SLOAD GT PUSH2 0x321 JUMPI PUSH1 0x40 MLOAD PUSH32 0x8C379A000000000000000000000000000000000000000000000000000000000 DUP2 MSTORE PUSH1 0x4 ADD PUSH2 0x318 SWAP1 PUSH2 0x1097 JUMP JUMPDEST PUSH1 0x40 MLOAD DUP1 SWAP2 SUB SWAP1 REVERT JUMPDEST PUSH1 0x1 PUSH1 0x4 PUSH1 0x0 DUP4 DUP2 MSTORE PUSH1 0x20 ADD SWAP1 DUP2 MSTORE PUSH1 0x20 ADD PUSH1 0x0 KECCAK256 PUSH1 0x2 ADD PUSH1 0x14 PUSH2 0x100 EXP DUP2 SLOAD DUP2 PUSH1 0xFF MUL NOT AND SWAP1 DUP4 ISZERO ISZERO MUL OR SWAP1 SSTORE POP PUSH1 0x4 PUSH1 0x0 DUP3 DUP2 MSTORE PUSH1 0x20 ADD SWAP1 DUP2 MSTORE PUSH1 0x20 ADD PUSH1 0x0 KECCAK256 PUSH1 0x2 ADD PUSH1 0x0 SWAP1 SLOAD SWAP1 PUSH2 0x100 EXP SWAP1 DIV PUSH20 0xFFFFFFFFFFFFFFFFFFFFFFFFFFFFFFFFFFFFFFFF AND PUSH20 0xFFFFFFFFFFFFFFFFFFFFFFFFFFFFFFFFFFFFFFFF AND PUSH2 0x8FC PUSH1 0x4 PUSH1 0x0 DUP5 DUP2 MSTORE PUSH1 0x20 ADD SWAP1 DUP2 MSTORE PUSH1 0x20 ADD PUSH1 0x0 KECCAK256 PUSH1 0x1 ADD SLOAD SWAP1 DUP2 ISZERO MUL SWAP1 PUSH1 0x40 MLOAD PUSH1 0x0 PUSH1 0x40 MLOAD DUP1 DUP4 SUB DUP2 DUP6 DUP9 DUP9 CALL SWAP4 POP POP POP POP ISZERO DUP1 ISZERO PUSH2 0x3E2 JUMPI RETURNDATASIZE PUSH1 0x0 DUP1 RETURNDATACOPY RETURNDATASIZE PUSH1 0x0 REVERT JUMPDEST POP POP JUMP JUMPDEST PUSH1 0x2 PUSH1 0x20 MSTORE DUP1 PUSH1 0x0 MSTORE PUSH1 0x40 PUSH1 0x0 KECCAK256 PUSH1 0x0 SWAP2 POP SLOAD SWAP1 PUSH2 0x100 EXP SWAP1 DIV PUSH1 0xFF AND DUP2 JUMP JUMPDEST PUSH1 0x0 PUSH1 0x5 SLOAD SWAP1 POP SWAP1 JUMP JUMPDEST PUSH1 0x0 DUP1 PUSH1 0x0 DUP1 PUSH1 0x0 PUSH1 0x1 SLOAD SELFBALANCE PUSH1 0x5 SLOAD PUSH1 0x3 SLOAD PUSH1 0x0 DUP1 SLOAD SWAP1 PUSH2 0x100 EXP SWAP1 DIV PUSH20 0xFFFFFFFFFFFFFFFFFFFFFFFFFFFFFFFFFFFFFFFF AND SWAP5 POP SWAP5 POP SWAP5 POP SWAP5 POP SWAP5 POP SWAP1 SWAP2 SWAP3 SWAP4 SWAP5 JUMP JUMPDEST PUSH1 0x4 PUSH1 0x20 MSTORE DUP1 PUSH1 0x0 MSTORE PUSH1 0x40 PUSH1 0x0 KECCAK256 PUSH1 0x0 SWAP2 POP SWAP1 POP DUP1 PUSH1 0x0 ADD DUP1 SLOAD PUSH2 0x477 SWAP1 PUSH2 0x10E6 JUMP JUMPDEST DUP1 PUSH1 0x1F ADD PUSH1 0x20 DUP1 SWAP2 DIV MUL PUSH1 0x20 ADD PUSH1 0x40 MLOAD SWAP1 DUP2 ADD PUSH1 0x40 MSTORE DUP1 SWAP3 SWAP2 SWAP1 DUP2 DUP2 MSTORE PUSH1 0x20 ADD DUP3 DUP1 SLOAD PUSH2 0x4A3 SWAP1 PUSH2 0x10E6 JUMP JUMPDEST DUP1 ISZERO PUSH2 0x4F0 JUMPI DUP1 PUSH1 0x1F LT PUSH2 0x4C5 JUMPI PUSH2 0x100 DUP1 DUP4 SLOAD DIV MUL DUP4 MSTORE SWAP2 PUSH1 0x20 ADD SWAP2 PUSH2 0x4F0 JUMP JUMPDEST DUP3 ADD SWAP2 SWAP1 PUSH1 0x0 MSTORE PUSH1 0x20 PUSH1 0x0 KECCAK256 SWAP1 JUMPDEST DUP2 SLOAD DUP2 MSTORE SWAP1 PUSH1 0x1 ADD SWAP1 PUSH1 0x20 ADD DUP1 DUP4 GT PUSH2 0x4D3 JUMPI DUP3 SWAP1 SUB PUSH1 0x1F AND DUP3 ADD SWAP2 JUMPDEST POP POP POP POP POP SWAP1 DUP1 PUSH1 0x1 ADD SLOAD SWAP1 DUP1 PUSH1 0x2 ADD PUSH1 0x0 SWAP1 SLOAD SWAP1 PUSH2 0x100 EXP SWAP1 DIV PUSH20 0xFFFFFFFFFFFFFFFFFFFFFFFFFFFFFFFFFFFFFFFF AND SWAP1 DUP1 PUSH1 0x2 ADD PUSH1 0x14 SWAP1 SLOAD SWAP1 PUSH2 0x100 EXP SWAP1 DIV PUSH1 0xFF AND SWAP1 DUP1 PUSH1 0x3 ADD SLOAD SWAP1 POP DUP6 JUMP JUMPDEST PUSH1 0x0 DUP1 SLOAD SWAP1 PUSH2 0x100 EXP SWAP1 DIV PUSH20 0xFFFFFFFFFFFFFFFFFFFFFFFFFFFFFFFFFFFFFFFF AND PUSH20 0xFFFFFFFFFFFFFFFFFFFFFFFFFFFFFFFFFFFFFFFF AND CALLER PUSH20 0xFFFFFFFFFFFFFFFFFFFFFFFFFFFFFFFFFFFFFFFF AND EQ PUSH2 0x597 JUMPI PUSH1 0x0 DUP1 REVERT JUMPDEST PUSH1 0x0 PUSH1 0x4 PUSH1 0x0 PUSH1 0x5 PUSH1 0x0 DUP2 SLOAD DUP1 SWAP3 SWAP2 SWAP1 PUSH2 0x5B0 SWAP1 PUSH2 0x1118 JUMP JUMPDEST SWAP2 SWAP1 POP SSTORE DUP2 MSTORE PUSH1 0x20 ADD SWAP1 DUP2 MSTORE PUSH1 0x20 ADD PUSH1 0x0 KECCAK256 SWAP1 POP DUP4 DUP2 PUSH1 0x0 ADD SWAP1 DUP1 MLOAD SWAP1 PUSH1 0x20 ADD SWAP1 PUSH2 0x5DC SWAP3 SWAP2 SWAP1 PUSH2 0x9EB JUMP JUMPDEST POP DUP3 DUP2 PUSH1 0x1 ADD DUP2 SWAP1 SSTORE POP DUP2 DUP2 PUSH1 0x2 ADD PUSH1 0x0 PUSH2 0x100 EXP DUP2 SLOAD DUP2 PUSH20 0xFFFFFFFFFFFFFFFFFFFFFFFFFFFFFFFFFFFFFFFF MUL NOT AND SWAP1 DUP4 PUSH20 0xFFFFFFFFFFFFFFFFFFFFFFFFFFFFFFFFFFFFFFFF AND MUL OR SWAP1 SSTORE POP PUSH1 0x0 DUP2 PUSH1 0x2 ADD PUSH1 0x14 PUSH2 0x100 EXP DUP2 SLOAD DUP2 PUSH1 0xFF MUL NOT AND SWAP1 DUP4 ISZERO ISZERO MUL OR SWAP1 SSTORE POP PUSH1 0x0 DUP2 PUSH1 0x3 ADD DUP2 SWAP1 SSTORE POP PUSH1 0x0 DUP2 PUSH1 0x4 ADD PUSH1 0x0 CALLER PUSH20 0xFFFFFFFFFFFFFFFFFFFFFFFFFFFFFFFFFFFFFFFF AND PUSH20 0xFFFFFFFFFFFFFFFFFFFFFFFFFFFFFFFFFFFFFFFF AND DUP2 MSTORE PUSH1 0x20 ADD SWAP1 DUP2 MSTORE PUSH1 0x20 ADD PUSH1 0x0 KECCAK256 PUSH1 0x0 PUSH2 0x100 EXP DUP2 SLOAD DUP2 PUSH1 0xFF MUL NOT AND SWAP1 DUP4 ISZERO ISZERO MUL OR SWAP1 SSTORE POP POP POP POP POP JUMP JUMPDEST PUSH1 0x1 SLOAD CALLVALUE GT PUSH2 0x6F4 JUMPI PUSH1 0x40 MLOAD PUSH32 0x8C379A000000000000000000000000000000000000000000000000000000000 DUP2 MSTORE PUSH1 0x4 ADD PUSH2 0x6EB SWAP1 PUSH2 0x11D3 JUMP JUMPDEST PUSH1 0x40 MLOAD DUP1 SWAP2 SUB SWAP1 REVERT JUMPDEST PUSH1 0x0 ISZERO ISZERO PUSH1 0x2 PUSH1 0x0 CALLER PUSH20 0xFFFFFFFFFFFFFFFFFFFFFFFFFFFFFFFFFFFFFFFF AND PUSH20 0xFFFFFFFFFFFFFFFFFFFFFFFFFFFFFFFFFFFFFFFF AND DUP2 MSTORE PUSH1 0x20 ADD SWAP1 DUP2 MSTORE PUSH1 0x20 ADD PUSH1 0x0 KECCAK256 PUSH1 0x0 SWAP1 SLOAD SWAP1 PUSH2 0x100 EXP SWAP1 DIV PUSH1 0xFF AND ISZERO ISZERO EQ PUSH2 0x787 JUMPI PUSH1 0x40 MLOAD PUSH32 0x8C379A000000000000000000000000000000000000000000000000000000000 DUP2 MSTORE PUSH1 0x4 ADD PUSH2 0x77E SWAP1 PUSH2 0x123F JUMP JUMPDEST PUSH1 0x40 MLOAD DUP1 SWAP2 SUB SWAP1 REVERT JUMPDEST PUSH1 0x1 PUSH1 0x2 PUSH1 0x0 CALLER PUSH20 0xFFFFFFFFFFFFFFFFFFFFFFFFFFFFFFFFFFFFFFFF AND PUSH20 0xFFFFFFFFFFFFFFFFFFFFFFFFFFFFFFFFFFFFFFFF AND DUP2 MSTORE PUSH1 0x20 ADD SWAP1 DUP2 MSTORE PUSH1 0x20 ADD PUSH1 0x0 KECCAK256 PUSH1 0x0 PUSH2 0x100 EXP DUP2 SLOAD DUP2 PUSH1 0xFF MUL NOT AND SWAP1 DUP4 ISZERO ISZERO MUL OR SWAP1 SSTORE POP PUSH1 0x3 PUSH1 0x0 DUP2 SLOAD DUP1 SWAP3 SWAP2 SWAP1 PUSH2 0x7F2 SWAP1 PUSH2 0x1118 JUMP JUMPDEST SWAP2 SWAP1 POP SSTORE POP JUMP JUMPDEST PUSH1 0x2 PUSH1 0x0 CALLER PUSH20 0xFFFFFFFFFFFFFFFFFFFFFFFFFFFFFFFFFFFFFFFF AND PUSH20 0xFFFFFFFFFFFFFFFFFFFFFFFFFFFFFFFFFFFFFFFF AND DUP2 MSTORE PUSH1 0x20 ADD SWAP1 DUP2 MSTORE PUSH1 0x20 ADD PUSH1 0x0 KECCAK256 PUSH1 0x0 SWAP1 SLOAD SWAP1 PUSH2 0x100 EXP SWAP1 DIV PUSH1 0xFF AND PUSH2 0x885 JUMPI PUSH1 0x40 MLOAD PUSH32 0x8C379A000000000000000000000000000000000000000000000000000000000 DUP2 MSTORE PUSH1 0x4 ADD PUSH2 0x87C SWAP1 PUSH2 0x12AB JUMP JUMPDEST PUSH1 0x40 MLOAD DUP1 SWAP2 SUB SWAP1 REVERT JUMPDEST PUSH1 0x0 ISZERO ISZERO PUSH1 0x4 PUSH1 0x0 DUP4 DUP2 MSTORE PUSH1 0x20 ADD SWAP1 DUP2 MSTORE PUSH1 0x20 ADD PUSH1 0x0 KECCAK256 PUSH1 0x4 ADD PUSH1 0x0 CALLER PUSH20 0xFFFFFFFFFFFFFFFFFFFFFFFFFFFFFFFFFFFFFFFF AND PUSH20 0xFFFFFFFFFFFFFFFFFFFFFFFFFFFFFFFFFFFFFFFF AND DUP2 MSTORE PUSH1 0x20 ADD SWAP1 DUP2 MSTORE PUSH1 0x20 ADD PUSH1 0x0 KECCAK256 PUSH1 0x0 SWAP1 SLOAD SWAP1 PUSH2 0x100 EXP SWAP1 DIV PUSH1 0xFF AND ISZERO ISZERO EQ PUSH2 0x92C JUMPI PUSH1 0x40 MLOAD PUSH32 0x8C379A000000000000000000000000000000000000000000000000000000000 DUP2 MSTORE PUSH1 0x4 ADD PUSH2 0x923 SWAP1 PUSH2 0x133D JUMP JUMPDEST PUSH1 0x40 MLOAD DUP1 SWAP2 SUB SWAP1 REVERT JUMPDEST PUSH1 0x1 PUSH1 0x4 PUSH1 0x0 DUP4 DUP2 MSTORE PUSH1 0x20 ADD SWAP1 DUP2 MSTORE PUSH1 0x20 ADD PUSH1 0x0 KECCAK256 PUSH1 0x4 ADD PUSH1 0x0 CALLER PUSH20 0xFFFFFFFFFFFFFFFFFFFFFFFFFFFFFFFFFFFFFFFF AND PUSH20 0xFFFFFFFFFFFFFFFFFFFFFFFFFFFFFFFFFFFFFFFF AND DUP2 MSTORE PUSH1 0x20 ADD SWAP1 DUP2 MSTORE PUSH1 0x20 ADD PUSH1 0x0 KECCAK256 PUSH1 0x0 PUSH2 0x100 EXP DUP2 SLOAD DUP2 PUSH1 0xFF MUL NOT AND SWAP1 DUP4 ISZERO ISZERO MUL OR SWAP1 SSTORE POP PUSH1 0x4 PUSH1 0x0 DUP3 DUP2 MSTORE PUSH1 0x20 ADD SWAP1 DUP2 MSTORE PUSH1 0x20 ADD PUSH1 0x0 KECCAK256 PUSH1 0x3 ADD PUSH1 0x0 DUP2 SLOAD DUP1 SWAP3 SWAP2 SWAP1 PUSH2 0x9BF SWAP1 PUSH2 0x1118 JUMP JUMPDEST SWAP2 SWAP1 POP SSTORE POP POP JUMP JUMPDEST PUSH1 0x0 DUP1 SLOAD SWAP1 PUSH2 0x100 EXP SWAP1 DIV PUSH20 0xFFFFFFFFFFFFFFFFFFFFFFFFFFFFFFFFFFFFFFFF AND DUP2 JUMP JUMPDEST DUP3 DUP1 SLOAD PUSH2 0x9F7 SWAP1 PUSH2 0x10E6 JUMP JUMPDEST SWAP1 PUSH1 0x0 MSTORE PUSH1 0x20 PUSH1 0x0 KECCAK256 SWAP1 PUSH1 0x1F ADD PUSH1 0x20 SWAP1 DIV DUP2 ADD SWAP3 DUP3 PUSH2 0xA19 JUMPI PUSH1 0x0 DUP6 SSTORE PUSH2 0xA60 JUMP JUMPDEST DUP3 PUSH1 0x1F LT PUSH2 0xA32 JUMPI DUP1 MLOAD PUSH1 0xFF NOT AND DUP4 DUP1 ADD OR DUP6 SSTORE PUSH2 0xA60 JUMP JUMPDEST DUP3 DUP1 ADD PUSH1 0x1 ADD DUP6 SSTORE DUP3 ISZERO PUSH2 0xA60 JUMPI SWAP2 DUP3 ADD JUMPDEST DUP3 DUP2 GT ISZERO PUSH2 0xA5F JUMPI DUP3 MLOAD DUP3 SSTORE SWAP2 PUSH1 0x20 ADD SWAP2 SWAP1 PUSH1 0x1 ADD SWAP1 PUSH2 0xA44 JUMP JUMPDEST JUMPDEST POP SWAP1 POP PUSH2 0xA6D SWAP2 SWAP1 PUSH2 0xA71 JUMP JUMPDEST POP SWAP1 JUMP JUMPDEST JUMPDEST DUP1 DUP3 GT ISZERO PUSH2 0xA8A JUMPI PUSH1 0x0 DUP2 PUSH1 0x0 SWAP1 SSTORE POP PUSH1 0x1 ADD PUSH2 0xA72 JUMP JUMPDEST POP SWAP1 JUMP JUMPDEST PUSH1 0x0 PUSH1 0x40 MLOAD SWAP1 POP SWAP1 JUMP JUMPDEST PUSH1 0x0 DUP1 REVERT JUMPDEST PUSH1 0x0 DUP1 REVERT JUMPDEST PUSH1 0x0 DUP2 SWAP1 POP SWAP2 SWAP1 POP JUMP JUMPDEST PUSH2 0xAB5 DUP2 PUSH2 0xAA2 JUMP JUMPDEST DUP2 EQ PUSH2 0xAC0 JUMPI PUSH1 0x0 DUP1 REVERT JUMPDEST POP JUMP JUMPDEST PUSH1 0x0 DUP2 CALLDATALOAD SWAP1 POP PUSH2 0xAD2 DUP2 PUSH2 0xAAC JUMP JUMPDEST SWAP3 SWAP2 POP POP JUMP JUMPDEST PUSH1 0x0 PUSH1 0x20 DUP3 DUP5 SUB SLT ISZERO PUSH2 0xAEE JUMPI PUSH2 0xAED PUSH2 0xA98 JUMP JUMPDEST JUMPDEST PUSH1 0x0 PUSH2 0xAFC DUP5 DUP3 DUP6 ADD PUSH2 0xAC3 JUMP JUMPDEST SWAP2 POP POP SWAP3 SWAP2 POP POP JUMP JUMPDEST PUSH1 0x0 PUSH20 0xFFFFFFFFFFFFFFFFFFFFFFFFFFFFFFFFFFFFFFFF DUP3 AND SWAP1 POP SWAP2 SWAP1 POP JUMP JUMPDEST PUSH1 0x0 PUSH2 0xB30 DUP3 PUSH2 0xB05 JUMP JUMPDEST SWAP1 POP SWAP2 SWAP1 POP JUMP JUMPDEST PUSH2 0xB40 DUP2 PUSH2 0xB25 JUMP JUMPDEST DUP2 EQ PUSH2 0xB4B JUMPI PUSH1 0x0 DUP1 REVERT JUMPDEST POP JUMP JUMPDEST PUSH1 0x0 DUP2 CALLDATALOAD SWAP1 POP PUSH2 0xB5D DUP2 PUSH2 0xB37 JUMP JUMPDEST SWAP3 SWAP2 POP POP JUMP JUMPDEST PUSH1 0x0 PUSH1 0x20 DUP3 DUP5 SUB SLT ISZERO PUSH2 0xB79 JUMPI PUSH2 0xB78 PUSH2 0xA98 JUMP JUMPDEST JUMPDEST PUSH1 0x0 PUSH2 0xB87 DUP5 DUP3 DUP6 ADD PUSH2 0xB4E JUMP JUMPDEST SWAP2 POP POP SWAP3 SWAP2 POP POP JUMP JUMPDEST PUSH1 0x0 DUP2 ISZERO ISZERO SWAP1 POP SWAP2 SWAP1 POP JUMP JUMPDEST PUSH2 0xBA5 DUP2 PUSH2 0xB90 JUMP JUMPDEST DUP3 MSTORE POP POP JUMP JUMPDEST PUSH1 0x0 PUSH1 0x20 DUP3 ADD SWAP1 POP PUSH2 0xBC0 PUSH1 0x0 DUP4 ADD DUP5 PUSH2 0xB9C JUMP JUMPDEST SWAP3 SWAP2 POP POP JUMP JUMPDEST PUSH2 0xBCF DUP2 PUSH2 0xAA2 JUMP JUMPDEST DUP3 MSTORE POP POP JUMP JUMPDEST PUSH1 0x0 PUSH1 0x20 DUP3 ADD SWAP1 POP PUSH2 0xBEA PUSH1 0x0 DUP4 ADD DUP5 PUSH2 0xBC6 JUMP JUMPDEST SWAP3 SWAP2 POP POP JUMP JUMPDEST PUSH2 0xBF9 DUP2 PUSH2 0xB25 JUMP JUMPDEST DUP3 MSTORE POP POP JUMP JUMPDEST PUSH1 0x0 PUSH1 0xA0 DUP3 ADD SWAP1 POP PUSH2 0xC14 PUSH1 0x0 DUP4 ADD DUP9 PUSH2 0xBC6 JUMP JUMPDEST PUSH2 0xC21 PUSH1 0x20 DUP4 ADD DUP8 PUSH2 0xBC6 JUMP JUMPDEST PUSH2 0xC2E PUSH1 0x40 DUP4 ADD DUP7 PUSH2 0xBC6 JUMP JUMPDEST PUSH2 0xC3B PUSH1 0x60 DUP4 ADD DUP6 PUSH2 0xBC6 JUMP JUMPDEST PUSH2 0xC48 PUSH1 0x80 DUP4 ADD DUP5 PUSH2 0xBF0 JUMP JUMPDEST SWAP7 SWAP6 POP POP POP POP POP POP JUMP JUMPDEST PUSH1 0x0 DUP2 MLOAD SWAP1 POP SWAP2 SWAP1 POP JUMP JUMPDEST PUSH1 0x0 DUP3 DUP3 MSTORE PUSH1 0x20 DUP3 ADD SWAP1 POP SWAP3 SWAP2 POP POP JUMP JUMPDEST PUSH1 0x0 JUMPDEST DUP4 DUP2 LT ISZERO PUSH2 0xC8C JUMPI DUP1 DUP3 ADD MLOAD DUP2 DUP5 ADD MSTORE PUSH1 0x20 DUP2 ADD SWAP1 POP PUSH2 0xC71 JUMP JUMPDEST DUP4 DUP2 GT ISZERO PUSH2 0xC9B JUMPI PUSH1 0x0 DUP5 DUP5 ADD MSTORE JUMPDEST POP POP POP POP JUMP JUMPDEST PUSH1 0x0 PUSH1 0x1F NOT PUSH1 0x1F DUP4 ADD AND SWAP1 POP SWAP2 SWAP1 POP JUMP JUMPDEST PUSH1 0x0 PUSH2 0xCBD DUP3 PUSH2 0xC52 JUMP JUMPDEST PUSH2 0xCC7 DUP2 DUP6 PUSH2 0xC5D JUMP JUMPDEST SWAP4 POP PUSH2 0xCD7 DUP2 DUP6 PUSH1 0x20 DUP7 ADD PUSH2 0xC6E JUMP JUMPDEST PUSH2 0xCE0 DUP2 PUSH2 0xCA1 JUMP JUMPDEST DUP5 ADD SWAP2 POP POP SWAP3 SWAP2 POP POP JUMP JUMPDEST PUSH1 0x0 PUSH1 0xA0 DUP3 ADD SWAP1 POP DUP2 DUP2 SUB PUSH1 0x0 DUP4 ADD MSTORE PUSH2 0xD05 DUP2 DUP9 PUSH2 0xCB2 JUMP JUMPDEST SWAP1 POP PUSH2 0xD14 PUSH1 0x20 DUP4 ADD DUP8 PUSH2 0xBC6 JUMP JUMPDEST PUSH2 0xD21 PUSH1 0x40 DUP4 ADD DUP7 PUSH2 0xBF0 JUMP JUMPDEST PUSH2 0xD2E PUSH1 0x60 DUP4 ADD DUP6 PUSH2 0xB9C JUMP JUMPDEST PUSH2 0xD3B PUSH1 0x80 DUP4 ADD DUP5 PUSH2 0xBC6 JUMP JUMPDEST SWAP7 SWAP6 POP POP POP POP POP POP JUMP JUMPDEST PUSH1 0x0 DUP1 REVERT JUMPDEST PUSH1 0x0 DUP1 REVERT JUMPDEST PUSH32 0x4E487B7100000000000000000000000000000000000000000000000000000000 PUSH1 0x0 MSTORE PUSH1 0x41 PUSH1 0x4 MSTORE PUSH1 0x24 PUSH1 0x0 REVERT JUMPDEST PUSH2 0xD87 DUP3 PUSH2 0xCA1 JUMP JUMPDEST DUP2 ADD DUP2 DUP2 LT PUSH8 0xFFFFFFFFFFFFFFFF DUP3 GT OR ISZERO PUSH2 0xDA6 JUMPI PUSH2 0xDA5 PUSH2 0xD4F JUMP JUMPDEST JUMPDEST DUP1 PUSH1 0x40 MSTORE POP POP POP JUMP JUMPDEST PUSH1 0x0 PUSH2 0xDB9 PUSH2 0xA8E JUMP JUMPDEST SWAP1 POP PUSH2 0xDC5 DUP3 DUP3 PUSH2 0xD7E JUMP JUMPDEST SWAP2 SWAP1 POP JUMP JUMPDEST PUSH1 0x0 PUSH8 0xFFFFFFFFFFFFFFFF DUP3 GT ISZERO PUSH2 0xDE5 JUMPI PUSH2 0xDE4 PUSH2 0xD4F JUMP JUMPDEST JUMPDEST PUSH2 0xDEE DUP3 PUSH2 0xCA1 JUMP JUMPDEST SWAP1 POP PUSH1 0x20 DUP2 ADD SWAP1 POP SWAP2 SWAP1 POP JUMP JUMPDEST DUP3 DUP2 DUP4 CALLDATACOPY PUSH1 0x0 DUP4 DUP4 ADD MSTORE POP POP POP JUMP JUMPDEST PUSH1 0x0 PUSH2 0xE1D PUSH2 0xE18 DUP5 PUSH2 0xDCA JUMP JUMPDEST PUSH2 0xDAF JUMP JUMPDEST SWAP1 POP DUP3 DUP2 MSTORE PUSH1 0x20 DUP2 ADD DUP5 DUP5 DUP5 ADD GT ISZERO PUSH2 0xE39 JUMPI PUSH2 0xE38 PUSH2 0xD4A JUMP JUMPDEST JUMPDEST PUSH2 0xE44 DUP5 DUP3 DUP6 PUSH2 0xDFB JUMP JUMPDEST POP SWAP4 SWAP3 POP POP POP JUMP JUMPDEST PUSH1 0x0 DUP3 PUSH1 0x1F DUP4 ADD SLT PUSH2 0xE61 JUMPI PUSH2 0xE60 PUSH2 0xD45 JUMP JUMPDEST JUMPDEST DUP2 CALLDATALOAD PUSH2 0xE71 DUP5 DUP3 PUSH1 0x20 DUP7 ADD PUSH2 0xE0A JUMP JUMPDEST SWAP2 POP POP SWAP3 SWAP2 POP POP JUMP JUMPDEST PUSH1 0x0 DUP1 PUSH1 0x0 PUSH1 0x60 DUP5 DUP7 SUB SLT ISZERO PUSH2 0xE93 JUMPI PUSH2 0xE92 PUSH2 0xA98 JUMP JUMPDEST JUMPDEST PUSH1 0x0 DUP5 ADD CALLDATALOAD PUSH8 0xFFFFFFFFFFFFFFFF DUP2 GT ISZERO PUSH2 0xEB1 JUMPI PUSH2 0xEB0 PUSH2 0xA9D JUMP JUMPDEST JUMPDEST PUSH2 0xEBD DUP7 DUP3 DUP8 ADD PUSH2 0xE4C JUMP JUMPDEST SWAP4 POP POP PUSH1 0x20 PUSH2 0xECE DUP7 DUP3 DUP8 ADD PUSH2 0xAC3 JUMP JUMPDEST SWAP3 POP POP PUSH1 0x40 PUSH2 0xEDF DUP7 DUP3 DUP8 ADD PUSH2 0xB4E JUMP JUMPDEST SWAP2 POP POP SWAP3 POP SWAP3 POP SWAP3 JUMP JUMPDEST PUSH1 0x0 PUSH1 0x20 DUP3 ADD SWAP1 POP PUSH2 0xEFE PUSH1 0x0 DUP4 ADD DUP5 PUSH2 0xBF0 JUMP JUMPDEST SWAP3 SWAP2 POP POP JUMP JUMPDEST PUSH32 0x5468697320726571756573742068617320616C7265616479206265656E20636F PUSH1 0x0 DUP3 ADD MSTORE PUSH32 0x6D706C6574656400000000000000000000000000000000000000000000000000 PUSH1 0x20 DUP3 ADD MSTORE POP JUMP JUMPDEST PUSH1 0x0 PUSH2 0xF60 PUSH1 0x27 DUP4 PUSH2 0xC5D JUMP JUMPDEST SWAP2 POP PUSH2 0xF6B DUP3 PUSH2 0xF04 JUMP JUMPDEST PUSH1 0x40 DUP3 ADD SWAP1 POP SWAP2 SWAP1 POP JUMP JUMPDEST PUSH1 0x0 PUSH1 0x20 DUP3 ADD SWAP1 POP DUP2 DUP2 SUB PUSH1 0x0 DUP4 ADD MSTORE PUSH2 0xF8F DUP2 PUSH2 0xF53 JUMP JUMPDEST SWAP1 POP SWAP2 SWAP1 POP JUMP JUMPDEST PUSH32 0x4E487B7100000000000000000000000000000000000000000000000000000000 PUSH1 0x0 MSTORE PUSH1 0x12 PUSH1 0x4 MSTORE PUSH1 0x24 PUSH1 0x0 REVERT JUMPDEST PUSH32 0x4E487B7100000000000000000000000000000000000000000000000000000000 PUSH1 0x0 MSTORE PUSH1 0x11 PUSH1 0x4 MSTORE PUSH1 0x24 PUSH1 0x0 REVERT JUMPDEST PUSH1 0x0 PUSH2 0xFFF DUP3 PUSH2 0xAA2 JUMP JUMPDEST SWAP2 POP PUSH2 0x100A DUP4 PUSH2 0xAA2 JUMP JUMPDEST SWAP3 POP DUP3 PUSH2 0x101A JUMPI PUSH2 0x1019 PUSH2 0xF96 JUMP JUMPDEST JUMPDEST DUP3 DUP3 DIV SWAP1 POP SWAP3 SWAP2 POP POP JUMP JUMPDEST PUSH32 0x4174206C656173742068616C66206F6620617070726F766572732073686F756C PUSH1 0x0 DUP3 ADD MSTORE PUSH32 0x6420616363657074207468697320726571756573740000000000000000000000 PUSH1 0x20 DUP3 ADD MSTORE POP JUMP JUMPDEST PUSH1 0x0 PUSH2 0x1081 PUSH1 0x35 DUP4 PUSH2 0xC5D JUMP JUMPDEST SWAP2 POP PUSH2 0x108C DUP3 PUSH2 0x1025 JUMP JUMPDEST PUSH1 0x40 DUP3 ADD SWAP1 POP SWAP2 SWAP1 POP JUMP JUMPDEST PUSH1 0x0 PUSH1 0x20 DUP3 ADD SWAP1 POP DUP2 DUP2 SUB PUSH1 0x0 DUP4 ADD MSTORE PUSH2 0x10B0 DUP2 PUSH2 0x1074 JUMP JUMPDEST SWAP1 POP SWAP2 SWAP1 POP JUMP JUMPDEST PUSH32 0x4E487B7100000000000000000000000000000000000000000000000000000000 PUSH1 0x0 MSTORE PUSH1 0x22 PUSH1 0x4 MSTORE PUSH1 0x24 PUSH1 0x0 REVERT JUMPDEST PUSH1 0x0 PUSH1 0x2 DUP3 DIV SWAP1 POP PUSH1 0x1 DUP3 AND DUP1 PUSH2 0x10FE JUMPI PUSH1 0x7F DUP3 AND SWAP2 POP JUMPDEST PUSH1 0x20 DUP3 LT DUP2 EQ ISZERO PUSH2 0x1112 JUMPI PUSH2 0x1111 PUSH2 0x10B7 JUMP JUMPDEST JUMPDEST POP SWAP2 SWAP1 POP JUMP JUMPDEST PUSH1 0x0 PUSH2 0x1123 DUP3 PUSH2 0xAA2 JUMP JUMPDEST SWAP2 POP PUSH32 0xFFFFFFFFFFFFFFFFFFFFFFFFFFFFFFFFFFFFFFFFFFFFFFFFFFFFFFFFFFFFFFFF DUP3 EQ ISZERO PUSH2 0x1156 JUMPI PUSH2 0x1155 PUSH2 0xFC5 JUMP JUMPDEST JUMPDEST PUSH1 0x1 DUP3 ADD SWAP1 POP SWAP2 SWAP1 POP JUMP JUMPDEST PUSH32 0x506C6561736520746F7020757020746F206265636F6D6520616E20617070726F PUSH1 0x0 DUP3 ADD MSTORE PUSH32 0x7665720000000000000000000000000000000000000000000000000000000000 PUSH1 0x20 DUP3 ADD MSTORE POP JUMP JUMPDEST PUSH1 0x0 PUSH2 0x11BD PUSH1 0x23 DUP4 PUSH2 0xC5D JUMP JUMPDEST SWAP2 POP PUSH2 0x11C8 DUP3 PUSH2 0x1161 JUMP JUMPDEST PUSH1 0x40 DUP3 ADD SWAP1 POP SWAP2 SWAP1 POP JUMP JUMPDEST PUSH1 0x0 PUSH1 0x20 DUP3 ADD SWAP1 POP DUP2 DUP2 SUB PUSH1 0x0 DUP4 ADD MSTORE PUSH2 0x11EC DUP2 PUSH2 0x11B0 JUMP JUMPDEST SWAP1 POP SWAP2 SWAP1 POP JUMP JUMPDEST PUSH32 0x416C726561647920766F74656400000000000000000000000000000000000000 PUSH1 0x0 DUP3 ADD MSTORE POP JUMP JUMPDEST PUSH1 0x0 PUSH2 0x1229 PUSH1 0xD DUP4 PUSH2 0xC5D JUMP JUMPDEST SWAP2 POP PUSH2 0x1234 DUP3 PUSH2 0x11F3 JUMP JUMPDEST PUSH1 0x20 DUP3 ADD SWAP1 POP SWAP2 SWAP1 POP JUMP JUMPDEST PUSH1 0x0 PUSH1 0x20 DUP3 ADD SWAP1 POP DUP2 DUP2 SUB PUSH1 0x0 DUP4 ADD MSTORE PUSH2 0x1258 DUP2 PUSH2 0x121C JUMP JUMPDEST SWAP1 POP SWAP2 SWAP1 POP JUMP JUMPDEST PUSH32 0x536F7272792C20796F7520617265206E6F7420616E20617070726F7665720000 PUSH1 0x0 DUP3 ADD MSTORE POP JUMP JUMPDEST PUSH1 0x0 PUSH2 0x1295 PUSH1 0x1E DUP4 PUSH2 0xC5D JUMP JUMPDEST SWAP2 POP PUSH2 0x12A0 DUP3 PUSH2 0x125F JUMP JUMPDEST PUSH1 0x20 DUP3 ADD SWAP1 POP SWAP2 SWAP1 POP JUMP JUMPDEST PUSH1 0x0 PUSH1 0x20 DUP3 ADD SWAP1 POP DUP2 DUP2 SUB PUSH1 0x0 DUP4 ADD MSTORE PUSH2 0x12C4 DUP2 PUSH2 0x1288 JUMP JUMPDEST SWAP1 POP SWAP2 SWAP1 POP JUMP JUMPDEST PUSH32 0x596F75206861766520616C726561647920617070726F76656420746869732072 PUSH1 0x0 DUP3 ADD MSTORE PUSH32 0x6571756573740000000000000000000000000000000000000000000000000000 PUSH1 0x20 DUP3 ADD MSTORE POP JUMP JUMPDEST PUSH1 0x0 PUSH2 0x1327 PUSH1 0x26 DUP4 PUSH2 0xC5D JUMP JUMPDEST SWAP2 POP PUSH2 0x1332 DUP3 PUSH2 0x12CB JUMP JUMPDEST PUSH1 0x40 DUP3 ADD SWAP1 POP SWAP2 SWAP1 POP JUMP JUMPDEST PUSH1 0x0 PUSH1 0x20 DUP3 ADD SWAP1 POP DUP2 DUP2 SUB PUSH1 0x0 DUP4 ADD MSTORE PUSH2 0x1356 DUP2 PUSH2 0x131A JUMP JUMPDEST SWAP1 POP SWAP2 SWAP1 POP JUMP INVALID LOG2 PUSH5 0x6970667358 0x22 SLT KECCAK256 0xAB DELEGATECALL CALLDATALOAD EXP 0x5C 0xDA PUSH21 0x8C83565DD8CC429D8CB3EA8C8817E95466B54999A4 0xC5 DUP10 0x2F 0xD PUSH5 0x736F6C6343 STOP ADDMOD SIGNEXTEND STOP CALLER LOG2 PUSH5 0x6970667358 0x22 SLT KECCAK256 PUSH22 0x9000319AEEDCCB1EE0AFABA2F35BB1CD000748DE8D2D SHL GT PUSH28 0x644D69197C7E64736F6C634300080B00330000000000000000000000 "},"gasEstimates":{"creation":{"codeDepositCost":"1296400","executionCost":"1349","totalCost":"1297749"},"external":{"createCampaign(uint256)":"infinite","deployedCampaigns(uint256)":"4934","getAllDeployedCampaigns()":"infinite"}},"methodIdentifiers":{"createCampaign(uint256)":"a3303a75","deployedCampaigns(uint256)":"339d50a5","getAllDeployedCampaigns()":"a950fbc5"}},"storageLayout":{"storage":[{"astId":4,"contract":"campaign:CampaignFactory","label":"deployedCampaigns","offset":0,"slot":"0","type":"t_array(t_address)dyn_storage"}],"types":{"t_address":{"encoding":"inplace","label":"address","numberOfBytes":"20"},"t_array(t_address)dyn_storage":{"base":"t_address","encoding":"dynamic_array","label":"address[]","numberOfBytes":"32"}}},"userdoc":{"kind":"user","methods":{},"version":1}}